:020000040800F2
:10000000000003207D0D0008F9280008FB280008E7
:10001000FD280008FF280008012900080000000052
:10002000000000000000000000000000D185000872
:10003000032900080000000061860008C58600084A
:10004000CD0D0008CD0D0008CD0D0008CD0D000828
:10005000CD0D0008CD0D0008CD0D0008CD0D000818
:10006000CD0D0008CD0D0008CD0D0008CD0D000808
:10007000CD0D0008CD0D0008CD0D0008CD0D0008F8
:10008000CD0D0008CD0D0008CD0D0008CD0D0008E8
:10009000CD0D0008CD0D0008CD0D0008CD0D0008D8
:1000A000CD0D0008CD0D0008CD0D0008CD0D0008C8
:1000B000CD0D0008CD0D0008CD0D0008CD0D0008B8
:1000C000CD0D0008CD0D0008CD0D0008CD0D0008A8
:1000D000CD0D0008CD0D0008CD0D0008CD0D000898
:1000E000CD0D0008CD0D0008CD0D0008CD0D000888
:1000F000CD0D0008CD0D0008CD0D0008CD0D000878
:10010000CD0D0008CD0D0008CD0D0008CD0D000867
:10011000CD0D0008CD0D000805290008CD0D000803
:10012000CD0D0008CD0D0008CD0D0008CD0D000847
:10013000CD0D0008CD0D0008CD0D0008CD0D000837
:10014000CD0D0008CD0D0008CD0D0008CD0D000827
:10015000CD0D0008CD0D0008CD0D0008CD0D000817
:10016000CD0D0008CD0D0008CD0D0008CD0D000807
:10017000CD0D0008CD0D0008CD0D000800000000D9
:10018000CD0D0008CD0D0008CD0D0008CD0D0008E7
:10019000CD0D0008CD0D0008CD0D0008CD0D0008D7
:0C01A00011290008CD0D00081D290008E1
:1001B00010B5054C237833B9044B13B10448AFF3A1
:1001C00000800123237010BD70010020000000009A
:1001D00088D3010808B5034B1BB103490348AFF3AB
:1001E000008008BD000000007401002088D30108D1
:1001F00001F0FF01102A2BDB10F0070F08D010F8D8
:10020000013B013A8B422DD010F0070F42B3F6D1DB
:10021000F0B441EA012141EA014122F007047FF0F4
:1002200000070023F0E80256083C85EA010586EA4B
:10023000010685FA47F5A3FA87F586FA47F6A5FA87
:1002400087F68EB9EED1F0BC01F0FF0102F0070293
:1002500032B110F8013B013A83EA010313B1F8D13E
:100260000020704701387047002D06BF354603381F
:10027000073815F0010F07D1013015F4807F02BF58
:10028000013015F4C03F0130F0BC0138704700BFA9
:1002900081F0004102E000BF83F0004330B54FEA37
:1002A00041044FEA430594EA050F08BF90EA020FA4
:1002B0001FBF54EA000C55EA020C7FEA645C7FEA37
:1002C000655C00F0E2804FEA5454D4EB5555B8BF5A
:1002D0006D420CDD2C4480EA020281EA030382EACB
:1002E000000083EA010180EA020281EA0303362D5D
:1002F00088BF30BD11F0004F4FEA01314FF4801C30
:100300004CEA113102D0404261EB410113F0004F41
:100310004FEA03334CEA133302D0524263EB4303F8
:1003200094EA050F00F0A780A4F10104D5F1200E96
:100330000DDB02FA0EFC22FA05F2801841F10001F1
:1003400003FA0EF2801843FA05F359410EE0A5F1C5
:1003500020050EF1200E012A03FA0EFC28BF4CF0F6
:10036000020C43FA05F3C01851EBE37101F00045AC
:1003700007D54FF0000EDCF1000C7EEB00006EEBB9
:100380000101B1F5801F1BD3B1F5001F0CD3490843
:100390005FEA30004FEA3C0C04F101044FEA44529A
:1003A00012F5800F80F09A80BCF1004F08BF5FEA21
:1003B000500C50F1000041EB045141EA050130BD01
:1003C0005FEA4C0C404141EB010111F4801FA4F1A4
:1003D0000104E9D191F0000F04BF01460020B1FAF9
:1003E00081F308BF2033A3F10B03B3F120020CDA31
:1003F0000C3208DD02F1140CC2F10C0201FA0CF00F
:1004000021FA02F10CE002F11402D8BFC2F1200C73
:1004100001FA02F120FA0CFCDCBF41EA0C01904029
:10042000E41AA2BF01EB0451294330BD6FEA040472
:100430001F3C1CDA0C340EDC04F11404C4F120025D
:1004400020FA04F001FA02F340EA030021FA04F36F
:1004500045EA030130BDC4F10C04C4F1200220FAC6
:1004600002F001FA04F340EA0300294630BD21FA04
:1004700004F0294630BD94F0000F83F4801306BFCA
:1004800081F480110134013D4EE77FEA645C18BFBE
:100490007FEA655C29D094EA050F08BF90EA020F55
:1004A00005D054EA000C04BF1946104630BD91EA4D
:1004B000030F1EBF0021002030BD5FEA545C05D150
:1004C0004000494128BF41F0004130BD14F580048F
:1004D0003CBF01F5801130BD01F0004545F0FE4103
:1004E00041F470014FF0000030BD7FEA645C1ABF38
:1004F000194610467FEA655C1CBF0B46024650EA6F
:10050000013406BF52EA033591EA030F41F400219A
:1005100030BD00BF90F0000F04BF0021704730B520
:100520004FF4806404F132044FF000054FF00001F5
:1005300050E700BF90F0000F04BF0021704730B5B6
:100540004FF4806404F1320410F0004548BF40428B
:100550004FF000013EE700BF42004FEAE2014FEAE0
:1005600031014FEA02701FBF12F07F4393F07F4FBB
:1005700081F06051704732F07F4208BF704793F0BE
:100580007F4F04BF41F40021704730B54FF46074D1
:1005900001F0004521F000411CE700BF50EA0102D4
:1005A00008BF704730B54FF000050AE050EA01027D
:1005B00008BF704730B511F0004502D5404261EBED
:1005C00041014FF4806404F132045FEA915C3FF42E
:1005D000D8AE4FF003025FEADC0C18BF03325FEACB
:1005E000DC0C18BF033202EBDC02C2F1200300FA7C
:1005F00003FC20FA02F001FA03FE40EA0E0021FAA1
:1006000002F11444BDE600BF70B54FF0FF0C4CF48E
:10061000E06C1CEA11541DBF1CEA135594EA0C0F40
:1006200095EA0C0F00F0DEF82C4481EA030621EA7B
:100630004C5123EA4C5350EA013518BF52EA0335B6
:1006400041F4801143F4801338D0A0FB02CE4FF068
:100650000005E1FB02E506F00042E0FB03E54FF098
:100660000006E1FB03569CF0000F18BF4EF0010E90
:10067000A4F1FF04B6F5007F64F5407404D25FEA8C
:100680004E0E6D4146EB060642EAC62141EA55513F
:100690004FEAC52040EA5E504FEACE2EB4F1FD0C81
:1006A00088BFBCF5E06F1ED8BEF1004F08BF5FEAFF
:1006B000500E50F1000041EB045170BD06F00046B1
:1006C00046EA010140EA020081EA0301B4EB5C045E
:1006D000C2BFD4EB0C0541EA045170BD41F4801156
:1006E0004FF0000E013C00F3AB8014F1360FDEBF7B
:1006F000002001F0004170BDC4F10004203C35DA57
:100700000C341BDC04F11404C4F1200500FA05F3D9
:1007100020FA04F001FA05F240EA020001F000427A
:1007200021F0004110EBD37021FA04F642EB0601F0
:100730005EEA430E08BF20EAD37070BDC4F10C041A
:10074000C4F1200500FA04F320FA05F001FA04F2DE
:1007500040EA020001F0004110EBD37041F10001CA
:100760005EEA430E08BF20EAD37070BDC4F12005D5
:1007700000FA05F24EEA020E20FA04F301FA05F23D
:1007800043EA020321FA04F001F0004121FA04F2E5
:1007900020EA020000EBD3705EEA430E08BF20EAB5
:1007A000D37070BD94F0000F0FD101F000464000EF
:1007B00041EB010111F4801F08BF013CF7D041EA71
:1007C000060195F0000F18BF704703F00046520075
:1007D00043EB030313F4801F08BF013DF7D043EA46
:1007E0000603704794EA0C0F0CEA135518BF95EAFC
:1007F0000C0F0CD050EA410618BF52EA4306D1D183
:1008000081EA030101F000414FF0000070BD50EAA1
:10081000410606BF1046194652EA430619D094EA2B
:100820000C0F02D150EA013613D195EA0C0F05D115
:1008300052EA03361CBF104619460AD181EA030169
:1008400001F0004141F0FE4141F470014FF0000021
:1008500070BD41F0FE4141F4780170BD70B54FF0BC
:10086000FF0C4CF4E06C1CEA11541DBF1CEA13553C
:1008700094EA0C0F95EA0C0F00F0A7F8A4EB05041E
:1008800081EA030E52EA03354FEA013100F0888015
:100890004FEA03334FF0805545EA131343EA1263DE
:1008A0004FEA022245EA111545EA10654FEA002693
:1008B0000EF000419D4208BF964244F1FD0404F54C
:1008C000407402D25B084FEA3202B61A65EB0305A8
:1008D0005B084FEA32024FF480104FF4002CB6EB65
:1008E000020E75EB030E22BFB61A754640EA0C00E5
:1008F0005B084FEA3202B6EB020E75EB030E22BF25
:10090000B61A754640EA5C005B084FEA3202B6EB65
:10091000020E75EB030E22BFB61A754640EA9C0024
:100920005B084FEA3202B6EB020E75EB030E22BFF4
:10093000B61A754640EADC0055EA060E18D04FEAB2
:10094000051545EA16754FEA06164FEAC30343EA52
:1009500052734FEAC2025FEA1C1CC0D111F4801F1F
:100960000BD141EA00014FF000004FF0004CB6E718
:1009700011F4801F04BF01430020B4F1FD0C88BFB7
:10098000BCF5E06F3FF6AFAEB5EB030C04BFB6EBC2
:10099000020C5FEA500C50F1000041EB045170BDB5
:1009A0000EF0004E4EEA113114EB5C04C2BFD4EBE2
:1009B0000C0541EA045170BD41F480114FF0000E66
:1009C000013C90E645EA060E8DE60CEA135594EAE2
:1009D0000C0F08BF95EA0C0F3FF43BAF94EA0C0FE5
:1009E0000AD150EA01347FF434AF95EA0C0F7FF45A
:1009F00025AF104619462CE795EA0C0F06D152EAAE
:100A000003353FF4FDAE1046194622E750EA410691
:100A100018BF52EA43067FF4C5AE50EA41047FF4A2
:100A20000DAF52EA43057FF4EBAE12E74FEA410205
:100A300012F5001215D211D56FF47873B3EB625230
:100A400012D94FEAC12343F0004343EA505311F057
:100A5000004F23FA02F018BF404270474FF00000E9
:100A6000704750EA013005D111F0004008BF6FF027
:100A7000004070474FF00000704700BF53B94AB9BB
:100A8000002908BF00281CBF4FF0FF314FF0FF3096
:100A900000F072B9ADF1080C6DE904CE00F006F873
:100AA000DDF804E0DDE9022304B070472DE9F047EA
:100AB000089E04468846002B4BD18A42154667D9CA
:100AC000B2FA82F24AB1C2F1200701FA02F320FA27
:100AD00007F7954047EA030894404FEA154E230C68
:100AE000B8FBFEF71FFA85FC0EFB178843EA0843A4
:100AF00007FB0CF1994209D9EB1807F1FF3080F0A0
:100B00001B81994240F21881023F2B445B1AA4B228
:100B1000B3FBFEF00EFB103344EA034400FB0CFC75
:100B2000A44509D92C1900F1FF3380F00781A445B1
:100B300040F2048102382C4440EA0740A4EB0C0444
:100B400000271EB1D4400023C6E900433946BDE862
:100B5000F0878B4209D9002E00F0EB800027C6E910
:100B6000000138463946BDE8F087B3FA83F7002F15
:100B700047D18B4202D3824200F2FA80841A61EBA1
:100B8000030301209846002EE0D0C6E90048DDE7C7
:100B900002B9FFDEB2FA82F2002A40F08F80491BD0
:100BA0004FEA154E1FFA85F80127B1FBFEFC230C16
:100BB0000EFB1C1143EA014308FB0CF1994207D9D3
:100BC000EB180CF1FF3002D2994200F2CD8084463E
:100BD000591AA3B2B1FBFEF00EFB101443EA044411
:100BE00008FB00F8A04507D92C1900F1FF3302D209
:100BF000A04500F2B6801846A4EB080440EA0C4079
:100C00009FE7C7F1200CBB4022FA0CFE4EEA030E10
:100C100001FA07F420FA0CF521FA0CF34FEA1E480A
:100C20002543B3FBF8F92C0C08FB19331FFA8EFA95
:100C300044EA034309FB0AF49C4202FA07F200FA71
:100C400007F10BD91EEB030309F1FF3080F0878019
:100C50009C4240F28480A9F1020973441B1BADB28F
:100C6000B3FBF8F008FB103345EA034400FB0AFA33
:100C7000A24508D91EEB040400F1FF336BD2A24554
:100C800069D90238744440EA0940A0FB0289A4EB08
:100C90000A044C45C2464B4654D351D0002E69D06D
:100CA000B1EB0A0564EB030404FA0CFCFD40FC40C4
:100CB0004CEA0505C6E90054002747E7C2F12003C6
:100CC00020FA03F7954001FA02F021FA03F34FEA04
:100CD000154E3843010CB3FBFEF71FFA85F80EFBE7
:100CE000173341EA034107FB08F38B4204FA02F48D
:100CF00007D9691807F1FF3C2FD28B422DD9023F4B
:100D00002944CB1A81B2B3FBFEF00EFB103341EA4B
:100D1000034100FB08F38B4207D9691800F1FF3C3F
:100D200017D28B4215D902382944C91A40EA07471D
:100D30003BE73746304609E70746E7E61846FBE655
:100D40004145ABD2B8EB020A69EB0E0201381346FB
:100D5000A4E76046E9E7184695E76746D1E781468C
:100D60007CE702382C4447E7ACF1020C2B442FE718
:100D7000384608E73746E9E6704700BFDFF834D069
:100D8000002103E00C4B5B58435004310B480C4BE3
:100D900042189A42F6D30B4A02E0002342F8043B81
:100DA000094B9A42F9D304F0E9F91BF031FB00F04A
:100DB00095FE704700000320984B060800000020B5
:100DC0007001002070010020B42C0120FEE700F02B
:100DD00093BC00F001BD704710B5042104461BF020
:100DE00089FA204610BD000038B50C4B0C4C188019
:100DF0000C4B822019806368984740F61103984293
:100E00000AD1094D23682C60822098472B688220E4
:100E1000DB689847002038BD0120FCE78C010020EA
:100E20005C0000208E010020900100204FF4A07192
:100E3000F020FFF7D9BF0000F7B52C4D2B68044612
:100E40001B698220984780B2208000284BD02B68F5
:100E50000DF106025B6901A982209847BDF80630B2
:100E6000A3F5B4739BB20B22B3FBF2F333B1204A68
:100E700012889A423CBF02F1FF339BB2BDF80420B6
:100E800040F6B8318A4295BFC2F57162C2F56D6213
:100E90000E320832ADF80420BDF804100F22B1FB69
:100EA000F2F131B1134A12888A423CBF02F1FF319C
:100EB00089B2114E114D30682F6882B2814288BFCD
:100EC0008A1AB8B298BF521ABB428CBF181AC01AFD
:100ED00092B280B20244052AC4BF31602B603368ED
:100EE00063802B68A38003B0F0BD00BF9001002099
:100EF0008E0100208C010020940100209801002028
:100F000037B568460D461446FFF796FFBDF800005A
:100F100030B1BDF802302B60BDF8043023600120F1
:100F200003B030BD704770477047012380F87410DC
:100F300080F8753070470020704700207047836B41
:100F40000BB10846184770474FF6FF70704740686E
:100F500003689B691847704708B5036804469B6E91
:100F60009847236820461B6E984700F057F923687E
:100F700020469B6D9847292001F0B2F800F04EF909
:100F8000236820469B6D9847F8E710B504460BF0A0
:100F9000E9F923682046D3F89430BDE8104018479B
:100FA00000F0B6BC00F0BABC00F0C0BC00F08CBCD5
:100FB00000F0BEBC00F0C6BC00F090BC08B531B972
:100FC0000A4B0B4A0B484FF427711BF0D7F9C0E9C5
:100FD0000F1200320849436418BF01220A7000331F
:100FE000064A18BF0123137008BD00BF1DD40108B5
:100FF000A8D5010855D40108B6240120B724012042
:101000002DE9F04799461C4B9DF8205088461968F9
:1010100091F87630074614460BB1C86C00B9886861
:1010200003685B6A9847154B1E887043B9F1000F3F
:1010300016D008EB00010A46ADB10B18013CA4B272
:101040001F2C12D8012101FA04F40D49214061B18D
:1010500039684C6F38464146A446BDE8F0476047C2
:1010600041464A46E8E72B46E8E7064B064A07486A
:1010700040F289211BF082F9B8240120B424012018
:101080008B80808000D4010854D5010855D4010814
:101090000AF0F9BB10B5782104461BF02BF9204665
:1010A00010BD90F877301BB1406803681B68184783
:1010B0001846704730B590F8341090F87440104BD3
:1010C0008C421A780DD05AB90E4A0F490F4814882D
:1010D0000F4D0C80018811802980048001221A7034
:1010E00030BD002AFCD00948074A01881180054A12
:1010F000074D14882C80118004800022EFE700BF88
:10110000B0240120AC240120B2240120AE2401200F
:10111000B424012000F02ABC012108B500220846B1
:1011200006F02AFF064B4FF0FF31186006F07AFFF9
:1011300000220421012006F0E9FF024B186008BDDF
:10114000A00100209C01002008B5074B186828B9B1
:10115000064B074A074831211BF010F94FF0FF31C9
:10116000BDE8084006F05EBFA0010020F6D50108EA
:1011700092D6010807D6010808B5064B186828B9A9
:10118000054B064A06483A211BF0F8F8BDE808402E
:1011900006F084BFA0010020F6D5010855D601084D
:1011A00007D6010808B5074B186828B9064B074A47
:1011B000074847211BF0E2F80021BDE8084006F08F
:1011C00031BF00BFA0010020F6D50108CFD601082D
:1011D00007D6010808B5064B186828B9054B064A1A
:1011E000064854211BF0CAF8BDE8084006F056BF77
:1011F000A0010020F6D501080FD7010807D6010885
:10120000044B186820B100231A46034906F0C4BFF6
:10121000704700BF9C0100200400002013B5084C5B
:10122000206858B100231A4601A906F0F7FF4FF0D5
:10123000FF33002201A9206806F0F0FF02B010BDC4
:101240009C01002003685B6C18470020704703680E
:101250009B6A184740F2EF107047000010B5074C2A
:10126000074B2360204604F05FF9064B2361064BD1
:101270006361064B4FF080629A6010BD182B01200D
:1012800000B00240AD1200089112000800E100E039
:1012900008B5034A034B044836211BF06FF800BF22
:1012A000F0D701083BE1010853D70108024B1B6846
:1012B000586803685B691847B8240120084B10B5CB
:1012C00003600446074804F0F7F9074B4FF08062CB
:1012D000C3F88820BFF34F8FBFF36F8F204610BD38
:1012E000A8D70108182B012000E100E010B5044642
:1012F000FFF7E4FF20464FF442611AF0FBFF20465F
:1013000010BD0000044B1B6893F876200AB1D86C1E
:1013100000B99868704700BFB82401202DE9F74351
:101320000D68202D0C4600F09780402D00F0948031
:101330002A1F56425641802D00F09080A5F58073FB
:101340005D425D41FFF7DEFF0368DB699847236874
:10135000402B864600F0998000F28280042B00F03A
:101360008D80202B00F09180BEF1100F14BF4FF044
:10137000010C4FF0020C00224B4BB4F8108019689E
:10138000E78AD1F800905A60BEF1100F29F4403975
:1013900014BF01200220A7EB080749EA0202986067
:1013A000DF600A604A6BC3F82CC022F007020243D8
:1013B0004A630A6C22F47F5222F03F023A430A64E5
:1013C000A28AA2EB08029A6206B995B3227FFF2A8D
:1013D00015BF02210022C3E90C121A631DB3227F3C
:1013E000A169BEF1100F4FEA026C51D14FF01F08F6
:1013F000C1F3C422C2EB0222B2FBF8FE01EA0802EA
:10140000C2EB0222B2FBF8F242EA0C0242EA0E42BE
:10141000C1F34511C1EB01214FF03F0CB1FBFCF1D1
:1014200042EA01225A63C3E9067000211E4804F013
:1014300003FA01211C4804F0FFF9238A628A06B9E5
:1014400055B3CDE90032E368616817481A4604F0E5
:10145000B5F803B0BDE8F08301266FE7012571E719
:10146000802B06D0B3F5807F7FF47EAF4FF0090C60
:1014700001E04FF00A0C4FF400327DE7102814BF52
:101480004FF0010C4FF0020CF5E74FF0000CF2E7C3
:101490004CEA01015963C6E700926168E2680248BC
:1014A00004F06EF8D5E700BF182B0120F7B50D4604
:1014B000FFF728FF0368DB6998471028AB69297F8D
:1014C00066D103F01F02C2EB02221F20B2FBF0F430
:1014D000C3F3C42244EA0164C2EB0222C3F34513FE
:1014E000B2FBF0F244EA0244C3EB03233F220221A1
:1014F000B3FBF2F344EA03242B682748EE8A026820
:10150000082B2B8AA6EB03061368C6600CBF4FF4AA
:1015100000374FF4403723F440333B43C0E90171B7
:101520001360536B23F007030B435363136C23F4D3
:101530007F5323F03F033343B7F5003F13641CD1BF
:101540000123C0E90C340923C0E90661C36200210C
:1015500004F072F90121104804F06EF9B7F5003F6C
:101560002B8A6A8A0DD1E9680B48CDE900320B4617
:101570000A4604F023F803B0F0BD0023C162836281
:10158000E8E700922146EA68034803F0F9FFF2E732
:1015900043EA01640121AFE7182B012070B505462D
:1015A0002C460A4B0C30002668602E726E7244F88E
:1015B000203B602221460BF001F805F54263A6614D
:1015C0002034A342FBD1284670BD00BFA8D7010834
:1015D0000120704754207047542303FB010008305A
:1015E0007047542303FB0100083070470120704707
:1015F00040F23C60704740F23C6303FB010008305E
:10160000704740F23C6303FB010008307047012043
:1016100070471020704700EB01100830704700EB56
:10162000011008307047084601F0B8BC10B5034BF4
:101630000360044608F0BCFD204610BD94D80108A4
:1016400010B50446FFF7F2FF20465C211AF052FE67
:10165000204610BD10B5034B0360044608F0A8FDFA
:10166000204610BD60D8010810B50446FFF7F2FF10
:10167000204640F244611AF03DFE204610BD0000B5
:1016800010B5034B0360044608F092FD204610BDE0
:101690002CD8010810B50446FFF7F2FF20461821A8
:1016A0001AF028FE204610BD10B5084B0360044612
:1016B00000F5CE60FFF7BAFF04F12C00FFF7CAFF78
:1016C00004F11400FFF7DCFF204610BDC8D8010864
:1016D00008B50248FFF7E8FF08BD00BFA8010020D9
:1016E00010B50446FFF7E0FF204640F628011AF047
:1016F00001FE204610BD00002DE9F34101F082F902
:10170000054601F083F90024014623462846224677
:1017100000940FF039F9254B254A264D1A602046D2
:1017200002F08EF824480FF079F82B78BFF35B8F26
:10173000DB0735D428461AF0F0FD88B31F4C204B48
:10174000236004F5DA6604F1140004F12C0804F5B2
:10175000CE676060C4F80880E760266108F02AFD63
:10176000184B6361404608F025FD174BE36238468D
:1017700008F020FD154BC4F8703604F2CC6002F07E
:10178000DFFF224604F2CC61304602F0CFFF304644
:1017900001F004FC28461AF0CCFD0D481AF00CFEAE
:1017A0000C4802B0BDE8F041FFF7B4BC342501207D
:1017B0006C160020A401002008000020A8010020D1
:1017C000C8D801082CD8010860D8010894D80108AD
:1017D000D1160008F41500200148FFF7BDBB00BF7B
:1017E000F415002070B5284E284C294D294B236054
:1017F0003046FFF7D3FE284612F0C0F8264B2748A4
:1018000058662748DC6000220121C3E90165C3E96D
:101810000422C3E90622C3E908221A8583F82A2094
:10182000DA621A86C3E90E22C3E9102283F848203F
:1018300083F84A20C3E913225A6583F8682083F8A5
:10184000692083F86A2083F86B2083F86C201A677C
:1018500083F8752083F8762083F8491083F8771091
:1018600003601048104D83F83410F02404804FF4C6
:10187000A07028800D4D2A700D4A14800D4A1080EA
:101880000D4A1A6070BD00BFD4090020D0090020A5
:1018900070160020F0D30108F415002001000001AB
:1018A000B8240120AC240120AE240120B024012062
:1018B000B2240120B4240120A4D401080148FFF778
:1018C000FDBC00BFD4090020034B902283F85A23AB
:1018D00083F85823704700BF00E100E0094A0A4935
:1018E000D3680A48C3F30A03013B9BB20B8011691A
:1018F000C1F30A01013901801364536B43F0010302
:101900005363704700680140EA160020E816002083
:10191000014B986A704700BF84680140024B012266
:10192000996243F8602C70478468014009F0B1BFA8
:10193000034B4FF080629A604FF080729A6070475C
:1019400000E100E0084B4FF08062C3F88820BFF34D
:101950004F8FBFF36F8F4FF08072C3F88820BFF3B3
:101960004F8FBFF36F8F704700E100E038B504463A
:101970000AF070FA2368DD6C0CF0FEFB014620468D
:10198000A8472368054A5D6FA2F51631002320465B
:10199000A847002384F84A3038BD00BF005802D061
:1019A000134B144A1B6C11888B4210B5124C13D187
:1019B000124B198804F050FE226892F86630013309
:1019C00082F86630FFF71CFC20680AF0CBFC002090
:1019D000BDE81040FFF7A6BA04F03EFE0020FFF776
:1019E000A2FA20680368BDE810409B69184700BF51
:1019F00000680140EA160020B8240120E816002003
:101A000007B5064B02A91B6821F8020D0122044804
:101A100005F01DFB03B05DF804FB00BF10000020C3
:101A20002C280120F0B5A1B0102200210AA81AF03C
:101A30002EFD1422002103A81AF029FD00213022D6
:101A400014A81AF024FD0024224B01941A6C42F0D1
:101A500080521A641B6C03F080530193019B1E4B50
:101A600002941A6842F440421A601B6803F440432F
:101A700002930122029B4FF48033CDE90823022513
:101A80004FF48003CDE90E5308274FF4A8730426C2
:101A900008A8CDE910731295139604F0FBFD0F23EF
:101AA000CDE903354FF4A0514FF48053CDE906132F
:101AB00003A80521059404F0C1FFC023189314A8BE
:101AC0004FF4003314971A961D9305F07FF821B058
:101AD000F0BD00BF00380240007000402DE9804892
:101AE0009FB00024C74DC84EDFF860B303F054FB2D
:101AF000FFF798FF1422002111A81AF0C8FC0294E5
:101B00002B6BC24843F020032B632B6B03F02003A5
:101B10000293029B03942B6B43F080032B632B6B8C
:101B200003F080030393039B04942B6B43F00403A3
:101B30002B632B6B03F004030493049B05942B6B22
:101B400043F001032B632B6B03F001030593059B0B
:101B500006942B6B43F002032B632B6B03F0020301
:101B60000693069B07942B6B43F040032B632B6B70
:101B700003F040030793079B08942B6B43F010037B
:101B80002B632B6B03F010030893089B09942B6BBA
:101B900043F008032B632B6B03F0080309932246E1
:101BA0000421099B03F07EFF22464FF440519848E0
:101BB00003F078FF01274FF002084FF0040911A944
:101BC0009248CDF85080CDE91197139403F07EFE32
:101BD00011A94FF440538E48CDE91137CDE9134890
:101BE00003F074FE8B488C4B036003F07DFB8B4A43
:101BF0008B4B3462C6E9002330464FF48043C6E97C
:101C00000434C6E90244C6E9064404F025F910216B
:101C1000304604F069FB2146304604F084FB8148DD
:101C2000814984624FF48273C0E900134FF4007657
:101C30001823C0E906630A23C362C0E90244C0E96D
:101C40000444C0E9084405F0C5F9784ACDF8448059
:101C50004FF0100ACBE900274022CBE904A24FF451
:101C6000C072CBE906244FF40062CBE908244FF49C
:101C700000520323CBF8282011A907225846CDE9AA
:101C800015380826CBE90249CDE912291492CDF87E
:101C90005C8005F0C5F84FF6FF720DA95846CDE9F6
:101CA0000E670D970A94109405F0DAF8384603F0A1
:101CB0009FFA4FF6FF720DA95846CDE90D86CDE982
:101CC0000F7405F0CDF803234FF6FF720DA95846A7
:101CD000CDE90D36CDE90F9405F0C2F84FF40C7242
:101CE0000A920A9A10920DA94FF6FF725846CDE952
:101CF0000D960F9705F0B4F840F26A51584605F07A
:101D0000C6F83422214611A81AF0C1FB484E494BAF
:101D10003461C6E9003409234FF01D0CC6E90537CC
:101D20000323C6E907C340F20D1E40F24313C6E980
:101D300009E340F2171B40F24713C6E90BB3C6E9AB
:101D40000244B48686F83640304604F091FBFF2109
:101D5000F022CDE916144FF4806005214FF4A073F2
:101D6000CDE91801CDE9122411A9CDE91A42304676
:101D70002246CDE91438304E1C931194ADF87440CE
:101D80008DF8764004F03FFC2C4B33601B6898477D
:101D900033682B4EDB6898472A4BC6E90A48C6E9E8
:101DA0000C443046C6E90034C6E9028403F0BCFBAB
:101DB0003946304603F040FDFFF709F801942B6BDC
:101DC00043F400132B632B6B1F4D03F4001301939B
:101DD000524621460DA8019B1AF059FB1C222146B0
:101DE00011A84FF0A70B42F20F78CDE90B441AF07F
:101DF0004EFB4FF080432846C5E9003B4FF4805727
:101E000026E000BF00380240D82701200008024029
:101E1000000C0240C428012000300240005C004059
:101E2000A08601002C28012000500140400100A0A4
:101E3000AC29012000680140EC160020240000209D
:101E4000182B012000B00240582B0120F82B012054
:101E5000AC60C5E90384AC6105F01AFD0DA9284604
:101E60000D9705F0EBFD284605F02CFD0BA9284643
:101E70006026CDE90B4405F00DFF0C2211A9284680
:101E8000CDE911641394159405F06CFD284600F01B
:101E900087FC524621460DA84D4D1AF0F8FA1C2237
:101EA000214611A8CDE90B441AF0F1FA494B2C61F7
:101EB0002846C5E9003BC5E90248AC6105F0E8FCED
:101EC0000DA928460D9705F0B9FD284605F0FAFC46
:101ED0000BA92846CDE90B4405F0DCFE4A4611A9C2
:101EE0002846CDE911641394159405F03BFD28466E
:101EF00000F056FC524621460DA8374D1AF0C7FA9D
:101F00001C22214611A8CDE90B441AF0C0FA334B2C
:101F10002C612846C5E9003BC5E90248AC6105F0E3
:101F2000B7FC0DA928460D9705F088FD284605F059
:101F3000C9FC0BA92846CDE90B4405F0ABFE2246AF
:101F400011A92846CDE911641394159405F00AFDF2
:101F5000284600F025FC524621460DA8204D1AF0D7
:101F600096FA1C22214611A8CDE90B441AF08FFAEB
:101F70001C4B2C612846C5E9003BC5E90248AC6111
:101F800005F086FC0DA928460D9705F057FD28465B
:101F900005F098FC0BA92846CDE90B4405F07AFE24
:101FA000224611A92846CDE911641394159405F031
:101FB000D9FC284600F0F4FB05F04EFF0A4A0B4816
:101FC000214605F083FF0A4B186005F05FFFFEE72E
:101FD0006C290120000400408428012000080040F2
:101FE0002C290120000C0040D4D80108D30D000892
:101FF000142B01207047704710B586B006AC074B14
:1020000004F8012D1B68029301230A46CDE9004321
:102010000146034803F0CCFF06B010BD0C000020C1
:10202000D82701207FB506AA002302F8013D084BFE
:102030001B6802930123CDE900230A4601460548A7
:1020400004F046F89DF8170007B05DF804FB00BFE8
:102050000C000020D82701201FB5084C24680092EE
:10206000CDE901340A4601230146054804F030F861
:10207000003018BF012004B010BD00BF0C000020CC
:10208000D827012003F0B4B810B5064C0022204632
:10209000042103F007FD204601220421BDE8104081
:1020A00003F000BD0008024038B50B4C0546012284
:1020B0004FF40051094803F0F5FC002204212046AA
:1020C00003F0F0FC2846FFF79BFC20460122042188
:1020D000BDE8384003F0E6BC00080240000C0240B6
:1020E00038B50B4C054600224FF40051094803F067
:1020F000D9FC00220421204603F0D4FC2846FFF737
:102100007FFC204601220421BDE8384003F0CABC10
:1021100000080240000C0240F7B5144C144D07466D
:102120000E4620460022042103F0BCFC00224FF49E
:102130000051284603F0B6FC3846FFF761FC0D4B12
:102140000D481B68324601A905F019F928460122FD
:102150004FF40051019E03F0A5FC2046012204210A
:1021600003F0A0FC304603B0F0BD00BF0008024001
:10217000000C0240100000202C28012003F038B889
:102180000268034B9A4201D103F020B8704700BFA8
:10219000001000407047000082B00E4B00220092F9
:1021A000596C41F480415964596C01F480410091AB
:1021B00000990192196C41F0805119641B6C03F075
:1021C00080530193019B0F216FF0010002B003F0D7
:1021D00035B800BF003802400268094B9A4282B00D
:1021E0000BD100230193074B1A6B42F480521A6300
:1021F0001B6B03F480530193019B02B0704700BF37
:10220000003002400038024007B50F4B02689A4286
:1022100016D10022A3F5F0430192196B41F400019D
:1022200019631B6B03F40003019305215A20019BE2
:1022300003F004F85A2003B05DF804EB03F032B861
:1022400003B05DF804FB00BF00B002400268064B1B
:102250009A4207D1054A136B23F4000313635A20F3
:1022600003F02EB8704700BF00B0024000380240B3
:102270002DE9F043044689B01422002103A81AF086
:1022800006F92268244B9A4243D1244C2448002565
:102290000095236B43F004032363236B03F00403D3
:1022A0000093009B0195236B43F001032363236B91
:1022B00003F001030193019B4FF012094FF40073E7
:1022C0004FF001080327042603A9CDE90339CDE91E
:1022D0000587079603F0FAFA4FF4807303A91148B3
:1022E0000796CDE90339CDE9058703F0EFFA0295AA
:1022F000236C43F400032364236C03F40003029370
:10230000029B236A43F400032362236A23F400033D
:10231000236209B0BDE8F083005C00400038024051
:102320000008024000000240F0B504468DB01422BF
:10233000002107A81AF0ABF82268574B9A4240F0E8
:10234000A88003F55043002500955A6C534842F08D
:1023500080625A645A6C02F080620092009A019581
:102360001A6B42F020021A631A6B02F020020192EB
:10237000019A02951A6B42F001021A631A6B02F07D
:1023800001020292029A03951A6B42F002021A634A
:102390001A6B02F002020392039A04951A6B42F040
:1023A00040021A631A6B02F040020492049A0595E7
:1023B0001A6B42F004021A631A6B02F004020592CF
:1023C000059A06951A6B42F008021A631B6B03F01C
:1023D0000803069302240E26069B0A944FF480639A
:1023E00007A9CDE907340B9603F070FA41F65803BC
:1023F00007A92B480B96CDE907340927CDE90954E5
:1024000003F064FA032307A926480B97CDE90734A4
:10241000CDE9095403F05AFA4FF4706307A9214833
:102420000B96CDE90734CDE9095403F04FFA4FF488
:102430000C6307A91C480B96CDE90734CDE9095474
:1024400003F044FAC02307A918480B96CDE90734D6
:10245000CDE9095403F03AFA082307A914480B966A
:10246000CDE90734CDE9095403F030FA4FF4A05315
:1024700007A90D480B97CDE90734CDE9095403F0BE
:1024800025FA58202A46052102F0D8FE582002F0ED
:1024900009FF0DB0F0BD00BF00680140001402400C
:1024A0000000024000040240001802400008024000
:1024B000000C024010B5044688B01422002103A885
:1024C00019F0E5FF2268144B9A4223D103F56843C3
:1024D000002101915A6C114842F480125A645A6CDE
:1024E00002F480120192019A02911A6B42F02002CA
:1024F0001A631B6B03F020030293029B4FF460727C
:1025000002230321CDE903230523CDE9061303A903
:1025100003F0DCF908B010BD005001400014024087
:102520002DE9F04186B01422002101A819F0AFFF77
:102530002B4B1C68002C4FD14FF00108C3F80080D2
:10254000284B00949A6B284842EA08029A639B6BD6
:1025500003EA08030093022703260C25009B01A928
:102560004FF63F03CDE90137CDE9046503F0AEF93D
:1025700001A91E480595CDE90187CDE9034603F081
:10258000A5F948F2331301A919480595CDE901379A
:10259000CDE9034603F09AF94FF6837301A9154874
:1025A0000595CDE90137CDE9034603F08FF94CF2EB
:1025B000037301A910480595CDE90137CDE903461C
:1025C00003F084F9602301A90C480595CDE9013792
:1025D000CDE9034603F07AF906B0BDE8F08100BF0B
:1025E000F0160020003802400014024000080240AB
:1025F0000018024000100240000C0240000402409B
:1026000030B50368B3F1804F85B005462ED1002365
:10261000574A0093116C574CDFF87CE141F00101FF
:102620001164126C02F001020092009A4FF0C06235
:10263000C4E900E24022C4E902234FF480614FF470
:1026400080524FF48040C4E904124FF48072C4E910
:1026500006022046C4E9083302F06CFE08B1FFF719
:1026600099FD2C622C63A56305B030BD424A9342AC
:102670002BD1002302F50D320193116C3F4C41F038
:1026800002011164126C3E4902F002020192019AA9
:102690004FF02062C4E9001240224FF48060C4E988
:1026A00002234FF40062C4E904024FF4005C4FF4CB
:1026B00080722046C4E906C2C4E9083302F03AFE3B
:1026C00008B1FFF767FDAC62CDE72E4A93422CD1EB
:1026D00002F50C3200230293116C2B4CDFF8BCC0C6
:1026E00041F004011164126C02F004020292029A99
:1026F0004FF08062C4E900C24022C4E902234FF4D3
:10270000806E4FF40062C4E904E24FF40052A2610B
:102710004FF48072C4E907236362204602F00AFE88
:1027200008B1FFF737FD6C629DE7184A93429BD1D1
:1027300002F50B3200230393116C154C41F0080194
:102740001164126C134902F008020392039A4FF0CD
:102750004062C4E900124022C4E902234FF48060C1
:102760004FF48052C4E904024FF48042CFE700BF27
:10277000003802407827012000040040B42A0120DC
:102780008860024000080040982B0120000C0040A7
:10279000542A012040600240B860024010600240AC
:1027A00010B514228AB0044600210DEB020019F086
:1027B0006EFE2368B3F1804F14D100230193294B9F
:1027C0001A6B42F001021A631B6B03F001030193C1
:1027D000019B08210223CDE905130123099305A9D3
:1027E00021482AE0214A934210D1002302931D4B35
:1027F0001A6B42F001021A631B6B03F00103029390
:10280000029B8023059302230693E7E7184A93422D
:1028100017D100230393134B16481A6B42F008029A
:102820001A631B6B03F008030393039B4FF480525E
:102830000223CDE90523099305A903F047F80AB05F
:1028400010BD0D4A9342FAD100230493054B1A6B35
:1028500042F001021A631B6B03F001030493049B13
:102860000123CFE70038024000000240000400408E
:1028700000080040000C0240000C004030B501464A
:1028800089B00022362002F0D9FC362002F00AFD81
:102890000025154B02951A6C144C42F010021A6474
:1028A0001B6C03F01003029301A903A8029B04F020
:1028B0006FF904F05DF90E4B236040F2E733E360FB
:1028C00040000C4BB0FBF3F00138606020462561FE
:1028D000A56004F0DDFF20B9204604F075FE09B0C4
:1028E00030BD0120FBE700BF003802402C2C012046
:1028F0000010004040420F007047FEE7FEE7FEE791
:10290000FEE77047014804F0B1BE00BF2C2C012047
:10291000014803F01BBE00BFAC290120014802F0B2
:1029200001BF00BF182B01200120704708B519F026
:1029300057FD162303604FF0FF3008BD08B519F0AE
:102940004FFD16230360FEE770B50E4615460C4694
:10295000A31B9D4201DC284670BDAFF3008004F844
:10296000010BF5E770B50E4615460C46A31B9D42BC
:1029700001DC284670BD14F8010BAFF30080F5E7C9
:102980004FF0FF3070474FF400534B60002070470A
:10299000012070470020704708B50A4B19680246AD
:1029A00009B9094919601868694602448A4206D97A
:1029B00019F016FD0C2303604FF0FF3008BD1A60BC
:1029C000FCE700BFF4160020B82C0120704710B5BA
:1029D0000421044619F08EFC204610BD012908B5DB
:1029E00008D003D3022909D0002002E000F072FFD2
:1029F000006808BD00F06EFF4068FAE700F06AFF6B
:102A00008068F6E70048704718D901080F20704722
:102A100013B5002249B102AB019203F8052D0268FB
:102A2000946801AAA04702B010BD0846FBE74089A0
:102A30007047808970478088704783798088184400
:102A400080B27047C07900F07F007047C079C0093C
:102A50007047704710B50821044619F04BFC20461A
:102A600010BD704700F596730868496803C3704746
:102A70007047704741607047704701230372704789
:102A800070477047704770477047704730B4C568EB
:102A900044686A100346ED0704EB02009B6848BFD8
:102AA000A25830BC48BFD358184743682BB183683D
:102AB0002BB9C06800F0010070471846704701202C
:102AC000704730B4C56844686A100346ED0704EBEC
:102AD00002009B6848BFA25830BC48BFD358184773
:102AE00043682BB183682BB9C06800F001007047C0
:102AF000184670470120704710B4C46841686210DE
:102B00000346E40701EB02009B6848BF8A585DF862
:102B1000044B48BFD358184743682BB183682BB97F
:102B2000C06800F0010070471846704701207047E8
:102B300010B50C21044619F0DDFB204610BD10B580
:102B40004FF4AC71044619F0D5FB204610BD10B50A
:102B50001021044619F0CEFB204610BD10B55421BB
:102B6000044619F0C7FB204610BD10B510210446DD
:102B700019F0C0FB204610BD10B55421044619F0D1
:102B8000B9FB204610BD10B51021044619F0B2FB68
:102B9000204610BD10B50BF0EFFA0368BDE81040F9
:102BA0001B6B1847034610B49A6B8A42084618D02C
:102BB00093F84C20032A12D8DFE802F00B0B020234
:102BC0000268B3F95210546D002223465DF8044B9D
:102BD000184702680021546DB3F95220F5E701222D
:102BE0001A725DF8044B7047034610B49A6B8A4220
:102BF000084618D093F84C20032A12D8DFE802F0D8
:102C00000B0B02020268B3F95210546D00222346E6
:102C10005DF8044B184702680021546DB3F9522047
:102C2000F5E701221A725DF8044B7047054B1B78DB
:102C30003BB143682BB11A6800F10C01526E184683
:102C400010477047B7240120034B1A88036852428B
:102C50005B6D12B200211847AE24012090F84C2081
:102C600010B40B46032A22D8DFE802F0151A020D31
:102C700010491A68B1F90010546D00221846234615
:102C80005DF8044B18470B4A11881A684942546D85
:102C900009B20022F2E718465DF8044BFFF7D4BFF3
:102CA0001A68546D044A0021B2F90020E6E75DF885
:102CB000044B7047AC240120AE240120054B1B7847
:102CC0003BB143682BB11A6800F10C01526E1846F3
:102CD00010477047B724012090F84C2010B40B46E1
:102CE000032A22D8DFE802F0151A020D10491A68EB
:102CF000B1F90010546D0022184623465DF8044BCC
:102D000018470B4A11881A684942546D09B20022CB
:102D1000F2E718465DF8044BFFF796BF1A68546D4A
:102D2000044A0021B2F90020E6E75DF8044B704741
:102D3000AC240120AE240120294B1B7810B5044699
:102D400013B90123037210BD90F84E0094F84D3072
:102D50000130C0B2984284F84E0018D8B4F950201F
:102D600000210CF023FC83B213F0010215D04FF6C2
:102D7000FF710028D8BF0A461344A4F8523094F8D3
:102D80004C30032B29D8DFE803F01F1F0B0B012366
:102D90002372002384F84E30D5E7A4F85200EEE702
:102DA000B4F85210238AC91A09B2A4F852100022AA
:102DB00004F10C000BF027FF6068036804F13C018C
:102DC0009B6FBDE810401847B4F85220638AD21AAE
:102DD00012B2A4F852200021EAE701232372EBE7A4
:102DE000B7240120294B1B7810B5044613B90123E1
:102DF000037210BD90F84E0094F84D300130C0B20F
:102E0000984284F84E0018D8B4F9502000210CF0F4
:102E1000CDFB83B213F0010215D04FF6FF710028ED
:102E2000D8BF0A461344A4F8523094F84C30032B10
:102E300029D8DFE803F01F1F0B0B012323720023A7
:102E400084F84E30D5E7A4F85200EEE7B4F85210FB
:102E5000238AC91A09B2A4F85210002204F10C0006
:102E60000BF0D1FE6068036804F13C019B6FBDE884
:102E700010401847B4F85220638AD21A12B2A4F84C
:102E800052200021EAE701232372EBE7B724012057
:102E900010B50446D0F83C0158B10368DB68984788
:102EA00038B1D4F83C0103689B6898470023C4F804
:102EB0003C3110BD1FB50C4B1B7804468BB10B4B3E
:102EC0001C22CDE900300123CDE9022340680368CC
:102ED00069469B6F98476068036804F10C011B6E9C
:102EE000984704B010BD00BFB724012020DB0108C3
:102EF0001FB50C4B1B7804468BB10B4B1C22CDE944
:102F000000300123CDE902234068036869469B6FC6
:102F100098476068036804F10C011B6E984704B081
:102F200010BD00BFB7240120DCDA0108F8B5044663
:102F300017460E460BF088F9144BC4F854611C6018
:102F4000134E144B236000253068C4F84851C4F870
:102F50004C51114BC4F840310368C4F838519B6898
:102F6000C4F83C510121C4F84451C4F85071984749
:102F7000284600F065FC336893F876200AB1D86CD7
:102F800000B9986812F033F92046F8BD24250120D5
:102F9000B824012074DA01085CDA0108064BC0F895
:102FA00048310023C0F84C3100F5A073C0F844014B
:102FB000C0F83C31704700BF3D310008064BC0F8F7
:102FC00048310023C0F84C3100F5A073C0F844012B
:102FD000C0F83C31704700BF35330008064BC0F8DD
:102FE00048310023C0F84C3100F5A073C0F844010B
:102FF000C0F83C31704700BF2D3500082DE9F0477F
:1030000007469068DDF820A0994603681B6A884649
:1030100015469847B0F5AA6F05D2424B424AA72100
:10302000424819F0ABF9686803681B6A98470F2893
:1030300003D83F4B3C4AA821F2E7E86803681B6AC3
:1030400098470B2803D83B4B374AA921E8E70BF0F8
:1030500093F80BF0DFF8D9F8000010B10368DB68D3
:103060009847D9F8000010B103681B689847386882
:1030700010B103685B699847D8F8000010B1036885
:103080005B689847386810B103681B689847D8F8A0
:10309000000010B103689B689847E8680368002146
:1030A0005B6A9847044620B1002343600372224BB9
:1030B0000360A868036800215B6A9847064608B168
:1030C00001F0C8FB6868036800215B6A9847054601
:1030D00010B1314601F046FBC9F80040C8F8005075
:1030E0003E60E5B12B1DCAF800303368C5F808A072
:1030F0003046F563DB6898472B6828461B6898477D
:10310000214630460CF00CFA236820461B6998478C
:10311000236820465B6998472846BDE8F0872B4620
:10312000E1E700BF5CDB010877DD0108EADB0108AD
:1031300031DC0108D4DC0108B8DA010807B5D0F8A1
:1031400054310093D0F85021044B00F59C71044891
:10315000FFF754FF03B05DF804FB00BF1825012002
:10316000142501202DE9F74F07469068994603681A
:103170001B6A884615469847B0F5AA6F05D2634B7F
:10318000634AA721634819F0F9F8686803681B6A65
:1031900098470F2803D8604B5D4AA821F2E7E868FA
:1031A00003681B6A9847532803D85C4B584AA921E7
:1031B000E8E70AF0E1FF0BF02DF8D9F8000010B1B4
:1031C0000368DB689847D9F8000010B103681B68F2
:1031D0009847386810B103685B699847D8F80000D1
:1031E00010B103685B689847386810B103681B68C2
:1031F0009847D8F8000010B103689B689847E868C2
:10320000036800215B6A9847044600283ED0824646
:1032100000224349426002724AF80C1B5046019258
:1032200009F07CFA3F49019AC4F838A0C4E90F14A8
:1032300020230121C4E91131032184F84C10142109
:1032400084F84D10384984F84E200978A4F85220AB
:10325000E1B1DFF8DCB0354EBBF90000B6F9001083
:10326000A0822261E182504609F0D3F994F84C30F3
:10327000032B45D8DFE803F040420206BBF80030DC
:103280005B4201E0BBF80030A4F85030A868036846
:1032900000215B6A9847064608B101F0DBFA6868CE
:1032A000036800215B6A9847054610B1314601F07A
:1032B00059FAC9F80040C8F800503E601DB32B1DF4
:1032C0000C9A13603368AA603046F563DB68984750
:1032D0002B6828461B689847214630460CF020F999
:1032E000236820461B699847236820465B699847F6
:1032F000284603B0BDE8F08F3388C5E73388BFE7C1
:1033000001232372C2E72B46DAE700BF5CDB01082A
:1033100081DE0108EADB010831DC0108D4DC0108A8
:1033200038DB010820DB0108B7240120AE2401208E
:10333000AC24012007B5D0F854310093D0F85021C7
:10334000044B00F59C710448FFF70CFF03B05DF8D7
:1033500004FB00BF18250120142501202DE9F74F9B
:1033600007469068994603681B6A88461546984741
:1033700040F23B63984205D8624B634AA7216348F9
:1033800018F0FCFF686803681B6A98470F2803D889
:103390005F4B5D4AA821F2E7E86803681B6A98471B
:1033A000532803D85B4B584AA921E8E70AF0E4FE0A
:1033B0000AF030FFD9F8000010B10368DB689847C5
:1033C000D9F8000010B103681B689847386810B13D
:1033D00003685B699847D8F8000010B103685B6820
:1033E0009847386810B103681B689847D8F8000000
:1033F00010B103689B689847E868036800215B6A1E
:103400009847044600283ED0824600224249426046
:1034100002724AF80C1B5046019209F07FF93F49AD
:10342000019AC4F838A0C4E90F1420230121C4E98B
:103430001131022184F84C10142184F84D103849C0
:1034400084F84E200978A4F85220E1B1DFF8D8B012
:10345000344EBBF90000B6F90010A0822261E1826F
:10346000504609F0D6F894F84C30032B45D8DFE8E5
:1034700003F040420206BBF800305B4201E0BBF8BB
:103480000030A4F85030A868036800215B6A9847B0
:10349000064608B101F064FA6868036800215B6AB7
:1034A0009847054610B1314601F030FAC9F800409E
:1034B000C8F800503E601DB32B1D0C9A1360336892
:1034C000AA603046F563DB6898472B6828461B687E
:1034D0009847214630460CF023F8236820461B69A4
:1034E0009847236820465B699847284603B0BDE8A3
:1034F000F08F3388C5E73388BFE701232372C2E723
:103500002B46DAE75CDB0108A6DF0108EADB0108ED
:1035100031DC0108D4DC0108F4DA0108DCDA010846
:10352000B7240120AE240120AC24012007B5D0F837
:1035300054310093D0F85021044B00F59C7104489D
:10354000FFF70CFF03B05DF804FB00BF1825012056
:1035500014250120006A704770478B8880690A68CB
:10356000DB0A50F823001044704710B5C2B1137B3A
:10357000B3B1547BD27A240204F4E0641443C269E8
:1035800098B202EB840213888B4202D192F90200B6
:1035900010BD05D8013880B204320028F3D1F7E716
:1035A0000020F5E710B52421044618F0A3FE2046BC
:1035B00010BD000030B589B00446BDF850500695E6
:1035C000BDF84C5005959DF8405004959DF83C5031
:1035D00003959DF8385002959DF8345001959DF85B
:1035E000305000950BF09AFB054B2360119BA361B3
:1035F000129BE361159B2362204609B030BD00BFDA
:10360000DCE001087047000030B5144D2C78BFF3A2
:103610005B8F14F001048BB01DD1284618F07DFE9D
:10362000C8B13F2307930E4B06930E4B0E490394EC
:103630000122CDE904430423CDE90132CDE9084458
:103640000A2300940948FFF7B5FF284618F071FED9
:10365000074818F0B1FE05480BB030BDF816002041
:10366000F020020828E10108381F0208FC1600209B
:10367000053600087047000030B5154D2C78BFF3B3
:103680005B8F14F001048BB01ED1284618F045FE64
:10369000D0B13F2307930F4B06930F4B05930123A4
:1036A000CDE9034302930423CDE900331D22142303
:1036B0000A490B48CDE90844FFF77CFF284618F07B
:1036C00038FE084818F078FE05480BB030BD00BF42
:1036D00020170020F42002082CE10108481F0208EE
:1036E00024170020753600087047000030B5144DCF
:1036F0002C78BFF35B8F14F001048BB01DD12846EA
:1037000018F00BFEC8B13F2307930E4B06930E4BE8
:103710000E4903940122CDE904430423CDE901328B
:10372000CDE90844282300940948FFF743FF2846C1
:1037300018F0FFFD074818F03FFE05480BB030BDFC
:10374000481700203421020830E10108E020020877
:103750004C170020E9360008002070470EB403B56E
:1037600003AB002153F8042B01930BF013F902B0C3
:103770005DF804EB03B070470CB407B504AB53F825
:10378000042B01930BF006F903B05DF804EB02B0D3
:1037900070470000C36B10B5044673B3038E2BB99A
:1037A000184B194AC021194818F0E8FDC38D00EBE9
:1037B00043035B8B0BB30CF081FC238E012B03D8EE
:1037C000134B144AC521EEE7E28D531C9BB2092B23
:1037D000194688BFA3F10A0104EB410140F63F10EE
:1037E000498B814209D10A2B04EB420228BF0023F6
:1037F00004EB4303508B588351832046BDE81040AF
:103800000CF040BB34E1010867E201083DE101082A
:1038100087E1010895E101080CF0EEBA10B586B019
:1038200002AC84E806001A460AAB05930193099B93
:1038300000932146089B0AF0AEF806B010BD0000C8
:1038400038B5D8B9114B12481B681249BBB11A6878
:103850009C681A4402605A681A440A601C446CB19D
:103860000D4B00221A8000F035F8054600F030F8C4
:103870000A4B1C600A4B1D600A4B188038BD0A4B6E
:1038800003600A4B0B600A4B1C68E8E770170020C6
:1038900074170020781700207C17002028250120AD
:1038A000302501202C25012058210208382102084A
:1038B000E0210208044B1B6853F82100034B1B68EE
:1038C00003EB4000704700BF7817002074170020FA
:1038D00008207047004870478017002010B5FFF798
:1038E000CBFE044C2060FFF701FF6060FFF78CFE09
:1038F000A06010BD8017002070B51E460368BDF99A
:1039000010505B6B044698472368314620469A6BFB
:103910009047236829462046DB6BBDE87040184776
:1039200081807047C180704770B503680446DB6AC8
:10393000154698472368294620461B6BBDE8704012
:103940001847018170474181704770477047704741
:1039500070477047C388D21A8388C91A036810B4A5
:103960005B6D5DF8044B12B209B218474FF6FF7356
:1039700083814FF0FF3303621368C36110607047A7
:103980007047704770477047704790F825201AB10C
:1039900090F8242002B11860704770477047704754
:1039A0007047704770477047704770B4C668456885
:1039B00074100346F60705EB04009B6844BF2C59BE
:1039C000E35870BC184743682BB183682BB9C068B3
:1039D00000F001007047184670470120704730B46E
:1039E000C56844686A100346ED0704EB02009B6853
:1039F00048BFA25830BC48BFD358184743682BB1C2
:103A000083682BB9C06800F0010070471846704702
:103A10000120704710B51021044618F06BFC2046B9
:103A200010BD10B51021044618F064FC204610BDEE
:103A300010B54FF4AA61044618F05CFC204610BD96
:103A400010B40C46114600F5A672944204D10368E6
:103A50001B6B5DF8044B184700F51272944202D1BB
:103A60000368DB6AF5E700F55172944202D10368FE
:103A70009B6BEEE75DF8044B704700F19C029142AE
:103A800010B504D10368BDE810405B6B184700F225
:103A9000F443994205D10AF06FFBBDE81040FFF7EF
:103AA0009DBA10BD094A026000228280C280028154
:103AB00042818281C28102824282C0E90522C261C2
:103AC00080F82420012280F8252070470C0202088B
:103AD00010B526220446002118F0D9FC2046FFF735
:103AE000E1FF094B2360094BA3624FF6FF73A385E7
:103AF0004FF47F020023C4E90C3284F8383084F894
:103B00003930204610BD00BFB8FC01084CDA01086E
:103B100013460C4A70B5146805462CB90A4B0B4A7B
:103B20000B48352118F02AFC94F876200AB1E06C95
:103B300000B9A0680268946A0A46A4462946BDE80E
:103B400070406047B824012044E3010810E40108F4
:103B500087E301082DE9F04F044695B00BF064FBB4
:103B600022460025DF4BE56342F8403B4FF0260933
:103B700013462946059218464A4618F088FC0598CF
:103B8000FFF790FFD84B236414AE04F170034FF09D
:103B9000FF084FF6FF774A46294684F86680A566F7
:103BA00084F86C50184626F8087D039318F06FFCD3
:103BB0000398FFF777FFCD4B2367A4F8967084F83E
:103BC00098703146039809F07EFA04F19C034A4646
:103BD00029461846049318F05AFC0498FFF762FF30
:103BE0004FF0010384F8C030C14BC4F89C3004F19D
:103BF000D403C4F8C45084F8C850A4F8CA70A4F818
:103C0000CC7084F8CE80A4F8D07018460693FFF7E5
:103C10005FFF04F5887304F5A67B184604F5127A55
:103C20000793FFF755FF584604F5517907F08EFDCD
:103C3000504607F08BFD484607F088FD04F5886381
:103C400018460893FFF744FF04F27C431846099393
:103C5000FFF73EFF04F5976318460A93FFF738FF16
:103C600004F2F44318460B9309F008FAA14BC4F888
:103C70003035A14BC4F83835A04BC4F84035A04BC3
:103C8000C4F848354FF4A073C4F83C55C4F84C55FB
:103C900000932A46F02329460598C4F83445C4F811
:103CA0004445FFF729FE2A4629462846FFF730FFFC
:103CB0002A46A06629460398924FFFF735FE314603
:103CC0000398ADF8485009F0FEF90498C122482144
:103CD000FFF72AFE0C23ADF844300D23A4F8D030B2
:103CE000324611A90498ADF8483008F065FF04F594
:103CF000A663C4F8C43006980D930F221721FFF76E
:103D000013FE2A4629462846FFF702FFA4F8085169
:103D1000C4F8040131460698ADF84C50129708F0EB
:103D200009FF079880223D21FFF7FEFD2A4629461C
:103D30002846FFF7EDFE4FF00103C4F84001A4F858
:103D4000445131460798ADF84C30129708F0F2FE16
:103D5000584634221721FFF7E7FD11A94FF00A0258
:103D60004FF00B08ADF8482033460A46584610A9D4
:103D7000ADF84080ADF8448007F03CFD7D212B4636
:103D8000CDE9005158460322072107F0D9FB6422F0
:103D90002946584607F0D3FA2946584607F05BFAF9
:103DA00004F5A8610C91C4F84412504640F2051283
:103DB0001F21FFF7B9FD0923ADF84030ADF84430BD
:103DC00011A90823ADF848300A46334610A95046D9
:103DD00007F010FD7D212B46CDE90051504607220A
:103DE000032107F049FB64222946504607F0A7FA51
:103DF0005046322107F02FFA0C9BC4F84033484656
:103E00003422B721FFF790FD4FF00A02ADF84820A9
:103E1000334611AA10A94846ADF84080ADF8448059
:103E200007F0E8FC7D222B46CDE9005248460322EC
:103E3000072107F085FB64222946484607F07FFAF0
:103E40002946484607F007FA0C9BC4F83C3408980A
:103E5000EF221521FFF768FD2A4629462846FFF77D
:103E600057FE4FF00208C4F87004A4F874543146A9
:103E700008981297ADF84C8008F05CFE0998EF2284
:103E8000AE21FFF751FD2A4629462846FFF740FE9E
:103E90000323C4F8AC04A4F8B05431460998ADF833
:103EA0004C30129708F046FE0A9840F22712602123
:103EB000FFF73AFD2A4629462846FFF729FE042344
:103EC000C4F8E804A4F8EC5431460A98ADF84C3034
:103ED000129708F02FFE0B9834225A21FFF724FD89
:103EE00012E000BFD4E3010864FD0108B8FF010837
:103EF000D8FB01081CE301087B3A000834E3010801
:103F0000413A00084CDA01084FF0010310AA0E25CF
:103F1000ADF83C300FA911AB0B980096ADF84450AA
:103F2000ADF84850ADF8408009F004F80D9BA4F8B6
:103F30002C55A4F82E55251DC4F81C350599284686
:103F400007F04AF80399284607F046F804992846EE
:103F500007F042F80699284607F03EF807992846E8
:103F600007F03AF85946284607F036F851462846F1
:103F700007F032F84946284607F02EF808992846F7
:103F800007F02AF80999284607F026F80A992846E2
:103F900007F022F828460B9907F01EF8204615B0C6
:103FA000BDE8F08F7047704710B58C21044618F0BB
:103FB000A1F9204610BD0000F7B5054600230122F7
:103FC00041498380C3808381C38103824382C0E9E6
:103FD0000533C36180F8243080F82520836245F8DA
:103FE0002C1B80F851204FF6FF72A0F85820374F55
:103FF00003864FF47F0243868386C3860387438705
:104000008387C387C0E91033836480F85030C36569
:10401000026680F86430476580F865308366F02377
:1040200003812B4AC26229234381044608220C21C2
:104030002846FFF779FC274B1B682BB9264B274AEC
:104040002748352118F09AF993F876200AB1D86CF0
:1040500000B9986803689E6A00231A461946B0475B
:104060000023A4F860301F4BE0651B6804F16C0668
:1040700023B91D4B1D4AB1211D48E3E71D4B1B8889
:10408000072B03D81C4B194AB221F5E71B4B07211C
:104090001868FFF70FFC1A4A0346102130460CF04F
:1040A000AFFB2846A66608F01BFD06236946284696
:1040B000ADF80430009708F03DFD2046294606F093
:1040C0008BFF204603B0F0BD54E501084CDA01082F
:1040D00064FE0108B824012044E30108DCE501087E
:1040E00087E30108282501206CE4010838E601086F
:1040F000AEE401082C250120F5E401083425012057
:1041000047E50108704770477047704770470620C1
:10411000704770477047000070B50646074B46F879
:10412000043B054600F55374A64205D054F88C3D77
:104130001B6820469847F7E7284670BD44E701080A
:1041400010B5044B0360044600F53470FFF7E4FF3C
:10415000204610BD08E801087047F0B4C7684668FB
:1041600084687D10F80744BF7059045906EB050CAC
:104170006046A446F0BC604743682BB183682BB906
:10418000C06800F001007047184670470120704772
:1041900030B4C56844686A100346ED0704EB0200BA
:1041A0009B6848BFA25830BC48BFD35818474368E3
:1041B0002BB183682BB9C06800F001007047184626
:1041C00070470120704710B50446FFF7A5FF204651
:1041D0004FF4537118F08EF8204610BD10B5C82169
:1041E000044618F087F8204610BD10B5102104468B
:1041F00018F080F8204610BD10B51021044618F0C4
:1042000079F8204610BD10B50446FFF799FF204607
:1042100040F23C6118F06EF8204610BD08B58BB234
:10422000052B05D9054B064A0648542118F0A6F877
:104230008C2301FB0300043008BD00BF84E70108A4
:1042400048E801089FE701082C3006F05FB970B517
:10425000054600F50D7006F059F94FF4357440F23B
:104260001C662B592819D3F884308C349847B442F3
:10427000F7D170BD70B504460D4606F0DAF9D4F8F2
:10428000C40060B10368DB68984740B1D4F8C4004B
:1042900003682A4621469B68BDE87040184770BDF8
:1042A00070B5044600F5347088421E460BD11146A5
:1042B000FFF7B4FF2368DD6A324601462B462046ED
:1042C000BDE87040184770BD00F19C02914210B5E6
:1042D00005D109F051FFBDE81040FEF76FBE00F1B7
:1042E000D802914204D10368DB6BBDE81040184747
:1042F00000F58A72914202D103689B6BF5E700F5E5
:10430000A872914202D103685B6BEEE700F5C672BA
:10431000914202D103681B6BE7E710BD2DE9F04F16
:10432000044691B0A14600250AF07EFFDA4BE56312
:1043300049F8403B29462622484618F0A8F8484646
:10434000FFF7B0FBD54B236404F1700AFF2310AFD5
:1043500026224FF6FF76294684F86630A56684F853
:104360006C50504627F8086D18F091F85046FFF74A
:1043700099FBCB4B23673946A4F8966084F8986084
:10438000504608F0A0FE04F19C031846049308F080
:1043900075FE04F1D8031846059308F06FFE04F586
:1043A0008A731846069308F069FE04F5A873184648
:1043B000079308F063FE04F5C6731846089308F0E7
:1043C0005DFE04F5E473294626221846029318F090
:1043D0005EF80298FFF766FBB24BC4F8F0314FF479
:1043E0007F03A4F8F461C4F8FC3104F50276AE4B07
:1043F000C4F8F85184F8005284F80152C4F8C83166
:10440000C4F80452304606F0CFFAA84BC4F808327C
:10441000012384F82C3204F534730993A44BC4F8B7
:10442000CC52C4F8D03204F5357504F21C67284626
:104430008C3500F04BFAAF42F9D19E4BC4F81C36D4
:104440009D4BC4F824369D4BC4F82C369C4BC4F8C5
:10445000343600254FF4A073C4F82856C4F83856F3
:1044600000932A46F02329464846C4F82046C4F85B
:104470003046FFF741FA2A4629462846FFF748FB0F
:1044800010AF2A46A06629465046FFF74DFA27F896
:10449000085D5046394608F016FE294604984FF448
:1044A0008272FFF741FA04234FF002084FF0010B2C
:1044B000ADF83430ADF838300CAA0DAB0BA9049828
:1044C0000097ADF82CB0ADF8308008F033FD16231E
:1044D00004F21C62A4F8D4304FF00F03A4F8D630D5
:1044E0000392C4F8C42005982A46B421FFF71CFAA9
:1044F00007230DAAADF83430ADF838300BA91346B8
:10450000059800970CAAADF82CB0ADF830804FF0AC
:10451000100B08F00FFD039BA4F810B1A4F812B122
:10452000C4F8003106984FF482725A21FFF7FCF963
:104530004FF00103ADF82C300DAA0323ADF8343051
:10454000ADF838300BA91346069800970CAAADF8C1
:10455000308008F0EFFC039BA4F84CB1A4F84EB1F6
:10456000C4F83C3107984FF48272B421FFF7DCF9AC
:1045700006230DAA4FF0010BADF83430ADF83830FA
:104580000BA91346079800970CAAADF82CB0ADF80C
:10459000308008F0CFFC1423A4F888314FF00F03CB
:1045A000A4F88A31039BC4F878312A462946089832
:1045B000FFF7BAF90DAAADF82CB013464FF0050B72
:1045C0000CAA0BA908980097ADF83080ADF834B06C
:1045D000ADF838B008F0AEFC4FF00F03A4F8C431CA
:1045E000A4F8C631039BC4F8B431029812225F21AB
:1045F000FFF79AF92A4629462846FFF789FAA4F8D0
:10460000FC51C4F8F801274B02980E933946ADF8D7
:104610003CB008F08FFAC8233C2200932946F023CF
:104620003046FFF769F92946304606F0C6FB2946B1
:10463000304606F01BFC3046224906F002FB3046AD
:104640000A2106F001FB30460A2106F000FB414634
:10465000304606F072FA2A462946304606F0B6F988
:104660003046012106F0CAF92A4630462921251D87
:1046700006F0E0FA04F22C620999304606F0C7F819
:104680004946284606F0A8FC5146284606F0A4FCF8
:104690000499284618E000BF08E8010864FD0108F5
:1046A000B8FF01084CDA010864FE010870E6010851
:1046B00044E701085CE70108C942000874E7010803
:1046C000A14200082DF5000806F086FC0599284651
:1046D00006F082FC0699284606F07EFC07992846DB
:1046E00006F07AFC0899284606F076FC02992846DE
:1046F00006F072FC2846314606F06EFC204611B0EA
:10470000BDE8F08F704710B54FF4AC71044617F058
:10471000F1FD204610BD10B50446D0F8540100F05C
:1047200012F82046BDE8104009F0FEBB10B5044663
:10473000FEF7FCFB014B2360204610BDE8E80108B2
:104740000022026070477047704704387047704716
:1047500010B51021044617F0CDFD204610BDA0F184
:104760000400F5E710B500228260044AC16002F13E
:10477000080420320460426010BD00BF24E9010833
:104780007047704701EBC101024B01F21311196030
:10479000704700BF1800002007EE901AF8EEE77A85
:1047A00008B517EE900AFBF7D7FE09A3D3E900235B
:1047B000FBF72AFF044B0022FBF770FDFCF736F9EC
:1047C000024B186008BD00BF00508A401C0000204A
:1047D0003D0AD7A3703D144007EE901AF8EEE77A31
:1047E00008B517EE900AFBF7B7FE09A3D3E900233B
:1047F000FBF70AFF044B0022FBF750FDFCF716F90C
:10480000024B186008BD00BF00508A402000002005
:104810005C8FC2F5285C0B40074B084A197829B118
:1048200040F21311116000221A7070474FF42F717B
:1048300011600122F8E700BF8C170020140000204F
:10484000FFF7B0B810B54FF4AA61044617F052FD57
:10485000204610BD10B50446FFF77CF90D4B2360D0
:104860000D4A0E4801230C2103F012FA01230C4AD1
:104870000C48042103F00CFA01230B4A0B480021D9
:1048800003F006FA01230A4A0A48002103F000FA5D
:10489000204610BD54E9010818000020582B0120C3
:1048A0001C0000206C290120200000208428012009
:1048B000140000202C2901207047FFF774BB10B5AD
:1048C0008C21044617F016FD204610BD10B5044695
:1048D000FFF772FB014B2360204610BD98E90108E9
:1048E0000B46024A10216C300BF08ABF47E50108E5
:1048F000704704387047704710B51021044617F010
:10490000F9FC204610BDA0F10400F5E710B5002227
:104910008260044AC16002F10804203204604260EF
:1049200010BD00BF20EA01087047FFF790BC0000EF
:1049300010B5044B0360044600F53470FFF7ECFB40
:10494000204610BD08E8010810B50446FFF7F0FF47
:10495000204640F23C6117F0CDFC204610BD00001F
:1049600010B50446FFF7DAFC014B2360204610BD6A
:10497000C4EA010870B50C4604310546021D03C99E
:1049800082E8030004F10C0103C905F10C0282E87E
:10499000030062696A61A269AA61E269EA61B4F925
:1049A00020202A84B4F922206A8494F8242085F8EF
:1049B000242094F8252085F82520A26AAA622A4698
:1049C000294942F8301B04F1300103C982E8030091
:1049D00004F1380103C905F1380282E80300226CB2
:1049E0002A64626C6A64A26CAA64B4F94C20A5F8CB
:1049F0004C20B4F94E20A5F84E2094F8502085F8AC
:104A0000502094F8512085F85120184AEA62184A3B
:104A10006A65B4F85820A5F85820E26DEA65B4F943
:104A20006020A5F8602094F8622085F8622094F850
:104A3000632085F8632094F8642085F8642094F856
:104A4000652085F865200B4AEA626C3454F8042C22
:104A5000AA660FCC05F16C060FC694E80F0086E835
:104A60000F00284670BD00BF54E5010850EA010858
:104A70004CDA010864FE01082DE9F843DFF84090A4
:104A800080460C46174606461546B44209D02DB15D
:104A900031462846FFF76EFFC5F800908C368C35FE
:104AA000F3E7A4EB08040548A408444324F0404479
:104AB0008C2000FB0470BDE8F88300BF8BAFF80AC0
:104AC00098E9010838B504460D46AC4205D0236884
:104AD00020461B6898478C34F7E738BD2DE9F0472E
:104AE000B0B005460DA8FFF7F1FE3F4B3F4F1B68E6
:104AF0003F4EA3F52F725342534102933D4B3E4A22
:104B00001B6801933D4B1B6800933D4B10211B68B4
:104B100005A80BF075FE05A90DA8FFF7E1FED7E982
:104B20000193994524D0B9F1000F06D00DA948464C
:104B3000FFF720FF334BC9F800307B688C337B6074
:104B4000D7E900239B1A9B107343013B05F50274C0
:104B50008C2101FB0321204606F03EFA05F50D707D
:104B600005F0D4FC20460AF01EF830B0BDE8F0870E
:104B70003B68A9EB030A4FEAAA04744314BF234617
:104B80000123E418204B27D29C4225D82CBBA046F9
:104B900018EB0A0005D00DA9FFF7ECFE194B48F8F9
:104BA0000A30494642463868FFF766FF796800F1E7
:104BB0008C024846FFF760FF8146D7E90001FFF706
:104BC00081FF386808B117F0BFFB8C2303FB048416
:104BD000C7E90089BC60B3E71C468C20604317F02E
:104BE0008BFB8046D4E700BF140000209017002004
:104BF0008BAFF88A20000020B0EA01081C000020DA
:104C00001800002098E90108411DD401024B002240
:104C1000C3E900229A6070479017002010B5064C37
:104C2000D4E90001FFF74EFF206818B1BDE810403D
:104C300017F08ABB10BD00BF90170020F02070470E
:104C40004FF4A07070472920FDF74ABA2820FDF7DD
:104C500047BA08B5FDF718FACA20FDF741FAC32094
:104C6000FDF722FA0820FDF71FFA5020FDF71CFA85
:104C7000CF20FDF735FA0020FDF716FAC120FDF729
:104C800013FA3020FDF710FAED20FDF729FA642021
:104C9000FDF70AFA0320FDF707FA1220FDF704FAE0
:104CA0008120FDF701FAE820FDF71AFA8520FDF7CB
:104CB000FBF90020FDF7F8F97820FDF7F5F9CB2096
:104CC000FDF70EFA3920FDF7EFF92C20FDF7ECF98E
:104CD0000020FDF7E9F93420FDF7E6F90220FDF7A1
:104CE000E3F9F720FDF7FCF92020FDF7DDF9EA20D4
:104CF000FDF7F6F90020FDF7D7F90020FDF7D4F90C
:104D0000B120FDF7EDF90020FDF7CEF91B20FDF7EE
:104D1000CBF9B620FDF7E4F90A20FDF7C5F9A2208A
:104D2000FDF7C2F9C020FDF7DBF91020FDF7BCF953
:104D3000C120FDF7D5F91020FDF7B6F9C520FDF724
:104D4000CFF94520FDF7B0F91520FDF7ADF9C720E3
:104D5000FDF7C6F99020FDF7A7F93620FDF7C0F959
:104D6000C820FDF7A1F9F220FDF7BAF90020FDF700
:104D70009BF9B020FDF7B4F9C220FDF795F9B620F4
:104D8000FDF7AEF90A20FDF78FF9A720FDF78CF9A2
:104D90002720FDF789F90420FDF786F92A20FDF781
:104DA0009FF90020FDF780F90020FDF77DF9002034
:104DB000FDF77AF9EF20FDF777F92B20FDF790F951
:104DC0000020FDF771F90020FDF76EF90120FDF7D5
:104DD0006BF93F20FDF768F9F620FDF781F9012016
:104DE000FDF762F90020FDF75FF90620FDF75CF999
:104DF0002C20FDF775F9C820FDF7C0F92620FDF736
:104E00006FF90120FDF750F9E020FDF769F90F2057
:104E1000FDF74AF92920FDF747F92420FDF744F969
:104E20000C20FDF741F90E20FDF73EF90920FDF7B2
:104E30003BF94E20FDF738F97820FDF735F93C2095
:104E4000FDF732F90920FDF72FF91320FDF72CF9B2
:104E50000520FDF729F91720FDF726F91120FDF7A8
:104E600023F90020FDF720F9E120FDF739F90020B2
:104E7000FDF71AF91620FDF717F91B20FDF714F9B5
:104E80000420FDF711F91120FDF70EF90720FDF7B9
:104E90000BF93120FDF708F93320FDF705F9422021
:104EA000FDF702F90520FDF7FFF80C20FDF7FCF8EF
:104EB0000A20FDF7F9F82820FDF7F6F82F20FDF776
:104EC000F3F80F20FDF7F0F81120FDF709F9C820DD
:104ED000FDF754F92920FDF703F92C20BDE808401F
:104EE000FDF7FEB808B5FDF7CFF80321D320FDF795
:104EF00013F980B208BD10B5C4B2022203212046C6
:104F0000FDF77AF80A20FDF7BDF8204600220321BC
:104F1000FDF772F80220BDE81040FDF7B3B838B5D0
:104F20000446E4B2FDF766F800212046FDF77AF862
:104F3000012105462046FDF775F840EA052080B2BC
:104F400038BD10B5C4B240212046FDF76BF803060A
:104F500007D54C212046FDF765F8003018BF012029
:104F600010BD01224B212046FDF746F820460022C5
:104F70004B21FDF741F80020F2E773B50423C4B2DA
:104F80000E461546D7210DEB03022046FDF764F8C7
:104F9000019B1BBA1A0DC3F30B23328020462B80D2
:104FA00001224B21FDF728F800224B212046FDF776
:104FB00023F802B070BD000010B50A4A1378984279
:104FC00004460DD0517888420AD00BB141B9012373
:104FD000D454FDF70FF82046BDE81040FFF78BBF13
:104FE00010BD00BF9C17002010B5C4B20921204697
:104FF000FDF718F840F00102D2B220460921BDE8C1
:105000001040FCF7F9BF10B5C4B209212046FDF7E6
:1050100009F8092100F0FE022046BDE81040FCF727
:10502000EBBF38B5C5B20C4628460A21FCF7FAFF9B
:1050300040EA0402D2B228460A21BDE83840FCF713
:10504000DBBF10B50446FCF7D6FF20461F21FFF753
:10505000E8FF2046BDE81040FFF7C6BF38B5C5B22F
:105060000C4628460A21FCF7DDFF20EA0402D2B2F2
:1050700028460A21BDE83840FCF7BEBF10B50446FB
:10508000FFF7C1FF20461F21BDE81040FFF7E6BF34
:1050900010B5C0B20C460B21FCF7C4FF204010BD78
:1050A0001F21FFF7F5BF0A46C0B20B21FCF7A4BFD2
:1050B0001F21FFF7F8BF38B5C5B20C4628461721A7
:1050C000FCF7B0FF20EA0402D2B228461721BDE85F
:1050D0003840FCF791BF70B5C4B2064604212046A3
:1050E000FCF7A0FF042100F0FB0205462046FCF778
:1050F00083FF3046F021FFF7DEFF05F0F80220467F
:105100000421FCF779FF492220212046FCF774FF97
:105110000220FCF7B7FF204601222121FCF76CFF9B
:1051200020469A224121FCF767FF204601224A21AE
:10513000FCF762FF204601224B21FCF75DFF204671
:1051400000224B21FCF758FF204601225621FCF794
:1051500053FF204601225821FCF74EFF2046012232
:105160004021FCF749FF2046FF220B21FCF744FFBA
:105170000220BDE87040FCF785BF0000054BD3F866
:10518000882042F47002C3F888204FF000629A60D1
:10519000704700BF00ED00E008B50B4B1A6842F401
:1051A00000721A601A6842F480621A601A6842F447
:1051B00080721A60032000F02FF80020FDF75EFBDC
:1051C000FCF7EAFF002008BD003C0240034A044B04
:1051D00011681B780B441360704700BF6C2C0120D2
:1051E00088000020014B1868704700BF6C2C01201C
:1051F00038B50446FFF7F6FF631C1CBF054B1B7850
:10520000054618BFE418FFF7EDFF401BA042FAD394
:1052100038BD00BF88000020074AD36823F4E0634C
:105220001B041B0C43F0BF63000243F4003300F483
:10523000E0600343D360704700ED00E0174B70B5AA
:10524000DC68C4F30224C4F10705042D04F104034F
:1052500028BF04254FF0FF36062B06FA05F38CBF56
:10526000033C002421EA0303A34006FA04F422EAE3
:105270000404002843EA0403A8BF00F160404FEA99
:105280000313BCBF00F00F00054ADBB2AABF00F554
:105290006140135480F8003370BD00BF00ED00E0A2
:1052A00014ED00E0002808DB4209012300F01F0094
:1052B00003FA00F0014B43F82200704700E100E0E0
:1052C00000280DDB4309012200F01F0002FA00F064
:1052D0002033044A42F82300BFF34F8FBFF36F8F90
:1052E000704700BF00E100E010B5044650B14379BB
:1052F00003F0FF0213B90271FCF76EFF0123637123
:10530000002010BD0120FCE70368DAB223F47F73AC
:1053100023F003031821103AB2FBF1F20449032AE7
:1053200088BF0433895C8365C165806D704700BFA9
:105330001CEB010870B50446FFF754FF0546002C2E
:1053400071D0002384F834302268022384F8353089
:10535000136823F00103136021680B68D8073CD45D
:105360000B68324DA0691D40D4E901231343E26864
:1053700013432269134362691343E26903431343EE
:10538000226A1343626A042A43EA050302BFD4E98E
:105390000B5635432B430B604B69042A23F007035C
:1053A00043EA02030BD1A26AE56A13433DB1F8B99F
:1053B000012A2DD001D3022A01D1EA012BD44B615D
:1053C0002046FFF7A1FFE26D3F239340836000205A
:1053D0000123606584F8353009E0FFF703FF401BC7
:1053E0000528B9D920236365032084F8350070BDF2
:1053F000B0F5005F13D1032AE1D801A050F822F0E4
:1054000017540008BB530008175400081154000833
:10541000B5F1C07FD3D1402363650120E5E7022ABF
:10542000F9D9032AC8E70120E1E700BF3F8010F067
:1054300070B590F83440012C32D0012480F834400B
:1054400090F83540866D012C4FF000054FF00204B6
:1054500024D180F8354004684565256825F4802509
:10546000256063608368402B0EBFA260A160E2608C
:10547000C26D08BFE1603F239340B360236843F0EF
:1054800016032360036C1BB1236843F008032360F9
:10549000236843F001032360002070BD80F834507E
:1054A0000220FAE770B50468049D666C45EA034380
:1054B00006F04046334363644368E263B3F5403F1C
:1054C00030D186681EB1012E03D121F07F41A16346
:1054D00070BD022E01F47F0301F47F45C8B207D1ED
:1054E000D90CAD0AC90241EA451141EAD001EEE703
:1054F000032E01F07F420AD1DB0CED0A9B0243EA46
:10550000451343EAD003D10F43EAC131DFE7190D58
:105510002D0B090241EA051141EA1011130F41EA6E
:105520000331D4E7E160D3E710B5044630B390F817
:10553000393003F0FF021BB980F83820FCF764FE15
:1055400022686168022384F83930136823F44033F9
:105550000B431360536BA16823F007030B435363A2
:10556000136CE16823F47F5323F03F030B43136470
:1055700000200123E06384F8393010BD0120FCE7EE
:1055800073B590F83840012C05464FF0020413D053
:1055900080F839400126069C80F838600094FFF7B7
:1055A00081FF2B681A6842F40C521A601A68324361
:1055B0001A60002002B070BD2046FBE773B51546A7
:1055C0001A4690F83830012B04464FF0020316D0EB
:1055D00080F839300368012680F838605D61079BE8
:1055E0000093069BFFF75EFF23681A6842F40C5293
:1055F0001A601A6832431A60002002B070BD184663
:10560000FBE7026838B5136823F0050343F0040391
:1056100013600446FFF7E6FD05462368186810F09E
:10562000010009D11A6822F40C521A60012384F88F
:10563000393084F838000FE0FFF7D4FD401BB0F597
:105640007A7FEAD9E36B43F02003E363032000236E
:1056500084F8390084F8383038BD70B505682A6898
:1056600042F004022A600129044614BF24351C3587
:10567000FFF7B8FD0646286810F020000AD122681E
:10568000136823F464531360012384F8393084F8D9
:1056900038000FE0FFF7A6FD801BB0F57A7FEAD94E
:1056A000E36B43F02003E3630320002384F8390015
:1056B00084F8383070BD000038B5054608B90120BF
:1056C00038BD164B1B6B190213D42B6800243F22E4
:1056D0001C6028469A601C619C61DC615C625C63B2
:1056E000FCF7B4FDEC6385F8384085F83940204676
:1056F000E6E70368196811F0010104D0FFF781FFA4
:105700000028E2D0DBE75A6A920602D5FFF7A5FF30
:10571000F6E7DB699B06D8D50121F7E700380240A0
:1057200070477047036870B55E681D68F2070446ED
:1057300014D5E90512D51A6822F480721A60C26B7A
:1057400042F00102C26301229A60042380F83930DA
:10575000002380F83830436903B19847B20616D564
:10576000AB0414D523681A6822F400521A60202270
:105770009A60E36B43F00203E363042384F8393057
:10578000002384F8383063690BB12046984730070E
:1057900016D5290514D523681A6822F400621A6008
:1057A00008229A60E36B43F00403E363042384F864
:1057B0003930002384F8383063690BB120469847AC
:1057C00072070BD56B0509D523681A6822F480622D
:1057D0001A6004229A602046FFF7A2FFB00714D592
:1057E000A90512D523681A6822F400721A600222F1
:1057F0009A60E36BE363012384F83930002384F873
:10580000383023690BB120469847F20613D5EB04D4
:1058100011D523681A6822F480521A6010229A6007
:10582000E36BE363012384F83930002384F83830D4
:105830002046FFF776FF70BD90F83830012BF0B5A9
:105840004FF0020336D00E01012280F8393083195F
:1058500080F83820D3E9075245EA0242093D012D7C
:105860005C6A194F03680FD804F07F4C4CEA0202BF
:1058700069B9596A39400A435A6282699A61426A2F
:1058800022F07F429A620FE042EA0462A1B1D96934
:10589000064439400A43012DDA6198BF24F07F4461
:1058A000B2691A6198BF1C62012380F83930002365
:1058B00080F838301846F0BD596A39400A435A62B8
:1058C00082699A61F0E700BFF0FFFC002DE9F04F1C
:1058D00085B00B68DFF8C4816E4ADFF8C49101938C
:1058E00000230124019D9C402540AC4240F0B8803B
:1058F0004C6824F0100C4FEA430E03260CF1FF37DE
:1059000006FA0EF6012F6FEA060611D8876807EA35
:10591000060ACF6807FA0EF747EA0A078760476862
:1059200027EA050AC4F300179F4047EA0A074760C1
:10593000C76807EA060A8F6807FA0EF747EA0A07F8
:10594000BCF1020FC76016D14FEAD30A00EB8A0AF6
:1059500003F0070BDAF820704FEA8B0B4FF00F0CB7
:105960000CFA0BFC27EA0C0C0F6907FA0BF747EA55
:105970000C07CAF8207007683E4004F0030707FAD6
:105980000EFE4EEA06060660E60069D54FF0000BF3
:10599000CDF80CB0D8F844703F4E47F48047C8F8B3
:1059A0004470D8F8447007F480470397039F23F0AE
:1059B000030707F1804707F59C3703F0030ED7F87C
:1059C00008A04FEA8E0E4FF00F0C0CFA0EFCB042FE
:1059D0002AEA0C0C4BD006F58066B04249D006F599
:1059E0008066B04247D006F58066B04245D006F5E5
:1059F0008066B04243D0484543D006F50066B042C9
:105A000041D006F58066B0423FD006F58066B042D0
:105A10003DD006F58066B04214BF0A26092606FA74
:105A20000EF646EA0C06BE601668EF4314F4803F9B
:105A30000CBF3E402E431660566814F4003F0CBF66
:105A40003E402E435660966814F4801F0CBF3E40C3
:105A50002E439660D668A40254BF3E402E43D660C3
:105A60000133102B7FF43DAF05B0BDE8F08F5E46EB
:105A7000D5E70126D3E70226D1E70326CFE70426A0
:105A8000CDE70526CBE70626C9E70726C7E70826A0
:105A9000C5E700BF003C0140000002400038024062
:105AA000001402400AB1816170470904FBE70168F4
:105AB0004B6913F480634FF0000210D06FF48063E1
:105AC0004B612023026380F83D3080F83E20036C58
:105AD00080F83C2043F0040303640120704718461B
