:020000040800F2
:10000000000003207D0D0008F9280008FB280008E7
:10001000FD280008FF280008012900080000000052
:10002000000000000000000000000000617F0008E8
:100030000329000800000000F17F00085580000837
:10004000CD0D0008CD0D0008CD0D0008CD0D000828
:10005000CD0D0008CD0D0008CD0D0008CD0D000818
:10006000CD0D0008CD0D0008CD0D0008CD0D000808
:10007000CD0D0008CD0D0008CD0D0008CD0D0008F8
:10008000CD0D0008CD0D0008CD0D0008CD0D0008E8
:10009000CD0D0008CD0D0008CD0D0008CD0D0008D8
:1000A000CD0D0008CD0D0008CD0D0008CD0D0008C8
:1000B000CD0D0008CD0D0008CD0D0008CD0D0008B8
:1000C000CD0D0008CD0D0008CD0D0008CD0D0008A8
:1000D000CD0D0008CD0D0008CD0D0008CD0D000898
:1000E000CD0D0008CD0D0008CD0D0008CD0D000888
:1000F000CD0D0008CD0D0008CD0D0008CD0D000878
:10010000CD0D0008CD0D0008CD0D0008CD0D000867
:10011000CD0D0008CD0D000805290008CD0D000803
:10012000CD0D0008CD0D0008CD0D0008CD0D000847
:10013000CD0D0008CD0D0008CD0D0008CD0D000837
:10014000CD0D0008CD0D0008CD0D0008CD0D000827
:10015000CD0D0008CD0D0008CD0D0008CD0D000817
:10016000CD0D0008CD0D0008CD0D0008CD0D000807
:10017000CD0D0008CD0D0008CD0D000800000000D9
:10018000CD0D0008CD0D0008CD0D0008CD0D0008E7
:10019000CD0D0008CD0D0008CD0D0008CD0D0008D7
:0C01A00011290008CD0D00081D290008E1
:1001B00010B5054C237833B9044B13B10448AFF3A1
:1001C00000800123237010BD70010020000000009A
:1001D000F4B7010808B5034B1BB103490348AFF35B
:1001E000008008BD0000000074010020F4B7010881
:1001F00001F0FF01102A2BDB10F0070F08D010F8D8
:10020000013B013A8B422DD010F0070F42B3F6D1DB
:10021000F0B441EA012141EA014122F007047FF0F4
:1002200000070023F0E80256083C85EA010586EA4B
:10023000010685FA47F5A3FA87F586FA47F6A5FA87
:1002400087F68EB9EED1F0BC01F0FF0102F0070293
:1002500032B110F8013B013A83EA010313B1F8D13E
:100260000020704701387047002D06BF354603381F
:10027000073815F0010F07D1013015F4807F02BF58
:10028000013015F4C03F0130F0BC0138704700BFA9
:1002900081F0004102E000BF83F0004330B54FEA37
:1002A00041044FEA430594EA050F08BF90EA020FA4
:1002B0001FBF54EA000C55EA020C7FEA645C7FEA37
:1002C000655C00F0E2804FEA5454D4EB5555B8BF5A
:1002D0006D420CDD2C4480EA020281EA030382EACB
:1002E000000083EA010180EA020281EA0303362D5D
:1002F00088BF30BD11F0004F4FEA01314FF4801C30
:100300004CEA113102D0404261EB410113F0004F41
:100310004FEA03334CEA133302D0524263EB4303F8
:1003200094EA050F00F0A780A4F10104D5F1200E96
:100330000DDB02FA0EFC22FA05F2801841F10001F1
:1003400003FA0EF2801843FA05F359410EE0A5F1C5
:1003500020050EF1200E012A03FA0EFC28BF4CF0F6
:10036000020C43FA05F3C01851EBE37101F00045AC
:1003700007D54FF0000EDCF1000C7EEB00006EEBB9
:100380000101B1F5801F1BD3B1F5001F0CD3490843
:100390005FEA30004FEA3C0C04F101044FEA44529A
:1003A00012F5800F80F09A80BCF1004F08BF5FEA21
:1003B000500C50F1000041EB045141EA050130BD01
:1003C0005FEA4C0C404141EB010111F4801FA4F1A4
:1003D0000104E9D191F0000F04BF01460020B1FAF9
:1003E00081F308BF2033A3F10B03B3F120020CDA31
:1003F0000C3208DD02F1140CC2F10C0201FA0CF00F
:1004000021FA02F10CE002F11402D8BFC2F1200C73
:1004100001FA02F120FA0CFCDCBF41EA0C01904029
:10042000E41AA2BF01EB0451294330BD6FEA040472
:100430001F3C1CDA0C340EDC04F11404C4F120025D
:1004400020FA04F001FA02F340EA030021FA04F36F
:1004500045EA030130BDC4F10C04C4F1200220FAC6
:1004600002F001FA04F340EA0300294630BD21FA04
:1004700004F0294630BD94F0000F83F4801306BFCA
:1004800081F480110134013D4EE77FEA645C18BFBE
:100490007FEA655C29D094EA050F08BF90EA020F55
:1004A00005D054EA000C04BF1946104630BD91EA4D
:1004B000030F1EBF0021002030BD5FEA545C05D150
:1004C0004000494128BF41F0004130BD14F580048F
:1004D0003CBF01F5801130BD01F0004545F0FE4103
:1004E00041F470014FF0000030BD7FEA645C1ABF38
:1004F000194610467FEA655C1CBF0B46024650EA6F
:10050000013406BF52EA033591EA030F41F400219A
:1005100030BD00BF90F0000F04BF0021704730B520
:100520004FF4806404F132044FF000054FF00001F5
:1005300050E700BF90F0000F04BF0021704730B5B6
:100540004FF4806404F1320410F0004548BF40428B
:100550004FF000013EE700BF42004FEAE2014FEAE0
:1005600031014FEA02701FBF12F07F4393F07F4FBB
:1005700081F06051704732F07F4208BF704793F0BE
:100580007F4F04BF41F40021704730B54FF46074D1
:1005900001F0004521F000411CE700BF50EA0102D4
:1005A00008BF704730B54FF000050AE050EA01027D
:1005B00008BF704730B511F0004502D5404261EBED
:1005C00041014FF4806404F132045FEA915C3FF42E
:1005D000D8AE4FF003025FEADC0C18BF03325FEACB
:1005E000DC0C18BF033202EBDC02C2F1200300FA7C
:1005F00003FC20FA02F001FA03FE40EA0E0021FAA1
:1006000002F11444BDE600BF70B54FF0FF0C4CF48E
:10061000E06C1CEA11541DBF1CEA135594EA0C0F40
:1006200095EA0C0F00F0DEF82C4481EA030621EA7B
:100630004C5123EA4C5350EA013518BF52EA0335B6
:1006400041F4801143F4801338D0A0FB02CE4FF068
:100650000005E1FB02E506F00042E0FB03E54FF098
:100660000006E1FB03569CF0000F18BF4EF0010E90
:10067000A4F1FF04B6F5007F64F5407404D25FEA8C
:100680004E0E6D4146EB060642EAC62141EA55513F
:100690004FEAC52040EA5E504FEACE2EB4F1FD0C81
:1006A00088BFBCF5E06F1ED8BEF1004F08BF5FEAFF
:1006B000500E50F1000041EB045170BD06F00046B1
:1006C00046EA010140EA020081EA0301B4EB5C045E
:1006D000C2BFD4EB0C0541EA045170BD41F4801156
:1006E0004FF0000E013C00F3AB8014F1360FDEBF7B
:1006F000002001F0004170BDC4F10004203C35DA57
:100700000C341BDC04F11404C4F1200500FA05F3D9
:1007100020FA04F001FA05F240EA020001F000427A
:1007200021F0004110EBD37021FA04F642EB0601F0
:100730005EEA430E08BF20EAD37070BDC4F10C041A
:10074000C4F1200500FA04F320FA05F001FA04F2DE
:1007500040EA020001F0004110EBD37041F10001CA
:100760005EEA430E08BF20EAD37070BDC4F12005D5
:1007700000FA05F24EEA020E20FA04F301FA05F23D
:1007800043EA020321FA04F001F0004121FA04F2E5
:1007900020EA020000EBD3705EEA430E08BF20EAB5
:1007A000D37070BD94F0000F0FD101F000464000EF
:1007B00041EB010111F4801F08BF013CF7D041EA71
:1007C000060195F0000F18BF704703F00046520075
:1007D00043EB030313F4801F08BF013DF7D043EA46
:1007E0000603704794EA0C0F0CEA135518BF95EAFC
:1007F0000C0F0CD050EA410618BF52EA4306D1D183
:1008000081EA030101F000414FF0000070BD50EAA1
:10081000410606BF1046194652EA430619D094EA2B
:100820000C0F02D150EA013613D195EA0C0F05D115
:1008300052EA03361CBF104619460AD181EA030169
:1008400001F0004141F0FE4141F470014FF0000021
:1008500070BD41F0FE4141F4780170BD70B54FF0BC
:10086000FF0C4CF4E06C1CEA11541DBF1CEA13553C
:1008700094EA0C0F95EA0C0F00F0A7F8A4EB05041E
:1008800081EA030E52EA03354FEA013100F0888015
:100890004FEA03334FF0805545EA131343EA1263DE
:1008A0004FEA022245EA111545EA10654FEA002693
:1008B0000EF000419D4208BF964244F1FD0404F54C
:1008C000407402D25B084FEA3202B61A65EB0305A8
:1008D0005B084FEA32024FF480104FF4002CB6EB65
:1008E000020E75EB030E22BFB61A754640EA0C00E5
:1008F0005B084FEA3202B6EB020E75EB030E22BF25
:10090000B61A754640EA5C005B084FEA3202B6EB65
:10091000020E75EB030E22BFB61A754640EA9C0024
:100920005B084FEA3202B6EB020E75EB030E22BFF4
:10093000B61A754640EADC0055EA060E18D04FEAB2
:10094000051545EA16754FEA06164FEAC30343EA52
:1009500052734FEAC2025FEA1C1CC0D111F4801F1F
:100960000BD141EA00014FF000004FF0004CB6E718
:1009700011F4801F04BF01430020B4F1FD0C88BFB7
:10098000BCF5E06F3FF6AFAEB5EB030C04BFB6EBC2
:10099000020C5FEA500C50F1000041EB045170BDB5
:1009A0000EF0004E4EEA113114EB5C04C2BFD4EBE2
:1009B0000C0541EA045170BD41F480114FF0000E66
:1009C000013C90E645EA060E8DE60CEA135594EAE2
:1009D0000C0F08BF95EA0C0F3FF43BAF94EA0C0FE5
:1009E0000AD150EA01347FF434AF95EA0C0F7FF45A
:1009F00025AF104619462CE795EA0C0F06D152EAAE
:100A000003353FF4FDAE1046194622E750EA410691
:100A100018BF52EA43067FF4C5AE50EA41047FF4A2
:100A20000DAF52EA43057FF4EBAE12E74FEA410205
:100A300012F5001215D211D56FF47873B3EB625230
:100A400012D94FEAC12343F0004343EA505311F057
:100A5000004F23FA02F018BF404270474FF00000E9
:100A6000704750EA013005D111F0004008BF6FF027
:100A7000004070474FF00000704700BF53B94AB9BB
:100A8000002908BF00281CBF4FF0FF314FF0FF3096
:100A900000F072B9ADF1080C6DE904CE00F006F873
:100AA000DDF804E0DDE9022304B070472DE9F047EA
:100AB000089E04468846002B4BD18A42154667D9CA
:100AC000B2FA82F24AB1C2F1200701FA02F320FA27
:100AD00007F7954047EA030894404FEA154E230C68
:100AE000B8FBFEF71FFA85FC0EFB178843EA0843A4
:100AF00007FB0CF1994209D9EB1807F1FF3080F0A0
:100B00001B81994240F21881023F2B445B1AA4B228
:100B1000B3FBFEF00EFB103344EA034400FB0CFC75
:100B2000A44509D92C1900F1FF3380F00781A445B1
:100B300040F2048102382C4440EA0740A4EB0C0444
:100B400000271EB1D4400023C6E900433946BDE862
:100B5000F0878B4209D9002E00F0EB800027C6E910
:100B6000000138463946BDE8F087B3FA83F7002F15
:100B700047D18B4202D3824200F2FA80841A61EBA1
:100B8000030301209846002EE0D0C6E90048DDE7C7
:100B900002B9FFDEB2FA82F2002A40F08F80491BD0
:100BA0004FEA154E1FFA85F80127B1FBFEFC230C16
:100BB0000EFB1C1143EA014308FB0CF1994207D9D3
:100BC000EB180CF1FF3002D2994200F2CD8084463E
:100BD000591AA3B2B1FBFEF00EFB101443EA044411
:100BE00008FB00F8A04507D92C1900F1FF3302D209
:100BF000A04500F2B6801846A4EB080440EA0C4079
:100C00009FE7C7F1200CBB4022FA0CFE4EEA030E10
:100C100001FA07F420FA0CF521FA0CF34FEA1E480A
:100C20002543B3FBF8F92C0C08FB19331FFA8EFA95
:100C300044EA034309FB0AF49C4202FA07F200FA71
:100C400007F10BD91EEB030309F1FF3080F0878019
:100C50009C4240F28480A9F1020973441B1BADB28F
:100C6000B3FBF8F008FB103345EA034400FB0AFA33
:100C7000A24508D91EEB040400F1FF336BD2A24554
:100C800069D90238744440EA0940A0FB0289A4EB08
:100C90000A044C45C2464B4654D351D0002E69D06D
:100CA000B1EB0A0564EB030404FA0CFCFD40FC40C4
:100CB0004CEA0505C6E90054002747E7C2F12003C6
:100CC00020FA03F7954001FA02F021FA03F34FEA04
:100CD000154E3843010CB3FBFEF71FFA85F80EFBE7
:100CE000173341EA034107FB08F38B4204FA02F48D
:100CF00007D9691807F1FF3C2FD28B422DD9023F4B
:100D00002944CB1A81B2B3FBFEF00EFB103341EA4B
:100D1000034100FB08F38B4207D9691800F1FF3C3F
:100D200017D28B4215D902382944C91A40EA07471D
:100D30003BE73746304609E70746E7E61846FBE655
:100D40004145ABD2B8EB020A69EB0E0201381346FB
:100D5000A4E76046E9E7184695E76746D1E781468C
:100D60007CE702382C4447E7ACF1020C2B442FE718
:100D7000384608E73746E9E6704700BFDFF834D069
:100D8000002103E00C4B5B58435004310B480C4BE3
:100D900042189A42F6D30B4A02E0002342F8043B81
:100DA000094B9A42F9D303F0B5FE19F067FD00F044
:100DB00095FE704700000320602706080000002011
:100DC0007001002070010020B42B0120FEE700F02C
:100DD00093BC00F001BD704710B50421044619F022
:100DE000D7FC204610BD000038B50C4B0C4C1880C9
:100DF0000C4B822019806368984740F61103984293
:100E00000AD1094D23682C60822098472B688220E4
:100E1000DB689847002038BD0120FCE78C010020EA
:100E20005C0000208E010020900100204FF4A07192
:100E3000F020FFF7D9BF0000F7B52C4D2B68044612
:100E40001B698220984780B2208000284BD02B68F5
:100E50000DF106025B6901A982209847BDF80630B2
:100E6000A3F5B4739BB20B22B3FBF2F333B1204A68
:100E700012889A423CBF02F1FF339BB2BDF80420B6
:100E800040F6B8318A4295BFC2F57162C2F56D6213
:100E90000E320832ADF80420BDF804100F22B1FB69
:100EA000F2F131B1134A12888A423CBF02F1FF319C
:100EB00089B2114E114D30682F6882B2814288BFCD
:100EC0008A1AB8B298BF521ABB428CBF181AC01AFD
:100ED00092B280B20244052AC4BF31602B603368ED
:100EE00063802B68A38003B0F0BD00BF9001002099
:100EF0008E0100208C010020940100209801002028
:100F000037B568460D461446FFF796FFBDF800005A
:100F100030B1BDF802302B60BDF8043023600120F1
:100F200003B030BD704770477047012380F87410DC
:100F300080F8753070470020704700207047836B41
:100F40000BB10846184770474FF6FF70704740686E
:100F500003689B691847704708B5036804469B6E91
:100F60009847236820461B6E984700F057F923687E
:100F700020469B6D9847292001F0B2F800F04EF909
:100F8000236820469B6D9847F8E710B504460AF0A1
:100F900047F823682046D3F89430BDE8104018473E
:100FA00000F0B6BC00F0BABC00F0C0BC00F08CBCD5
:100FB00000F0BEBC00F0C6BC00F090BC08B531B972
:100FC0000A4B0B4A0B484FF4277119F00DFCC0E98E
:100FD0000F1200320849436418BF01220A7000331F
:100FE000064A18BF0123137008BD00BF89B8010865
:100FF00014BA0108C1B80108BA230120BB2301209B
:101000002DE9F04799461C4B9DF8205088461968F9
:1010100091F87630074614460BB1C86C00B9886861
:1010200003685B6A9847154B1E887043B9F1000F3F
:1010300016D008EB00010A46ADB10B18013CA4B272
:101040001F2C12D8012101FA04F40D49214061B18D
:1010500039684C6F38464146A446BDE8F0476047C2
:1010600041464A46E8E72B46E8E7064B064A07486A
:1010700040F2892119F0B8FBBC230120B8230120DC
:101080008B8080806CB80108C0B90108C1B8010824
:1010900009F057BA10B57821044619F079FB2046BB
:1010A00010BD90F877301BB1406803681B68184783
:1010B0001846704730B590F8341090F87440104BD3
:1010C0008C421A780DD05AB90E4A0F490F4814882D
:1010D0000F4D0C80018811802980048001221A7034
:1010E00030BD002AFCD00948074A01881180054A12
:1010F000074D14882C80118004800022EFE700BF88
:10110000B4230120B0230120B6230120B223012003
:10111000B823012000F02ABC012108B500220846AE
:1011200006F0F6FB064B4FF0FF31186006F046FC68
:1011300000220421012006F0B5FC024B186008BD16
:10114000A00100209C01002008B5074B186828B9B1
:10115000064B074A0748312119F046FB4FF0FF3193
:10116000BDE8084006F02ABCA001002062BA0108D0
:10117000FEBA010873BA010808B5064B186828B909
:10118000054B064A06483A2119F02EFBBDE80840F7
:1011900006F050BCA001002062BA0108C1BA0108E3
:1011A00073BA010808B5074B186828B9064B074AF7
:1011B0000748472119F018FB0021BDE8084006F058
:1011C000FDBB00BFA001002062BA01083BBB0108C3
:1011D00073BA010808B5064B186828B9054B064ACA
:1011E0000648542119F000FBBDE8084006F022BC77
:1011F000A001002062BA01087BBB010873BA010894
:10120000044B186820B100231A46034906F090BC2D
:10121000704700BF9C0100200400002013B5084C5B
:10122000206858B100231A4601A906F0C3FC4FF00C
:10123000FF33002201A9206806F0BCFC02B010BDFB
:101240009C01002003685B6C18470020704703680E
:101250009B6A184740F2EF107047000010B5074C2A
:10126000074B2360204603F02BFE064B2361064B01
:101270006361064B4FF080629A6010BD182A01200E
:1012800000B00240AD1200089112000800E100E039
:1012900008B5034A034B0448362119F0A5FA00BFEC
:1012A0005CBC0108A7C50108BFBB0108024B1B6855
:1012B000586803685B691847BC230120084B10B5C8
:1012C00003600446074803F0C3FE074B4FF08062FB
:1012D000C3F88820BFF34F8FBFF36F8F204610BD38
:1012E00014BC0108182A012000E100E010B50446F2
:1012F000FFF7E4FF20464FF4426119F049FA204617
:1013000010BD0000044B1B6893F876200AB1D86C1E
:1013100000B99868704700BFBC2301202DE9F7434E
:101320000D68202D0C4600F09780402D00F0948031
:101330002A1F56425641802D00F09080A5F58073FB
:101340005D425D41FFF7DEFF0368DB699847236874
:10135000402B864600F0998000F28280042B00F03A
:101360008D80202B00F09180BEF1100F14BF4FF044
:10137000010C4FF0020C00224B4BB4F8108019689E
:10138000E78AD1F800905A60BEF1100F29F4403975
:1013900014BF01200220A7EB080749EA0202986067
:1013A000DF600A604A6BC3F82CC022F007020243D8
:1013B0004A630A6C22F47F5222F03F023A430A64E5
:1013C000A28AA2EB08029A6206B995B3227FFF2A8D
:1013D00015BF02210022C3E90C121A631DB3227F3C
:1013E000A169BEF1100F4FEA026C51D14FF01F08F6
:1013F000C1F3C422C2EB0222B2FBF8FE01EA0802EA
:10140000C2EB0222B2FBF8F242EA0C0242EA0E42BE
:10141000C1F34511C1EB01214FF03F0CB1FBFCF1D1
:1014200042EA01225A63C3E9067000211E4803F014
:10143000CFFE01211C4803F0CBFE238A628A06B945
:1014400055B3CDE90032E368616817481A4603F0E6
:1014500081FD03B0BDE8F08301266FE7012571E748
:10146000802B06D0B3F5807F7FF47EAF4FF0090C60
:1014700001E04FF00A0C4FF400327DE7102814BF52
:101480004FF0010C4FF0020CF5E74FF0000CF2E7C3
:101490004CEA01015963C6E700926168E2680248BC
:1014A00003F03AFDD5E700BF182A0120F7B50D4635
:1014B000FFF728FF0368DB6998471028AB69297F8D
:1014C00066D103F01F02C2EB02221F20B2FBF0F430
:1014D000C3F3C42244EA0164C2EB0222C3F34513FE
:1014E000B2FBF0F244EA0244C3EB03233F220221A1
:1014F000B3FBF2F344EA03242B682748EE8A026820
:10150000082B2B8AA6EB03061368C6600CBF4FF4AA
:1015100000374FF4403723F440333B43C0E90171B7
:101520001360536B23F007030B435363136C23F4D3
:101530007F5323F03F033343B7F5003F13641CD1BF
:101540000123C0E90C340923C0E90661C36200210C
:1015500003F03EFE0121104803F03AFEB7F5003FCC
:101560002B8A6A8A0DD1E9680B48CDE900320B4617
:101570000A4603F0EFFC03B0F0BD0023C1628362B2
:10158000E8E700922146EA68034803F0C5FCF2E769
:1015900043EA01640121AFE7182A012070B505462E
:1015A0002C460A4B0C30002668602E726E7244F88E
:1015B000203B6022214609F05FFE05F54263A661EB
:1015C0002034A342FBD1284670BD00BF14BC0108E3
:1015D0000120704754207047542303FB010008305A
:1015E0007047542303FB0100083070470120704707
:1015F0004FF4AA6070474FF4AA6303FB0100083060
:1016000070474FF4AA6303FB0100083070470120C4
:1016100070471020704700EB01100830704700EB56
:10162000011008307047084601F0B8BC10B5034BF4
:101630000360044608F084FA204610BD00BD01088E
:1016400010B50446FFF7F2FF20465C2119F0A0F820
:10165000204610BD10B5034B0360044608F070FA35
:10166000204610BDCCBC010810B50446FFF7F2FFC0
:1016700020464FF4AB6119F08BF8204610BD0000F6
:1016800010B5034B0360044608F05AFA204610BD1B
:1016900098BC010810B50446FFF7F2FF2046182158
:1016A00019F076F8204610BD10B5084B03600446CB
:1016B00000F28450FFF7BAFF04F12C00FFF7CAFFD5
:1016C00004F11400FFF7DCFF204610BD34BD010813
:1016D00008B50248FFF7E8FF08BD00BFA8010020D9
:1016E00010B50446FFF7E0FF204640F23C7119F0C8
:1016F0004FF8204610BD00002DE9F34101F082F9BA
:10170000054601F083F90024014623462846224677
:1017100000940DF087FB254B254A264D1A60204684
:1017200002F08EF824480DF0C7FA2B78BFF35B8FD8
:10173000DB0735D4284619F02DF888B31F4C204B11
:10174000236004F2E45604F1140004F12C0804F2BE
:1017500084576060C4F80880E760266108F0F2F9F9
:10176000184B6361404608F0EDF9174BE3623846C9
:1017700008F0E8F9154BC4F8843504F5BC6002F0B4
:1017800039FE224604F5BC61304602F029FE30469F
:1017900001F004FC284619F009F80D4819F042F848
:1017A0000C4802B0BDE8F041FFF7B4BC382401207A
:1017B00080150020A401002008000020A8010020BE
:1017C00034BD010898BC0108CCBC010800BD01086B
:1017D000D1160008081500200148FFF7BDBB00BF67
:1017E0000815002070B5284E284C294D294B236040
:1017F0003046FFF7D3FE284610F00EFB264B274855
:1018000058662748DC6000220121C3E90165C3E96D
:101810000422C3E90622C3E908221A8583F82A2094
:10182000DA621A86C3E90E22C3E9102283F848203F
:1018300083F84A20C3E913225A6583F8682083F8A5
:10184000692083F86A2083F86B2083F86C201A677C
:1018500083F8752083F8762083F8491083F8771091
:1018600003601048104D83F83410F02404804FF4C6
:10187000A07028800D4D2A700D4A14800D4A1080EA
:101880000D4A1A6070BD00BFE8080020E40800207F
:10189000841500205CB80108081500200100000133
:1018A000BC230120B0230120B2230120B423012056
:1018B000B6230120B823012010B901080148FFF721
:1018C000FDBC00BFE8080020034B902283F85A2398
:1018D00083F85823704700BF00E100E0094A0A4935
:1018E000D3680A48C3F30A03013B9BB20B8011691A
:1018F000C1F30A01013901801364536B43F0010302
:101900005363704700680140FE150020FC1500205D
:10191000014B986A704700BF84680140024B012266
:10192000996243F8602C70478468014008F00FBE4C
:10193000034B4FF080629A604FF080729A6070475C
:1019400000E100E0084B4FF08062C3F88820BFF34D
:101950004F8FBFF36F8F4FF08072C3F88820BFF3B3
:101960004F8FBFF36F8F704700E100E038B504463A
:1019700009F0CEF82368DD6C0BF05CFA01462046D6
:10198000A8472368054A5D6FA2F51631002320465B
:10199000A847002384F84A3038BD00BF005802D061
:1019A000134B144A1B6C11888B4210B5124C13D187
:1019B000124B198804F01CFB226892F86630013340
:1019C00082F86630FFF71CFC206809F029FB002034
:1019D000BDE81040FFF7A6BA04F00AFB0020FFF7AD
:1019E000A2FA20680368BDE810409B69184700BF51
:1019F00000680140FE150020BC230120FC150020DA
:101A000007B5064B02A91B6821F8020D0122044804
:101A100004F0E9FF03B05DF804FB00BF10000020F4
:101A20002C270120F0B5A1B0102200210AA818F03F
:101A300064FF1422002103A818F05FFF0021302268
:101A400014A818F05AFF0024224B01941A6C42F09B
:101A500080521A641B6C03F080530193019B1E4B50
:101A600002941A6842F440421A601B6803F440432F
:101A700002930122029B4FF48033CDE90823022513
:101A80004FF48003CDE90E5308274FF4A8730426C2
:101A900008A8CDE910731295139604F0C7FA0F2326
:101AA000CDE903354FF4A0514FF48053CDE906132F
:101AB00003A80521059404F08DFCC023189314A8F5
:101AC0004FF4003314971A961D9304F04BFD21B088
:101AD000F0BD00BF00380240007000402DE9804892
:101AE0009FB00024C74DC84EDFF860B303F020F864
:101AF000FFF798FF1422002111A818F0FEFE0294AF
:101B00002B6BC24843F020032B632B6B03F02003A5
:101B10000293029B03942B6B43F080032B632B6B8C
:101B200003F080030393039B04942B6B43F00403A3
:101B30002B632B6B03F004030493049B05942B6B22
:101B400043F001032B632B6B03F001030593059B0B
:101B500006942B6B43F002032B632B6B03F0020301
:101B60000693069B07942B6B43F040032B632B6B70
:101B700003F040030793079B08942B6B43F010037B
:101B80002B632B6B03F010030893089B09942B6BBA
:101B900043F008032B632B6B03F0080309932246E1
:101BA0000421099B03F04AFC22464FF44051984817
:101BB00003F044FC01274FF002084FF0040911A97B
:101BC0009248CDF85080CDE91197139403F04AFB69
:101BD00011A94FF440538E48CDE91137CDE9134890
:101BE00003F040FB8B488C4B036003F049F88B4AB1
:101BF0008B4B3462C6E9002330464FF48043C6E97C
:101C00000434C6E90244C6E9064403F0F1FD10219C
:101C1000304604F035F82146304604F050F881484B
:101C2000814984624FF48273C0E900134FF4007657
:101C30001823C0E906630A23C362C0E90244C0E96D
:101C40000444C0E9084404F091FE784ACDF8448089
:101C50004FF0100ACBE900274022CBE904A24FF451
:101C6000C072CBE906244FF40062CBE908244FF49C
:101C700000520323CBF8282011A907225846CDE9AA
:101C800015380826CBE90249CDE912291492CDF87E
:101C90005C8004F091FD4FF6FF720DA95846CDE926
:101CA0000E670D970A94109404F0A6FD384602F0D2
:101CB0006BFF4FF6FF720DA95846CDE90D86CDE9B1
:101CC0000F7404F099FD03234FF6FF720DA95846D7
:101CD000CDE90D36CDE90F9404F08EFD4FF40C7272
:101CE0000A920A9A10920DA94FF6FF725846CDE952
:101CF0000D960F9704F080FD40F26A51584604F0AB
:101D000092FD3422214611A818F0F7FD484E494BA8
:101D10003461C6E9003409234FF01D0CC6E90537CC
:101D20000323C6E907C340F20D1E40F24313C6E980
:101D300009E340F2171B40F24713C6E90BB3C6E9AB
:101D40000244B48686F83640304604F05DF8FF2140
:101D5000F022CDE916144FF4806005214FF4A073F2
:101D6000CDE91801CDE9122411A9CDE91A42304676
:101D70002246CDE91438304E1C931194ADF87440CE
:101D80008DF8764004F00BF92C4B33601B689847B4
:101D900033682B4EDB6898472A4BC6E90A48C6E9E8
:101DA0000C443046C6E90034C6E9028403F088F8E2
:101DB0003946304603F00CFAFFF709F801942B6B13
:101DC00043F400132B632B6B1F4D03F4001301939B
:101DD000524621460DA8019B18F08FFD1C2221467A
:101DE00011A84FF0A70B42F20F78CDE90B4418F081
:101DF00084FD4FF080432846C5E9003B4FF48057EF
:101E000026E000BF00380240D8260120000802402A
:101E1000000C0240C427012000300240005C00405A
:101E2000A08601002C27012000500140400100A0A5
:101E3000AC2801200068014000160020240000208A
:101E4000182A012000B00240582A0120F82A012057
:101E5000AC60C5E90384AC6105F0E6F90DA928463C
:101E60000D9705F0B7FA284605F0F8F90BA92846B2
:101E70006026CDE90B4405F0D9FB0C2211A92846B8
:101E8000CDE911641394159405F038FA284600F052
:101E900087FC524621460DA84D4D18F02EFD1C2200
:101EA000214611A8CDE90B4418F027FD494B2C61C0
:101EB0002846C5E9003BC5E90248AC6105F0B4F924
:101EC0000DA928460D9705F085FA284605F0C6F9B4
:101ED0000BA92846CDE90B4405F0A8FB4A4611A9F9
:101EE0002846CDE911641394159405F007FA2846A5
:101EF00000F056FC524621460DA8374D18F0FDFC67
:101F00001C22214611A8CDE90B4418F0F6FC334BF6
:101F10002C612846C5E9003BC5E90248AC6105F0E3
:101F200083F90DA928460D9705F054FA284605F0C7
:101F300095F90BA92846CDE90B4405F077FB22461D
:101F400011A92846CDE911641394159405F0D6F92A
:101F5000284600F025FC524621460DA8204D18F0D9
:101F6000CCFC1C22214611A8CDE90B4418F0C5FC7D
:101F70001C4B2C612846C5E9003BC5E90248AC6111
:101F800005F052F90DA928460D9705F023FA2846C9
:101F900005F064F90BA92846CDE90B4405F046FB92
:101FA000224611A92846CDE911641394159405F031
:101FB000A5F9284600F0F4FB05F01AFC0A4A0B4884
:101FC000214605F04FFC0A4B186005F02BFCFEE79C
:101FD0006C280120000400408427012000080040F4
:101FE0002C280120000C004040BD0108D30D000842
:101FF000142A01207047704710B586B006AC074B15
:1020000004F8012D1B68029301230A46CDE9004321
:102010000146034803F098FC06B010BD0C000020F8
:10202000D82601207FB506AA002302F8013D084BFF
:102030001B6802930123CDE900230A4601460548A7
:1020400003F012FD9DF8170007B05DF804FB00BF18
:102050000C000020D82601201FB5084C24680092EF
:10206000CDE901340A4601230146054803F0FCFC92
:10207000003018BF012004B010BD00BF0C000020CC
:10208000D826012002F080BD10B5064C0022204663
:10209000042103F0D3F9204601220421BDE81040B9
:1020A00003F0CCB90008024038B50B4C05460122BC
:1020B0004FF40051094803F0C1F9002204212046E1
:1020C00003F0BCF92846FFF79BFC204601220421BF
:1020D000BDE8384003F0B2B900080240000C0240ED
:1020E00038B50B4C054600224FF40051094803F067
:1020F000A5F900220421204603F0A0F92846FFF7A5
:102100007FFC204601220421BDE8384003F096B947
:1021100000080240000C0240F7B5144C144D07466D
:102120000E4620460022042103F088F900224FF4D5
:102130000051284603F082F93846FFF761FC0D4B49
:102140000D481B68324601A904F0E5FD284601222E
:102150004FF40051019E03F071F920460122042141
:1021600003F06CF9304603B0F0BD00BF0008024038
:10217000000C0240100000202C27012002F004BDBA
:102180000268034B9A4201D102F0ECBC704700BFD9
:10219000001000407047000082B00E4B00220092F9
:1021A000596C41F480415964596C01F480410091AB
:1021B00000990192196C41F0805119641B6C03F075
:1021C00080530193019B0F216FF0010002B002F0D8
:1021D00001BD00BF003802400268094B9A4282B03C
:1021E0000BD100230193074B1A6B42F480521A6300
:1021F0001B6B03F480530193019B02B0704700BF37
:10220000003002400038024007B50F4B02689A4286
:1022100016D10022A3F5F0430192196B41F400019D
:1022200019631B6B03F40003019305215A20019BE2
:1022300002F0D0FC5A2003B05DF804EB02F0FEBCC3
:1022400003B05DF804FB00BF00B002400268064B1B
:102250009A4207D1054A136B23F4000313635A20F3
:1022600002F0FABC704700BF00B0024000380240E4
:102270002DE9F043044689B01422002103A818F088
:102280003CFB2268244B9A4243D1244C244800252D
:102290000095236B43F004032363236B03F00403D3
:1022A0000093009B0195236B43F001032363236B91
:1022B00003F001030193019B4FF012094FF40073E7
:1022C0004FF001080327042603A9CDE90339CDE91E
:1022D0000587079602F0C6FF4FF4807303A91148E3
:1022E0000796CDE90339CDE9058702F0BBFF0295DA
:1022F000236C43F400032364236C03F40003029370
:10230000029B236A43F400032362236A23F400033D
:10231000236209B0BDE8F083005C00400038024051
:102320000008024000000240F0B504468DB01422BF
:10233000002107A818F0E1FA2268574B9A4240F0B2
:10234000A88003F55043002500955A6C534842F08D
:1023500080625A645A6C02F080620092009A019581
:102360001A6B42F020021A631A6B02F020020192EB
:10237000019A02951A6B42F001021A631A6B02F07D
:1023800001020292029A03951A6B42F002021A634A
:102390001A6B02F002020392039A04951A6B42F040
:1023A00040021A631A6B02F040020492049A0595E7
:1023B0001A6B42F004021A631A6B02F004020592CF
:1023C000059A06951A6B42F008021A631B6B03F01C
:1023D0000803069302240E26069B0A944FF480639A
:1023E00007A9CDE907340B9602F03CFF41F65803EC
:1023F00007A92B480B96CDE907340927CDE90954E5
:1024000002F030FF032307A926480B97CDE90734D4
:10241000CDE9095402F026FF4FF4706307A9214863
:102420000B96CDE90734CDE9095402F01BFF4FF4B8
:102430000C6307A91C480B96CDE90734CDE9095474
:1024400002F010FFC02307A918480B96CDE9073406
:10245000CDE9095402F006FF082307A914480B969A
:10246000CDE90734CDE9095402F0FCFE4FF4A05346
:1024700007A90D480B97CDE90734CDE9095402F0BF
:10248000F1FE58202A46052102F0A4FB582002F054
:10249000D5FB0DB0F0BD00BF006801400014024044
:1024A0000000024000040240001802400008024000
:1024B000000C024010B5044688B01422002103A885
:1024C00018F01BFA2268144B9A4223D103F5684393
:1024D000002101915A6C114842F480125A645A6CDE
:1024E00002F480120192019A02911A6B42F02002CA
:1024F0001A631B6B03F020030293029B4FF460727C
:1025000002230321CDE903230523CDE9061303A903
:1025100002F0A8FE08B010BD0050014000140240B7
:102520002DE9F04186B01422002101A818F0E5F948
:102530002B4B1C68002C4FD14FF00108C3F80080D2
:10254000284B00949A6B284842EA08029A639B6BD6
:1025500003EA08030093022703260C25009B01A928
:102560004FF63F03CDE90137CDE9046502F07AFE6D
:1025700001A91E480595CDE90187CDE9034602F082
:1025800071FE48F2331301A919480595CDE90137C9
:10259000CDE9034602F066FE4FF6837301A91548A4
:1025A0000595CDE90137CDE9034602F05BFE4CF21B
:1025B000037301A910480595CDE90137CDE903461C
:1025C00002F050FE602301A90C480595CDE90137C2
:1025D000CDE9034602F046FE06B0BDE8F08100BF3B
:1025E0000416002000380240001402400008024097
:1025F0000018024000100240000C0240000402409B
:1026000030B50368B3F1804F85B005462ED1002365
:10261000574A0093116C574CDFF87CE141F00101FF
:102620001164126C02F001020092009A4FF0C06235
:10263000C4E900E24022C4E902234FF480614FF470
:1026400080524FF48040C4E904124FF48072C4E910
:1026500006022046C4E9083302F038FB08B1FFF750
:1026600099FD2C622C63A56305B030BD424A9342AC
:102670002BD1002302F50D320193116C3F4C41F038
:1026800002011164126C3E4902F002020192019AA9
:102690004FF02062C4E9001240224FF48060C4E988
:1026A00002234FF40062C4E904024FF4005C4FF4CB
:1026B00080722046C4E906C2C4E9083302F006FB72
:1026C00008B1FFF767FDAC62CDE72E4A93422CD1EB
:1026D00002F50C3200230293116C2B4CDFF8BCC0C6
:1026E00041F004011164126C02F004020292029A99
:1026F0004FF08062C4E900C24022C4E902234FF4D3
:10270000806E4FF40062C4E904E24FF40052A2610B
:102710004FF48072C4E907236362204602F0D6FAC0
:1027200008B1FFF737FD6C629DE7184A93429BD1D1
:1027300002F50B3200230393116C154C41F0080194
:102740001164126C134902F008020392039A4FF0CD
:102750004062C4E900124022C4E902234FF48060C1
:102760004FF48052C4E904024FF48042CFE700BF27
:10277000003802407826012000040040B4290120DE
:102780008860024000080040982A0120000C0040A8
:102790005429012040600240B860024010600240AD
:1027A00010B514228AB0044600210DEB020018F087
:1027B000A4F82368B3F1804F14D100230193294B6F
:1027C0001A6B42F001021A631B6B03F001030193C1
:1027D000019B08210223CDE905130123099305A9D3
:1027E00021482AE0214A934210D1002302931D4B35
:1027F0001A6B42F001021A631B6B03F00103029390
:10280000029B8023059302230693E7E7184A93422D
:1028100017D100230393134B16481A6B42F008029A
:102820001A631B6B03F008030393039B4FF480525E
:102830000223CDE90523099305A902F013FD0AB08F
:1028400010BD0D4A9342FAD100230493054B1A6B35
:1028500042F001021A631B6B03F001030493049B13
:102860000123CFE70038024000000240000400408E
:1028700000080040000C0240000C004030B501464A
:1028800089B00022362002F0A5F9362002F0D6F9F0
:102890000025154B02951A6C144C42F010021A6474
:1028A0001B6C03F01003029301A903A8029B03F021
:1028B0003BFE03F029FE0E4B236040F2E733E3605A
:1028C00040000C4BB0FBF3F00138606020462561FE
:1028D000A56004F0A9FC20B9204604F041FB09B032
:1028E00030BD0120FBE700BF003802402C2B012047
:1028F0000010004040420F007047FEE7FEE7FEE791
:10290000FEE77047014804F07DBB00BF2C2B01207F
:10291000014803F0E7BA00BFAC280120014802F0EB
:10292000CDBB00BF182A01200120704708B517F061
:102930008DFF162303604FF0FF3008BD08B517F078
:1029400085FF16230360FEE770B50E4615460C465C
:10295000A31B9D4201DC284670BDAFF3008004F844
:10296000010BF5E770B50E4615460C46A31B9D42BC
:1029700001DC284670BD14F8010BAFF30080F5E7C9
:102980004FF0FF3070474FF400534B60002070470A
:10299000012070470020704708B50A4B19680246AD
:1029A00009B9094919601868694602448A4206D97A
:1029B00017F04CFF0C2303604FF0FF3008BD1A6086
:1029C000FCE700BF08160020B82B0120704710B5A7
:1029D0000421044617F0DCFE204610BD012908B58D
:1029E00008D003D3022909D0002002E000F072FFD2
:1029F000006808BD00F06EFF4068FAE700F06AFF6B
:102A00008068F6E70048704784BD01080F207047D2
:102A100013B5002249B102AB019203F8052D0268FB
:102A2000946801AAA04702B010BD0846FBE74089A0
:102A30007047808970478088704783798088184400
:102A400080B27047C07900F07F007047C079C0093C
:102A50007047704710B50821044617F099FE2046CC
:102A600010BD704700F596730868496803C3704746
:102A70007047704741607047704701230372704789
:102A800070477047704770477047704730B4C568EB
:102A900044686A100346ED0704EB02009B6848BFD8
:102AA000A25830BC48BFD358184743682BB183683D
:102AB0002BB9C06800F0010070471846704701202C
:102AC000704730B4C56844686A100346ED0704EBEC
:102AD00002009B6848BFA25830BC48BFD358184773
:102AE00043682BB183682BB9C06800F001007047C0
:102AF000184670470120704710B4C46841686210DE
:102B00000346E40701EB02009B6848BF8A585DF862
:102B1000044B48BFD358184743682BB183682BB97F
:102B2000C06800F0010070471846704701207047E8
:102B300010B50C21044617F02BFE204610BD10B531
:102B40004FF4AC71044617F023FE204610BD10B5BB
:102B50001021044617F01CFE204610BD10B554216C
:102B6000044617F015FE204610BD10B5102104468E
:102B700017F00EFE204610BD10B55421044617F084
:102B800007FE204610BD10B51021044617F000FEC8
:102B9000204610BD10B50AF04DF90368BDE810409D
:102BA0001B6B1847034610B49A6B8A42084618D02C
:102BB00093F84C20032A12D8DFE802F00B0B020234
:102BC0000268B3F95210546D002223465DF8044B9D
:102BD000184702680021546DB3F95220F5E701222D
:102BE0001A725DF8044B7047034610B49A6B8A4220
:102BF000084618D093F84C20032A12D8DFE802F0D8
:102C00000B0B02020268B3F95210546D00222346E6
:102C10005DF8044B184702680021546DB3F9522047
:102C2000F5E701221A725DF8044B7047054B1B78DB
:102C30003BB143682BB11A6800F10C01526E184683
:102C400010477047BB230120034B1A880368524288
:102C50005B6D12B200211847B223012090F84C207E
:102C600010B40B46032A22D8DFE802F0151A020D31
:102C700010491A68B1F90010546D00221846234615
:102C80005DF8044B18470B4A11881A684942546D85
:102C900009B20022F2E718465DF8044BFFF7D4BFF3
:102CA0001A68546D044A0021B2F90020E6E75DF885
:102CB000044B7047B0230120B2230120054B1B7841
:102CC0003BB143682BB11A6800F10C01526E1846F3
:102CD00010477047BB23012090F84C2010B40B46DE
:102CE000032A22D8DFE802F0151A020D10491A68EB
:102CF000B1F90010546D0022184623465DF8044BCC
:102D000018470B4A11881A684942546D09B20022CB
:102D1000F2E718465DF8044BFFF796BF1A68546D4A
:102D2000044A0021B2F90020E6E75DF8044B704741
:102D3000B0230120B2230120294B1B7810B5044693
:102D400013B90123037210BD90F84E0094F84D3072
:102D50000130C0B2984284F84E0018D8B4F950201F
:102D600000210BF0F3F983B213F0010215D04FF6F6
:102D7000FF710028D8BF0A461344A4F8523094F8D3
:102D80004C30032B29D8DFE803F01F1F0B0B012366
:102D90002372002384F84E30D5E7A4F85200EEE702
:102DA000B4F85210238AC91A09B2A4F852100022AA
:102DB00004F10C000AF03DFD6068036804F13C0179
:102DC0009B6FBDE810401847B4F85220638AD21AAE
:102DD00012B2A4F852200021EAE701232372EBE7A4
:102DE000BB230120294B1B7810B5044613B90123DE
:102DF000037210BD90F84E0094F84D300130C0B20F
:102E0000984284F84E0018D8B4F9502000210BF0F5
:102E10009DF983B213F0010215D04FF6FF7100281F
:102E2000D8BF0A461344A4F8523094F84C30032B10
:102E300029D8DFE803F01F1F0B0B012323720023A7
:102E400084F84E30D5E7A4F85200EEE7B4F85210FB
:102E5000238AC91A09B2A4F85210002204F10C0006
:102E60000AF0E7FC6068036804F13C019B6FBDE871
:102E700010401847B4F85220638AD21A12B2A4F84C
:102E800052200021EAE701232372EBE7BB23012054
:102E900010B50446D0F83C0158B10368DB68984788
:102EA00038B1D4F83C0103689B6898470023C4F804
:102EB0003C3110BD1FB50C4B1B7804468BB10B4B3E
:102EC0001C22CDE900300123CDE9022340680368CC
:102ED00069469B6F98476068036804F10C011B6E9C
:102EE000984704B010BD00BFBB2301208CBF010870
:102EF0001FB50C4B1B7804468BB10B4B1C22CDE944
:102F000000300123CDE902234068036869469B6FC6
:102F100098476068036804F10C011B6E984704B081
:102F200010BD00BFBB23012048BF0108F8B504460F
:102F300017460E4609F09EFF144BC4F854611C60FE
:102F4000134E144B236000253068C4F84851C4F870
:102F50004C51114BC4F840310368C4F838519B6898
:102F6000C4F83C510121C4F84451C4F85071984749
:102F7000284600F065FC336893F876200AB1D86CD7
:102F800000B9986810F081FB2046F8BD2824012084
:102F9000BC230120E0BE0108C8BE0108064BC0F8F2
:102FA00048310023C0F84C3100F5A073C0F844014B
:102FB000C0F83C31704700BF3D310008064BC0F8F7
:102FC00048310023C0F84C3100F5A073C0F844012B
:102FD000C0F83C31704700BF35330008064BC0F8DD
:102FE00048310023C0F84C3100F5A073C0F844010B
:102FF000C0F83C31704700BF2D3500082DE9F0477F
:1030000007469068DDF820A0994603681B6A884649
:1030100015469847B0F5AA6F05D2424B424AA72100
:10302000424817F0E1FB686803681B6A98470F285D
:1030300003D83F4B3C4AA821F2E7E86803681B6AC3
:1030400098470B2803D83B4B374AA921E8E709F0FA
:10305000F1FE09F0F5FED9F8000010B10368DB6855
:103060009847D9F8000010B103681B689847386882
:1030700010B103685B699847D8F8000010B1036885
:103080005B689847386810B103681B689847D8F8A0
:10309000000010B103689B689847E8680368002146
:1030A0005B6A9847044620B1002343600372224BB9
:1030B0000360A868036800215B6A9847064608B168
:1030C00001F024FA6868036800215B6A98470546A6
:1030D00010B1314601F0A0F9C9F80040C8F800501D
:1030E0003E60E5B12B1DCAF800303368C5F808A072
:1030F0003046F563DB6898472B6828461B6898477D
:10310000214630460BF01CF8236820461B6998477F
:10311000236820465B6998472846BDE8F0872B4620
:10312000E1E700BFC8BF0108E3C1010856C00108BC
:103130009DC0010840C1010824BF010807B5D0F8AF
:1031400054310093D0F85021044B00F59C71044891
:10315000FFF754FF03B05DF804FB00BF1C240120FF
:10316000182401202DE9F74F074690689946036817
:103170001B6A884615469847B0F5AA6F05D2634B7F
:10318000634AA721634817F02FFB686803681B6A2E
:1031900098470F2803D8604B5D4AA821F2E7E868FA
:1031A00003681B6A9847532803D85C4B584AA921E7
:1031B000E8E709F03FFE09F043FED9F8000010B13E
:1031C0000368DB689847D9F8000010B103681B68F2
:1031D0009847386810B103685B699847D8F80000D1
:1031E00010B103685B689847386810B103681B68C2
:1031F0009847D8F8000010B103689B689847E868C2
:10320000036800215B6A9847044600283ED0824646
:1032100000224349426002724AF80C1B5046019258
:1032200008F0DAF83F49019AC4F838A0C4E90F144D
:1032300020230121C4E91131032184F84C10142109
:1032400084F84D10384984F84E200978A4F85220AB
:10325000E1B1DFF8DCB0354EBBF90000B6F9001083
:10326000A0822261E182504608F031F894F84C3097
:10327000032B45D8DFE803F040420206BBF80030DC
:103280005B4201E0BBF80030A4F85030A868036846
:1032900000215B6A9847064608B101F037F9686873
:1032A000036800215B6A9847054610B1314601F07A
:1032B000B3F8C9F80040C8F800503E601DB32B1D9C
:1032C0000C9A13603368AA603046F563DB68984750
:1032D0002B6828461B689847214630460AF030FF85
:1032E000236820461B699847236820465B699847F6
:1032F000284603B0BDE8F08F3388C5E73388BFE7C1
:1033000001232372C2E72B46DAE700BFC8BF0108DA
:10331000EDC2010856C001089DC0010840C1010866
:10332000A4BF01088CBF0108BB230120B2230120E8
:10333000B023012007B5D0F854310093D0F85021C4
:10334000044B00F59C710448FFF70CFF03B05DF8D7
:1033500004FB00BF1C240120182401202DE9F74F95
:1033600007469068994603681B6A88461546984741
:10337000B0F5117F05D2634B634AA721634817F06C
:1033800033FA686803681B6A98470F2803D8604BB4
:103390005D4AA821F2E7E86803681B6A984753284A
:1033A00003D85C4B584AA921E8E709F043FD09F02E
:1033B00047FDD9F8000010B10368DB689847D9F8D9
:1033C000000010B103681B689847386810B10368A3
:1033D0005B699847D8F8000010B103685B689847AC
:1033E000386810B103681B689847D8F8000010B11E
:1033F00003689B689847E868036800215B6A984700
:10340000044600283ED082460022434942600272B0
:103410004AF80C1B5046019207F0DEFF3F49019A23
:10342000C4F838A0C4E90F1420230121C4E91131E4
:10343000022184F84C10142184F84D10384984F886
:103440004E200978A4F85220E1B1DFF8DCB0354E07
:10345000BBF90000B6F90010A0822261E18250465B
:1034600007F035FF94F84C30032B45D8DFE803F024
:1034700040420206BBF800305B4201E0BBF800307E
:10348000A4F85030A868036800215B6A9847064694
:1034900008B101F095F86868036800215B6A9847F5
:1034A000054610B1314601F071F8C9F80040C8F87E
:1034B00000503E601DB32B1D0C9A13603368AA6048
:1034C0003046F563DB6898472B6828461B689847A9
:1034D000214630460AF034FE236820461B6998478F
:1034E000236820465B699847284603B0BDE8F08F03
:1034F0003388C5E73388BFE701232372C2E72B4631
:10350000DAE700BFC8BF010812C4010856C00108AD
:103510009DC0010840C1010860BF010848BF010803
:10352000BB230120B2230120B023012007B5D0F82E
:1035300054310093D0F85021044B00F59C7104489D
:10354000FFF70CFF03B05DF804FB00BF1C24012053
:1035500018240120006A704770478B8880690A68C8
:10356000DB0A50F823001044704710B5C2B1137B3A
:10357000B3B1547BD27A240204F4E0641443C269E8
:1035800098B202EB840213888B4202D192F90200B6
:1035900010BD05D8013880B204320028F3D1F7E716
:1035A0000020F5E710B52421044617F0F1F8204675
:1035B00010BD000030B589B00446BDF850500695E6
:1035C000BDF84C5005959DF8405004959DF83C5031
:1035D00003959DF8385002959DF8345001959DF85B
:1035E000305000950AF0B0F9054B2360119BA361A0
:1035F000129BE361159B2362204609B030BD00BFDA
:1036000048C501087047000030B5144D2C78BFF351
:103610005B8F14F001048BB01DD1284617F0BAF867
:10362000C8B13F2307930E4B06930E4B0E490394EC
:103630000122CDE904430423CDE90132CDE9084458
:103640000A2300940948FFF7B5FF284617F0AEF8A3
:10365000074817F0E7F805480BB030BD0C160020FE
:1036600008FD010894C501087CFB01081016002024
:10367000053600087047000030B5154D2C78BFF3B3
:103680005B8F14F001048BB01ED1284617F082F82E
:10369000D0B13F2307930F4B06930F4B05930123A4
:1036A000CDE9034302930423CDE900331A22142306
:1036B0000A490B48CDE90844FFF77CFF284617F07C
:1036C00075F8084817F0AEF805480BB030BD00BFDC
:1036D000341600200CFD010898C501088CFB010878
:1036E00038160020753600087047000030B5144DBC
:1036F0002C78BFF35B8F14F001048BB01DD12846EA
:1037000017F048F8C8B13F2307930E4B06930E4BB2
:103710000E4903940122CDE904430423CDE901328B
:10372000CDE90844282300940948FFF743FF2846C1
:1037300017F03CF8074817F075F805480BB030BD96
:103740005C16002018FD01089CC50108F8FC010862
:1037500060160020E9360008002070470EB403B55B
:1037600003AB002153F8042B019309F029FF02B0A9
:103770005DF804EB03B070470CB407B504AB53F825
:10378000042B019309F01CFF03B05DF804EB02B0B9
:1037900070470000C36B10B5044673B3038E2BB99A
:1037A000184B194AC021194817F01EF8C38D00EBB9
:1037B00043035B8B0BB30BF051FA238E012B03D821
:1037C000134B144AC521EEE7E28D531C9BB2092B23
:1037D000194688BFA3F10A0104EB410140F63F10EE
:1037E000498B814209D10A2B04EB420228BF0023F6
:1037F00004EB4303508B588351832046BDE81040AF
:103800000BF010B9A0C50108D3C60108A9C501086D
:10381000F3C5010801C601080BF0BEB810B586B0AB
:1038200002AC84E806001A460AAB05930193099B93
:1038300000932146089B08F00CFF06B010BD000065
:1038400038B5D8B9114B12481B681249BBB11A6878
:103850009C681A4402605A681A440A601C446CB19D
:103860000D4B00221A8000F035F8054600F030F8C4
:103870000A4B1C600A4B1D600A4B188038BD0A4B6E
:1038800003600A4B0B600A4B1C68E8E784160020B3
:10389000881600208C160020901600202C24012071
:1038A000342401203024012034FD01081CFD0108CE
:1038B000B0FD0108044B1B6853F82100034B1B6843
:1038C00003EB4000704700BF8C16002088160020D4
:1038D00006207047004870479416002010B5FFF787
:1038E000CBFE044C2060FFF701FF6060FFF78CFE09
:1038F000A06010BD9416002070B51E460368BDF987
:1039000010505B6B044698472368314620469A6BFB
:103910009047236829462046DB6BBDE87040184776
:1039200081807047C180704770B503680446DB6AC8
:10393000154698472368294620461B6BBDE8704012
:103940001847018170474181704770477047704741
:1039500070477047C388D21A8388C91A036810B4A5
:103960005B6D5DF8044B12B209B218474FF6FF7356
:1039700083814FF0FF3303621368C36110607047A7
:103980007047704770477047704790F825201AB10C
:1039900090F8242002B11860704770477047704754
:1039A0007047704770477047704770B4C668456885
:1039B00074100346F60705EB04009B6844BF2C59BE
:1039C000E35870BC184743682BB183682BB9C068B3
:1039D00000F001007047184670470120704730B46E
:1039E000C56844686A100346ED0704EB02009B6853
:1039F00048BFA25830BC48BFD358184743682BB1C2
:103A000083682BB9C06800F0010070471846704702
:103A10000120704710B51021044616F0B9FE20466B
:103A200010BD10B51021044616F0B2FE204610BDA0
:103A300010B54FF4AA61044616F0AAFE204610BD48
:103A400010B40C46114600F5A672944204D10368E6
:103A50001B6B5DF8044B184700F51272944202D1BB
:103A60000368DB6AF5E700F55172944202D10368FE
:103A70009B6BEEE75DF8044B704700F19C029142AE
:103A800010B504D10368BDE810405B6B184700F225
:103A9000F443994205D109F0CDF9BDE81040FFF794
:103AA0009DBA10BD094A026000228280C280028154
:103AB00042818281C28102824282C0E90522C261C2
:103AC00080F82420012280F8252070475CDF01085F
:103AD00010B526220446002116F00FFF2046FFF7FE
:103AE000E1FF094B2360094BA3624FF6FF73A385E7
:103AF0004FF47F020023C4E90C3284F8383084F894
:103B00003930204610BD00BF74DA0108B8BE010884
:103B100013460C4A70B5146805462CB90A4B0B4A7B
:103B20000B48352116F060FE94F876200AB1E06C5F
:103B300000B9A0680268946A0A46A4462946BDE80E
:103B400070406047BC230120B0C701087CC8010851
:103B5000F3C701082DE9F04F044695B00AF074F957
:103B600022460025DF4BE56342F8403B4FF0260933
:103B700013462946059218464A4616F0BEFE059899
:103B8000FFF790FFD84B236414AE04F170034FF09D
:103B9000FF084FF6FF774A46294684F86680A566F7
:103BA00084F86C50184626F8087D039316F0A5FE9D
:103BB0000398FFF777FFCD4B2367A4F8967084F83E
:103BC00098703146039808F0DCF804F19C034A46EB
:103BD00029461846049316F090FE0498FFF762FFFA
:103BE0004FF0010384F8C030C14BC4F89C3004F19D
:103BF000D403C4F8C45084F8C850A4F8CA70A4F818
:103C0000CC7084F8CE80A4F8D07018460693FFF7E5
:103C10005FFF04F5887304F5A67B184604F5127A55
:103C20000793FFF755FF584604F5517906F0ECFB72
:103C3000504606F0E9FB484606F0E6FB04F58863CB
:103C400018460893FFF744FF04F27C431846099393
:103C5000FFF73EFF04F5976318460A93FFF738FF16
:103C600004F2F44318460B9308F066F8A14BC4F82D
:103C70003035A14BC4F83835A04BC4F84035A04BC3
:103C8000C4F848354FF4A073C4F83C55C4F84C55FB
:103C900000932A46F02329460598C4F83445C4F811
:103CA0004445FFF729FE2A4629462846FFF730FFFC
:103CB0002A46A06629460398924FFFF735FE314603
:103CC0000398ADF8485008F05CF80498C1224821E8
:103CD000FFF72AFE0C23ADF844300D23A4F8D030B2
:103CE000324611A90498ADF8483007F0C3FD04F539
:103CF000A663C4F8C43006980D930F221721FFF76E
:103D000013FE2A4629462846FFF702FFA4F8085169
:103D1000C4F8040131460698ADF84C50129707F0EC
:103D200067FD079880223D21FFF7FEFD2A462946C0
:103D30002846FFF7EDFE4FF00103C4F84001A4F858
:103D4000445131460798ADF84C30129707F050FDBA
:103D5000584634221721FFF7E7FD11A94FF00A0258
:103D60004FF00B08ADF8482033460A46584610A9D4
:103D7000ADF84080ADF8448006F09AFB7D212B46DB
:103D8000CDE9005158460322072106F037FA642294
:103D90002946584606F031F92946584606F0B9F842
:103DA00004F5A8610C91C4F84412504640F2051283
:103DB0001F21FFF7B9FD0923ADF84030ADF84430BD
:103DC00011A90823ADF848300A46334610A95046D9
:103DD00006F06EFB7D212B46CDE9005150460722AF
:103DE000032106F0A7F964222946504606F005F99A
:103DF0005046322106F08DF80C9BC4F840334846FB
:103E00003422B721FFF790FD4FF00A02ADF84820A9
:103E1000334611AA10A94846ADF84080ADF8448059
:103E200006F046FB7D222B46CDE900524846032290
:103E3000072106F0E3F964222946484606F0DDF83A
:103E40002946484606F065F80C9BC4F83C340898AF
:103E5000EF221521FFF768FD2A4629462846FFF77D
:103E600057FE4FF00208C4F87004A4F874543146A9
:103E700008981297ADF84C8007F0BAFC0998EF2229
:103E8000AE21FFF751FD2A4629462846FFF740FE9E
:103E90000323C4F8AC04A4F8B05431460998ADF833
:103EA0004C30129707F0A4FC0A9840F227126021C8
:103EB000FFF73AFD2A4629462846FFF729FE042344
:103EC000C4F8E804A4F8EC5431460A98ADF84C3034
:103ED000129707F08DFC0B9834225A21FFF724FD2E
:103EE00012E000BF40C8010820DB010874DD0108B2
:103EF000D4D8010888C701087B3A0008A0C7010888
:103F0000413A0008B8BE01084FF0010310AA0E257F
:103F1000ADF83C300FA911AB0B980096ADF84450AA
:103F2000ADF84850ADF8408007F062FE0D9BA4F854
:103F30002C55A4F82E55251DC4F81C350599284686
:103F400005F0A8FE0399284605F0A4FE049928462A
:103F500005F0A0FE0699284605F09CFE0799284624
:103F600005F098FE5946284605F094FE514628462D
:103F700005F090FE4946284605F08CFE0899284633
:103F800005F088FE0999284605F084FE0A9928461E
:103F900005F080FE28460B9905F07CFE204615B002
:103FA000BDE8F08F704770477047704770477047A3
:103FB000704730B4C56844686A100346ED0704EBE7
:103FC00002009B6848BFA25830BC48BFD35818476E
:103FD00043682BB183682BB9C06800F001007047BB
:103FE000184670470120704710B51021044616F09E
:103FF000CFFB204610BD10B54FF41171044616F0EA
:10400000C7FB204610BD00F1C802914210B505D192
:1040100008F010FFBDE81040FEF7D0BF00F5827237
:10402000914204D103689B6BBDE81040184700F52E
:10403000A072914202D103685B6BF5E700F5BE7296
:10404000914202D103681B6BEEE700F5DC729142EE
:1040500002D10368DB6AE7E710BD00002DE9F04FED
:1040600004468FB0A146002509F0EEFECA4BE56379
:1040700049F8403B4FF0260842462946484616F08C
:104080003CFC4846FFF70EFDC44B23640EAE04F122
:10409000700BFF2342464FF6FF7784F866302946BF
:1040A000A56684F86C50584626F8087D16F025FC65
:1040B0005846FFF7F7FCBA4B23673146A4F89670D1
:1040C00084F89870584607F05CFE04F19C0318468B
:1040D0000793FFF7E7FCB34BC4F89C3004F1C80327
:1040E000C4F8C4501846029307F026FE04F5827304
:1040F0001846039307F020FE04F5A07318460493B6
:1041000007F01AFE04F5BE731846059307F014FE77
:1041100004F5DC7304F5FA7A1846069307F00CFEF2
:1041200042462946504616F0E8FB5046FFF7BAFCD7
:104130009D4BC4F81C324FF47F03C4F828329B4BCC
:10414000C4F8F4319A4BC4F834329A4BC4F83C3278
:104150004FF4A073A4F82072C4F8245284F82C52AF
:1041600084F82D52C4F83052C4F8405200932A46C5
:10417000F02329464846C4F83842FFF7BDFB2A46DB
:1041800029462846FFF7C4FC2A46A0662946584619
:10419000FFF7CAFB31465846ADF8305007F0F1FD45
:1041A000C82300932946F02307983C22FFF7A4FB7D
:1041B000294602984FF48272FFF7B6FB04230BA93D
:1041C000ADF82C30ADF830304FF001020B460AA9A3
:1041D0004FF00208ADF82420029800960A4609A97B
:1041E00004F50D77ADF8288007F002FD16234FF097
:1041F0000F01A4F80031A4F802112A460398C4F86C
:10420000F070B421FFF790FB07230BA8ADF82C301A
:10421000ADF830304FF0010203460AA8ADF8242073
:10422000024609A8014600960398ADF8288007F0D9
:10423000DFFC4FF01000A4F83C01A4F83E01C4F8E4
:104240002C7104984FF482725A21FFF76DFB0323FF
:104250000DF12C0CADF82C30ADF830304FF00102E0
:1042600063460DF1280CADF8242062460DF1240CB4
:10427000614604980096ADF8288007F0B9FC4FF02D
:104280001000A4F87801A4F87A01C4F868710598C0
:104290004FF48272B421FFF747FB06230BA8ADF859
:1042A0002C30ADF830304FF0010203460AA8ADF8CB
:1042B0002420024609A8014600960598ADF82880FA
:1042C00007F096FC14234FF00F01A4F8B431A4F8C2
:1042D000B6112A4629460698C4F8A471FFF724FBB4
:1042E0004FF00102ADF8242009A80BAA1346ADF83F
:1042F00028800AAA4FF00508014600960698ADF8F6
:104300002C80ADF8308007F073FC4FF00F01A4F85B
:10431000F011A4F8F2115046C4F8E07112225F21A6
:10432000FFF702FB2A4629462846FFF7F1FB1E4B02
:10433000C4F82402A4F828523146251D50460C9397
:10434000ADF8348007F054FA4946284605F0A2FC3F
:104350005946284605F09EFC0799284605F09AFC28
:104360000299284605F096FC0399284605F092FC30
:104370000499284605F08EFC0599284605F08AFC2C
:104380000699284605F086FC2846514605F082FC31
:1043900020460FB0BDE8F08FF8C8010820DB010807
:1043A00074DD010840CD0108B8BE010820DC010819
:1043B000E0C8010807400008704710B54FF4AC7121
:1043C000044616F0E5F9204610BD10B50446D0F8B5
:1043D000540100F012F82046BDE8104008F002BC7D
:1043E00010B50446FEF7A2FD014B2360204610BD28
:1043F0003CC90108002202607047704770470438CA
:104400007047704710B51021044616F0C1F92046D8
:1044100010BDA0F10400F5E710B500228260044A47
:10442000C16002F1080420320460426010BD00BF88
:1044300078C901087047704701EBC101024B01F2D6
:1044400013111960704700BF180000200000000021
:1044500007EE901AF8EEE77A08B517EE900AFCF727
:104460007BF809A3D3E90023FCF7CEF8044B002224
:10447000FBF714FFFCF7DAFA024B186008BD00BF27
:1044800000508A401C0000203D0AD7A3703D144014
:1044900007EE901AF8EEE77A08B517EE900AFCF7E7
:1044A0005BF809A3D3E90023FCF7AEF8044B002224
:1044B000FBF7F4FEFCF7BAFA024B186008BD00BF28
:1044C00000508A40200000205C8FC2F5285C0B4021
:1044D000074B084A197829B140F2131111600022E4
:1044E0001A7070474FF42F7111600122F8E700BF76
:1044F000A016002014000020FFF754BA10B54FF4A6
:10450000AA61044616F044F9204610BD10B50446D1
:10451000FFF720FB0D4B23600D4A0E4801230C21B1
:1045200003F082F801230C4A0C48042103F07CF8C4
:1045300001230B4A0B48002103F076F801230A4AB5
:104540000A48002103F070F8204610BDA8C90108F0
:1045500018000020582A01201C0000206C2801208F
:104560002000002084270120140000202C28012096
:10457000704704387047704710B51021044616F094
:1045800007F9204610BDA0F10400F5E710B50022A0
:104590008260044AC16002F1080420320460426073
:1045A00010BD00BFE4C9010870477047FFF7FFBCAA
:1045B00010B54FF41171044616F0EAF8204610BD0C
:1045C00010B50446FFF74AFD014B2360204610BD9D
:1045D00014CA0108F02070474FF4A07070472920DA
:1045E000FDF77EBD2820FDF77BBD08B5FDF74CFD2E
:1045F000CA20FDF775FDC320FDF756FD0820FDF725
:1046000053FD5020FDF750FDCF20FDF769FD002040
:10461000FDF74AFDC120FDF747FD3020FDF744FDC1
:10462000ED20FDF75DFD6420FDF73EFD0320FDF765
:104630003BFD1220FDF738FD8120FDF735FDE82018
:10464000FDF74EFD8520FDF72FFD0020FDF72CFD29
:104650007820FDF729FDCB20FDF742FD3920FDF73D
:1046600023FD2C20FDF720FD0020FDF71DFD34204B
:10467000FDF71AFD0220FDF717FDF720FDF730FDCD
:104680002020FDF711FDEA20FDF72AFD0020FDF7AF
:104690000BFD0020FDF708FDB120FDF721FD0020F6
:1046A000FDF702FD1B20FDF7FFFCB620FDF718FD0E
:1046B0000A20FDF7F9FCA220FDF7F6FCC020FDF76B
:1046C0000FFD1020FDF7F0FCC120FDF709FD1020C3
:1046D000FDF7EAFCC520FDF703FD4520FDF7E4FCEE
:1046E0001520FDF7E1FCC720FDF7FAFC9020FDF74F
:1046F000DBFC3620FDF7F4FCC820FDF7D5FCF220EA
:10470000FDF7EEFC0020FDF7CFFCB020FDF7E8FC44
:10471000C220FDF7C9FCB620FDF7E2FC0A20FDF738
:10472000C3FCA720FDF7C0FC2720FDF7BDFC04203B
:10473000FDF7BAFC2A20FDF7D3FC0020FDF7B4FCFE
:104740000020FDF7B1FC0020FDF7AEFCEF20FDF7E7
:10475000ABFC2B20FDF7C4FC0020FDF7A5FC0020DE
:10476000FDF7A2FC0120FDF79FFC3F20FDF79CFC1C
:10477000F620FDF7B5FC0120FDF796FC0020FDF7C3
:1047800093FC0620FDF790FC2C20FDF7A9FCC82027
:10479000FDF7F4FC2620FDF7A3FC0120FDF784FCC7
:1047A000E020FDF79DFC0F20FDF77EFC2920FDF7A2
:1047B0007BFC2420FDF778FC0C20FDF775FC0E2017
:1047C000FDF772FC0920FDF76FFC4E20FDF76CFC35
:1047D0007820FDF769FC3C20FDF766FC0920FDF719
:1047E00063FC1320FDF760FC0520FDF75DFC17203E
:1047F000FDF75AFC1120FDF757FC0020FDF754FC93
:10480000E120FDF76DFC0020FDF74EFC1620FDF7C2
:104810004BFC1B20FDF748FC0420FDF745FC112054
:10482000FDF742FC0720FDF73FFC3120FDF73CFC83
:104830003320FDF739FC4220FDF736FC0520FDF75B
:1048400033FC0C20FDF730FC0A20FDF72DFC28205E
:10485000FDF72AFC2F20FDF727FC0F20FDF724FC95
:104860001120FDF73DFCC820FDF788FC2920FDF74D
:1048700037FC2C20BDE80840FDF732BC08B5FDF739
:1048800003FC0321D320FDF747FC80B208BD10B51F
:10489000C4B2022203212046FDF7AEFB0A20FDF739
:1048A000F1FB204600220321FDF7A6FB0220BDE814
:1048B0001040FDF7E7BB38B50446E4B2FDF79AFBBC
:1048C00000212046FDF7AEFB012105462046FDF7FD
:1048D000A9FB40EA052080B238BD10B5C4B2402122
:1048E0002046FDF79FFB030607D54C212046FDF728
:1048F00099FB003018BF012010BD01224B2120463A
:10490000FDF77AFB204600224B21FDF775FB0020C6
:10491000F2E773B50423C4B20E461546D7210DEB5A
:1049200003022046FDF798FB019B1BBA1A0DC3F347
:104930000B23328020462B8001224B21FDF75CFBAC
:1049400000224B212046FDF757FB02B070BD00004E
:1049500010B50A4A1378984204460DD0517888421F
:104960000AD00BB141B90123D454FDF743FB2046D3
:10497000BDE81040FFF78BBF10BD00BFA11600209F
:1049800010B5C4B209212046FDF74CFB40F00102EE
:10499000D2B220460921BDE81040FDF72DBB10B56D
:1049A000C4B209212046FDF73DFB092100F0FE02BB
:1049B0002046BDE81040FDF71FBB38B5C5B20C4618
:1049C00028460A21FDF72EFB40EA0402D2B228460F
:1049D0000A21BDE83840FDF70FBB10B50446FDF7CE
:1049E0000AFB20461F21FFF7E8FF2046BDE81040E4
:1049F000FFF7C6BF38B5C5B20C4628460A21FDF7F9
:104A000011FB20EA0402D2B228460A21BDE8384050
:104A1000FDF7F2BA10B50446FFF7C1FF20461F218B
:104A2000BDE81040FFF7E6BF10B5C0B20C460B2141
:104A3000FDF7F8FA204010BD1F21FFF7F5BF0A4629
:104A4000C0B20B21FDF7D8BA1F21FFF7F8BF38B568
:104A5000C5B20C4628461721FDF7E4FA20EA040205
:104A6000D2B228461721BDE83840FDF7C5BA70B567
:104A7000C4B2064604212046FDF7D4FA042100F012
:104A8000FB0205462046FDF7B7FA3046F021FFF756
:104A9000DEFF05F0F80220460421FDF7ADFA4922B9
:104AA00020212046FDF7A8FA0220FDF7EBFA204668
:104AB00001222121FDF7A0FA20469A224121FDF78B
:104AC0009BFA204601224A21FDF796FA2046012250
:104AD0004B21FDF791FA204600224B21FDF78CFA7D
:104AE000204601225621FDF787FA2046012258214F
:104AF000FDF782FA204601224021FDF77DFA20468B
:104B0000FF220B21FDF778FA0220BDE87040FDF787
:104B1000B9BA0000054BD3F8882042F47002C3F8FC
:104B200088204FF000629A60704700BF00ED00E0FF
:104B300008B50B4B1A6842F400721A601A6842F406
:104B400080621A601A6842F480721A60032000F0D2
:104B50002FF80020FDF792FEFDF71EFB002008BD98
:104B6000003C0240034A044B11681B780B4413605D
:104B7000704700BF6C2B012088000020014B186893
:104B8000704700BF6C2B012038B50446FFF7F6FFD5
:104B9000631C1CBF054B1B78054618BFE418FFF7C4
:104BA000EDFF401BA042FAD338BD00BF88000020B3
:104BB000074AD36823F4E0631B041B0C43F0BF6374
:104BC000000243F4003300F4E0600343D360704715
:104BD00000ED00E0174B70B5DC68C4F30224C4F1AB
:104BE0000705042D04F1040328BF04254FF0FF3608
:104BF000062B06FA05F38CBF033C002421EA0303CD
:104C0000A34006FA04F422EA0404002843EA040359
:104C1000A8BF00F160404FEA0313BCBF00F00F00D3
:104C2000054ADBB2AABF00F56140135480F8003397
:104C300070BD00BF00ED00E014ED00E0002808DBCF
:104C40004209012300F01F0003FA00F0014B43F872
:104C50002200704700E100E000280DDB430901223B
:104C600000F01F0002FA00F02033044A42F823004B
:104C7000BFF34F8FBFF36F8F704700BF00E100E0BD
:104C800010B5044650B1437903F0FF0213B9027125
:104C9000FDF7A2FA01236371002010BD0120FCE79B
:104CA0000368DAB223F47F7323F003031821103A68
:104CB000B2FBF1F20449032A88BF0433895C83659F
:104CC000C165806D704700BF68CA010870B50446B1
:104CD000FFF754FF0546002C71D0002384F83430D0
:104CE0002268022384F83530136823F0010313602F
:104CF00021680B68D8073CD40B68324DA0691D4071
:104D0000D4E901231343E268134322691343626920
:104D10001343E26903431343226A1343626A042A7A
:104D200043EA050302BFD4E90B5635432B430B601E
:104D30004B69042A23F0070343EA02030BD1A26A5A
:104D4000E56A13433DB1F8B9012A2DD001D3022AF7
:104D500001D1EA012BD44B612046FFF7A1FFE26DA0
:104D60003F239340836000200123606584F8353041
:104D700009E0FFF703FF401B0528B9D9202363652D
:104D8000032084F8350070BDB0F5005F13D1032A0D
:104D9000E1D801A050F822F0AF4D0008534D0008B3
:104DA000AF4D0008A94D0008B5F1C07FD3D1402315
:104DB00063650120E5E7022AF9D9032AC8E7012043
:104DC000E1E700BF3F8010F070B590F83440012C4F
:104DD00032D0012480F8344090F83540866D012CA3
:104DE0004FF000054FF0020424D180F835400468EC
:104DF0004565256825F48025256063608368402B20
:104E00000EBFA260A160E260C26D08BFE1603F23F7
:104E10009340B360236843F016032360036C1BB117
:104E2000236843F008032360236843F001032360F1
:104E3000002070BD80F834500220FAE770B5046895
:104E4000049D666C45EA034306F0404633436364C1
:104E50004368E263B3F5403F30D186681EB1012E4E
:104E600003D121F07F41A16370BD022E01F47F03C5
:104E700001F47F45C8B207D1D90CAD0AC90241EA95
:104E8000451141EAD001EEE7032E01F07F420AD13D
:104E9000DB0CED0A9B0243EA451343EAD003D10F32
:104EA00043EAC131DFE7190D2D0B090241EA051173
:104EB00041EA1011130F41EA0331D4E7E160D3E76F
:104EC00010B5044630B390F8393003F0FF021BB937
:104ED00080F83820FDF798F922686168022384F889
:104EE0003930136823F440330B431360536BA168CC
:104EF00023F007030B435363136CE16823F47F53E0
:104F000023F03F030B43136400200123E06384F884
:104F1000393010BD0120FCE773B590F83840012C02
:104F200005464FF0020413D080F839400126069C54
:104F300080F838600094FFF781FF2B681A6842F40C
:104F40000C521A601A6832431A60002002B070BD19
:104F50002046FBE773B515461A4690F83830012B0A
:104F600004464FF0020316D080F83930036801265A
:104F700080F838605D61079B0093069BFFF75EFF3A
:104F800023681A6842F40C521A601A6832431A6095
:104F9000002002B070BD1846FBE7026838B5136800
:104FA00023F0050343F0040313600446FFF7E6FD16
:104FB00005462368186810F0010009D11A6822F428
:104FC0000C521A60012384F8393084F838000FE05D
:104FD000FFF7D4FD401BB0F57A7FEAD9E36B43F0CD
:104FE0002003E3630320002384F8390084F8383079
:104FF00038BD70B505682A6842F004022A600129AC
:10500000044614BF24351C35FFF7B8FD0646286852
:1050100010F020000AD12268136823F4645313604F
:10502000012384F8393084F838000FE0FFF7A6FD3B
:10503000801BB0F57A7FEAD9E36B43F02003E3638A
:105040000320002384F8390084F8383070BD000054
:1050500038B5054608B9012038BD164B1B6B19023F
:1050600013D42B6800243F221C6028469A601C61E0
:105070009C61DC615C625C63FDF7E8F8EC6385F8D9
:10508000384085F839402046E6E70368196811F092
:10509000010104D0FFF781FF0028E2D0DBE75A6A64
:1050A000920602D5FFF7A5FFF6E7DB699B06D8D588
:1050B0000121F7E70038024070477047036870B578
:1050C0005E681D68F207044614D5E90512D51A6812
:1050D00022F480721A60C26B42F00102C2630122A4
:1050E0009A60042380F83930002380F8383043690F
:1050F00003B19847B20616D5AB0414D523681A68D5
:1051000022F400521A6020229A60E36B43F00203FB
:10511000E363042384F83930002384F8383063696A
:105120000BB120469847300716D5290514D52368BA
:105130001A6822F400621A6008229A60E36B43F056
:105140000403E363042384F83930002384F83830FF
:1051500063690BB12046984772070BD56B0509D5DB
:1051600023681A6822F480621A6004229A6020463A
:10517000FFF7A2FFB00714D5A90512D523681A6856
:1051800022F400721A6002229A60E36BE363012347
:1051900084F83930002384F8383023690BB1204675
:1051A0009847F20613D5EB0411D523681A6822F448
:1051B00080521A6010229A60E36BE363012384F843
:1051C0003930002384F838302046FFF776FF70BD71
:1051D00090F83830012BF0B54FF0020336D00E01B5
:1051E000012280F83930831980F83820D3E907523A
:1051F00045EA0242093D012D5C6A194F03680FD848
:1052000004F07F4C4CEA020269B9596A39400A43FA
:105210005A6282699A61426A22F07F429A620FE082
:1052200042EA0462A1B1D969064439400A43012D1A
:10523000DA6198BF24F07F44B2691A6198BF1C629A
:10524000012380F83930002380F838301846F0BD4B
:10525000596A39400A435A6282699A61F0E700BF8D
:10526000F0FFFC002DE9F04F85B00B68DFF8C4813A
:105270006E4ADFF8C491019300230124019D9C40F4
:105280002540AC4240F0B8804C6824F0100C4FEA46
:10529000430E03260CF1FF3706FA0EF6012F6FEAD4
:1052A000060611D8876807EA060ACF6807FA0EF7DC
:1052B00047EA0A078760476827EA050AC4F3001728
:1052C0009F4047EA0A074760C76807EA060A8F68EF
:1052D00007FA0EF747EA0A07BCF1020FC76016D1BA
:1052E0004FEAD30A00EB8A0A03F0070BDAF82070C2
:1052F0004FEA8B0B4FF00F0C0CFA0BFC27EA0C0C4F
:105300000F6907FA0BF747EA0C07CAF8207007681D
:105310003E4004F0030707FA0EFE4EEA060606605A
:10532000E60069D54FF0000BCDF80CB0D8F844700A
:105330003F4E47F48047C8F84470D8F8447007F4EB
:1053400080470397039F23F0030707F1804707F582
:105350009C3703F0030ED7F808A04FEA8E0E4FF0EB
:105360000F0C0CFA0EFCB0422AEA0C0C4BD006F5DE
:105370008066B04249D006F58066B04247D006F557
:105380008066B04245D006F58066B04243D04845BD
:1053900043D006F50066B04241D006F58066B042C3
:1053A0003FD006F58066B0423DD006F58066B0423B
:1053B00014BF0A26092606FA0EF646EA0C06BE6057
:1053C0001668EF4314F4803F0CBF3E402E43166036
:1053D000566814F4003F0CBF3E402E43566096685A
:1053E00014F4801F0CBF3E402E439660D668A40282
:1053F00054BF3E402E43D6600133102B7FF43DAFA7
:1054000005B0BDE8F08F5E46D5E70126D3E702265A
:10541000D1E70326CFE70426CDE70526CBE706260E
:10542000C9E70726C7E70826C5E700BF003C0140DB
:105430000000024000380240001402400AB18161BD
:1054400070470904FBE701684B6913F480634FF070
:10545000000210D06FF480634B612023026380F858
:105460003D3080F83E20036C80F83C2043F004037C
:10547000036401207047184670472DE9F041044647
:10548000164698468FB22568686937EA000017D03B
:105490006B695A0516D52B6843F400732B606FF4C3
:1054A00080636B6120220023236384F83D2084F80D
:1054B0003E30226C42F00402226484F83C30012029
:1054C000BDE8F081731CDFD0FFF758FBA0EB0800AC
:1054D000B04201D8002ED6D100232022236384F8C5
:1054E0003D2084F83E30226C42F02002E4E770B5A3
:1054F00004460D46164623685B695B0701D500200C
:1055000070BD2046FFF79FFFA8B96A1CF3D0FFF7D4
:1055100035FB801BA84201D8002DECD100232022AE
:10552000236384F83D2084F83E30226C84F83C30BC
:1055300042F0200222640120E2E770B504460D46E5
:1055400016462068436913F0400301D0002010E0A4
:105550004269D2060ED56FF0100242612022236309
:1055600084F83D2084F83E30226C226484F83C307C
:10557000012070BDFFF702FB801BA84201D8002D5F
:10558000DFD100232022236384F83D2084F83E30BD
:10559000226C42F02002E8E72DE9F843089E044619
:1055A00090461F464FEA11498DB22168B9F1010FAB
:1055B0000CBF4B698B6935EA03030CBF0123002341
:1055C000984501D0002016E07B1CEFD0FFF7D6FAFB
:1055D000801BB84201D8002FE7D10023202223638B
:1055E00084F83D2084F83E30226C84F83C3042F050
:1055F000200222640120BDE8F88370B504460D4600
:10560000164623685B691B0601D5002070BD204645
:10561000FFF719FFA8B96A1CF3D0FFF7AFFA801B98
:10562000A84201D8002DECD100232022236384F866
:105630003D2084F83E30226C84F83C3042F0200259
:1056400022640120E2E700002DE9FF4115460268CF
:105650000B9E9846136843F4807313600F460A9BB1
:10566000009600224FF001110446FFF795FF2368D2
:1056700038B11B68DB0502D54FF4007323640320A7
:105680000AE007F0FE071F610A9A194933462046CF
:10569000FFF7F3FE18B1012004B0BDE8F0812368E4
:1056A00003905A6903929B69039332460A99039BBC
:1056B0002046FFF7A2FF40B1236C042B01BF2268F4
:1056C000136843F400731360E5E7B8F1010F236832
:1056D00002D1EDB21D61DFE72A0A1A610A9932464A
:1056E0002046FFF78AFF0028E6D12368F1E700BFD4
:1056F000020001002DE9FF41984603680B9D164604
:105700001A6842F480621A601A6842F480721A6061
:105710000F460A9B009500224FF001110446FFF747
:105720003BFF236848B11B68DB0502D54FF40073CB
:105730002364032004B0BDE8F081FFB207F0FE024D
:105740001A612A490A9A2B462046FFF796FE08B1AD
:105750000120EFE7236803905A6903929B69039342
:105760002A460A99039B2046FFF747FF40B1236C66
:10577000042B01BF2268136843F400731360E7E74A
:10578000B8F1010F236825D1F6B21E612A460A99A5
:105790002046FFF732FF02460028E8D121680B6857
:1057A00043F480730B6020460A9B00954FF0011173
:1057B000FFF7F2FE23680028B5D147F001071F610B
:1057C0000A9A0A492B462046FFF757FE003018BFB9
:1057D0000120AFE7320A1A610A992A462046FFF7EC
:1057E0000CFF0028C3D12368CEE700BF02000100F0
:1057F00070B5044608B9012070BD90F83D3003F043
:10580000FF021BB980F83C20FCF732FD242384F80A
:105810003D3023681A6822F001021A601A6842F4C7
:1058200000421A601A6822F400421A6000F06CFE0E
:105830006368414A93424DD8404A9042DBD922687E
:105840003F495568B0FBF1F125F03F050D43556028
:10585000156A25F03F05013129431162D169364DA2
:1058600021F44F41AB4221F0FF0100F1FF3048D855
:105870005B00B0FBF3F0431CC3F30B03042B38BFF6
:1058800004230B43D361D4E907301168034321F0AB
:10589000C0010B4313609168D4E9030321F4034171
:1058A000034321F0FF010B439360D4E90530D16835
:1058B000034321F0FF010B43D360136843F001035E
:1058C000136000202023206484F83D30206384F896
:1058D0003E0091E71B4A90428DD92268184E5568C8
:1058E000B0FBF6F625F03F0535435560156A4FF4D9
:1058F0009671714325F03F054FF47A76B1FBF6F1CE
:10590000A9E7A56855B903EB4303B0FBF3F0431CCB
:10591000C3F30B036BB143F40043B2E719256B43A8
:10592000B0FBF3F0431CC3F30B0313B143F4404348
:10593000A7E70123A5E700BFA08601007F841E0022
:1059400040420F00FF083D002DE9F7430446994609
:105950000F4690460C9EFFF711F994F83D30202B2E
:10596000054603D0022003B0BDE8F0830090192360
:1059700001223B492046FFF70FFE0028F2D194F8A0
:105980003C30012BEED0012384F83C3023681A68A8
:10599000D1075EBF1A6842F001021A601A6822F449
:1059A00000621A60212384F83D30402384F83E30A1
:1059B000002323640A9B6362BDF82C306385638DEA
:1059C0002385284BE362CDE900654B4642463946C4
:1059D0002046FFF739FE00282AD00120C3E7FFF751
:1059E0000CFE40B1236C042B01BF2268136843F402
:1059F00000731360F1E7636A27681A4612F8011B07
:105A000039616262628D218D013A92B262857A6952
:105A1000481E80B2520720850AD548B15A783A61AB
:105A200002336362638D013B02399BB2218563853A
:105A3000238D2A4631462046002BD0D1FFF757FD53
:105A40000028CFD12268136843F400731360202329
:105A500084F83D3084F83C0084F83E0083E700BFC2
:105A6000020010000000FFFF2DE9F043044687B05C
:105A700099460D469046109FFFF780F894F83D3008
:105A8000202B064604D00225284607B0BDE8F08347
:105A900000901923012277492046FFF77DFD002859
:105AA000F1D194F83C30012BEDD0012384F83C3047
:105AB00023681A68D0075EBF1A6842F001021A60B4
:105AC0001A6822F400621A60222384F83D304023D1
:105AD00084F83E30002323640E9B6362BDF83C30A3
