:020000040800F2
:1000000000000320910500080D2100080F210008C1
:10001000112100081321000815210008000000002C
:10002000000000000000000000000000A1680008BF
:1000300017210008000000003169000895690008D8
:10004000E1050008E1050008E1050008E1050008F8
:10005000E1050008E1050008E1050008E1050008E8
:10006000E1050008E1050008E1050008E1050008D8
:10007000E1050008E1050008E1050008E1050008C8
:10008000E1050008E1050008E1050008E1050008B8
:10009000E1050008E1050008E1050008E1050008A8
:1000A000E1050008E1050008E1050008E105000898
:1000B000E1050008E1050008E1050008E105000888
:1000C000E1050008E1050008E1050008E105000878
:1000D000E1050008E1050008E1050008E105000868
:1000E000E1050008E1050008E1050008E105000858
:1000F000E1050008E1050008E1050008E105000848
:10010000E1050008E1050008E1050008E105000837
:10011000E1050008E105000819210008E1050008D3
:10012000E1050008E1050008E1050008E105000817
:10013000E1050008E1050008E1050008E105000807
:10014000E1050008E1050008E1050008E1050008F7
:10015000E1050008E1050008E1050008E1050008E7
:10016000E1050008E1050008E1050008E1050008D7
:10017000E1050008E1050008E105000800000000B5
:10018000E1050008E1050008E1050008E1050008B7
:10019000E1050008E1050008E1050008E1050008A7
:0C01A00025210008E105000831210008BD
:1001B00010B5054C237833B9044B13B10448AFF3A1
:1001C00000800123237010BD70010020000000009A
:1001D000E89B010808B5034B1BB103490348AFF383
:1001E000008008BD0000000074010020E89B0108A9
:1001F00001F0FF01102A2BDB10F0070F08D010F8D8
:10020000013B013A8B422DD010F0070F42B3F6D1DB
:10021000F0B441EA012141EA014122F007047FF0F4
:1002200000070023F0E80256083C85EA010586EA4B
:10023000010685FA47F5A3FA87F586FA47F6A5FA87
:1002400087F68EB9EED1F0BC01F0FF0102F0070293
:1002500032B110F8013B013A83EA010313B1F8D13E
:100260000020704701387047002D06BF354603381F
:10027000073815F0010F07D1013015F4807F02BF58
:10028000013015F4C03F0130F0BC0138704700BFA9
:1002900053B94AB9002908BF00281CBF4FF0FF31ED
:1002A0004FF0FF3000F072B9ADF1080C6DE904CEEB
:1002B00000F006F8DDF804E0DDE9022304B0704741
:1002C0002DE9F047089E04468846002B4BD18A4210
:1002D000154667D9B2FA82F24AB1C2F1200701FA93
:1002E00002F320FA07F7954047EA030894404FEAE3
:1002F000154E230CB8FBFEF71FFA85FC0EFB178882
:1003000043EA084307FB0CF1994209D9EB1807F1BE
:10031000FF3080F01B81994240F21881023F2B444C
:100320005B1AA4B2B3FBFEF00EFB103344EA0344A5
:1003300000FB0CFCA44509D92C1900F1FF3380F017
:100340000781A44540F2048102382C4440EA07406A
:10035000A4EB0C0400271EB1D4400023C6E90043DF
:100360003946BDE8F0878B4209D9002E00F0EB80BA
:100370000027C6E9000138463946BDE8F087B3FAE0
:1003800083F7002F47D18B4202D3824200F2FA80DA
:10039000841A61EB030301209846002EE0D0C6E9E1
:1003A0000048DDE702B9FFDEB2FA82F2002A40F02F
:1003B0008F80491B4FEA154E1FFA85F80127B1FBC4
:1003C000FEFC230C0EFB1C1143EA014308FB0CF15D
:1003D000994207D9EB180CF1FF3002D2994200F292
:1003E000CD808446591AA3B2B1FBFEF00EFB101467
:1003F00043EA044408FB00F8A04507D92C1900F192
:10040000FF3302D2A04500F2B6801846A4EB0804E0
:1004100040EA0C409FE7C7F1200CBB4022FA0CFEDB
:100420004EEA030E01FA07F420FA0CF521FA0CF358
:100430004FEA1E482543B3FBF8F92C0C08FB19338F
:100440001FFA8EFA44EA034309FB0AF49C4202FABB
:1004500007F200FA07F10BD91EEB030309F1FF3095
:1004600080F087809C4240F28480A9F102097344A5
:100470001B1BADB2B3FBF8F008FB103345EA034495
:1004800000FB0AFAA24508D91EEB040400F1FF3371
:100490006BD2A24569D90238744440EA0940A0FBF6
:1004A0000289A4EB0A044C45C2464B4654D351D0B2
:1004B000002E69D0B1EB0A0564EB030404FA0CFCCE
:1004C000FD40FC404CEA0505C6E90054002747E71B
:1004D000C2F1200320FA03F7954001FA02F021FA55
:1004E00003F34FEA154E3843010CB3FBFEF71FFA36
:1004F00085F80EFB173341EA034107FB08F38B42F3
:1005000004FA02F407D9691807F1FF3C2FD28B4295
:100510002DD9023F2944CB1A81B2B3FBFEF00EFB6A
:10052000103341EA034100FB08F38B4207D96918F5
:1005300000F1FF3C17D28B4215D902382944C91A61
:1005400040EA07473BE73746304609E70746E7E614
:100550001846FBE64145ABD2B8EB020A69EB0E0246
:1005600001381346A4E76046E9E7184695E7674671
:10057000D1E781467CE702382C4447E7ACF1020C16
:100580002B442FE7384608E73746E9E6704700BFB7
:10059000DFF834D0002103E00C4B5B5843500431AA
:1005A0000B480C4B42189A42F6D30B4A02E0002348
:1005B00042F8043B094B9A42F9D302F045FF18F088
:1005C00057FB00F095FE704700000320786E050889
:1005D000000000207001002070010020202901206F
:1005E000FEE700F093BC00F001BD704710B5042198
:1005F000044618F0C7FA204610BD000038B50C4B71
:100600000C4C18800C4B822019806368984740F688
:10061000110398420AD1094D23682C608220984723
:100620002B688220DB689847002038BD0120FCE75A
:100630008C0100205C0000208E0100209001002031
:100640004FF4A071F020FFF7D9BF0000F7B52C4D93
:100650002B6804461B698220984780B220800028BE
:100660004BD02B680DF106025B6901A982209847E7
:10067000BDF80630A3F5B4739BB20B22B3FBF2F3C3
:1006800033B1204A12889A423CBF02F1FF339BB239
:10069000BDF8042040F6B8318A4295BFC2F57162B8
:1006A000C2F56D620E320832ADF80420BDF80410B8
:1006B0000F22B1FBF2F131B1134A12888A423CBFDA
:1006C00002F1FF3189B2114E114D30682F6882B2AC
:1006D000814288BF8A1AB8B298BF521ABB428CBFF7
:1006E000181AC01A92B280B20244052AC4BF3160FF
:1006F0002B60336863802B68A38003B0F0BD00BF1C
:10070000900100208E0100208C0100209401002027
:100710009801002037B568460D461446FFF796FF4E
:10072000BDF8000030B1BDF802302B60BDF80430D8
:100730002360012003B030BD70477047704701232C
:1007400080F8741080F875307047002070470020E2
:100750007047836B0BB10846184770474FF6FF7020
:100760007047406803689B691847704708B503687D
:1007700004469B6E9847236820461B6E984700F0FE
:1007800057F9236820469B6D9847292001F0B2F85D
:1007900000F04EF9236820469B6D9847F8E710B5A6
:1007A000044609F0DDF823682046D3F89430BDE80C
:1007B0001040184700F0B6BC00F0BABC00F0C0BC56
:1007C00000F08CBC00F0BEBC00F0C6BC00F090BCD9
:1007D00008B531B90A4B0B4A0B484FF4277118F092
:1007E000FDF9C0E90F1200320849436418BF012225
:1007F0000A700033064A18BF0123137008BD00BFFA
:100800007D9C0108089E0108B59C010886210120F5
:10081000872101202DE9F04799461C4B9DF8205077
:100820008846196891F87630074614460BB1C86CB3
:1008300000B9886803685B6A9847154B1E88704347
:10084000B9F1000F16D008EB00010A46ADB10B1844
:10085000013CA4B21F2C12D8012101FA04F40D4965
:10086000214061B139684C6F38464146A446BDE825
:10087000F047604741464A46E8E72B46E8E7064B23
:10088000064A074840F2892118F0A8F9882101207A
:10089000842101208B808080609C0108B49D010828
:1008A000B59C010808F0EDBA10B57821044618F09F
:1008B00069F9204610BD90F877301BB14068036895
:1008C0001B6818471846704730B590F8341090F8F8
:1008D0007440104B8C421A780DD05AB90E4A0F4909
:1008E0000F4814880F4D0C800188118029800480E6
:1008F00001221A7030BD002AFCD00948074A01883D
:100900001180054A074D14882C8011800480002234
:10091000EFE700BF802101207C21012082210120FE
:100920007E2101208421012000F02ABC012108B58C
:100930000022084605F086FC064B4FF0FF31186098
:1009400005F0D6FC00220421012005F045FD024BF4
:10095000186008BDA00100209C01002008B5074BCD
:10096000186828B9064B074A0748312118F036F9AC
:100970004FF0FF31BDE8084005F0BABCA0010020EF
:10098000569E0108F29E0108679E010808B5064BB5
:10099000186828B9054B064A06483A2118F01EF98E
:1009A000BDE8084005F0E0BCA0010020569E01080B
:1009B000B59E0108679E010808B5074B186828B95D
:1009C000064B074A0748472118F008F90021BDE8FF
:1009D000084005F08DBC00BFA0010020569E010814
:1009E0002F9F0108679E010808B5064B186828B9B3
:1009F000054B064A0648542118F0F0F8BDE80840B7
:100A000005F0B2BCA0010020569E01086F9F0108AE
:100A1000679E0108044B186820B100231A46034959
:100A200005F020BD704700BF9C010020040000209D
:100A300013B5084C206858B100231A4601A905F0E7
:100A400053FD4FF0FF33002201A9206805F04CFD53
:100A500002B010BD9C01002003685B6C18470020A9
:100A6000704703689B6A184740F2EF107047000018
:100A700010B5074C074B2360204602F0BBFE064B27
:100A80002361064B6361064B4FF080629A6010BD94
:100A90008427012000B00240C10A0008A50A00080E
:100AA00000E100E008B5034A034B0448362118F082
:100AB00095F800BF50A0010823A60108B39F0108C4
:100AC000024B1B68586803685B691847882101203E
:100AD000084B10B503600446074802F053FF074B6C
:100AE0004FF08062C3F88820BFF34F8FBFF36F8F42
:100AF000204610BD08A001088427012000E100E085
:100B000010B50446FFF7E4FF20464FF4426118F0A9
:100B100039F8204610BD0000044B1B6893F876207E
:100B20000AB1D86C00B99868704700BF88210120CD
:100B30002DE9F7430D68202D0C4600F09780402DDD
:100B400000F094802A1F56425641802D00F090807C
:100B5000A5F580735D425D41FFF7DEFF0368DB6949
:100B600098472368402B864600F0998000F28280E7
:100B7000042B00F08D80202B00F09180BEF1100F2F
:100B800014BF4FF0010C4FF0020C00224B4BB4F895
:100B900010801968E78AD1F800905A60BEF1100FF2
:100BA00029F4403914BF01200220A7EB080749EAC5
:100BB00002029860DF600A604A6BC3F82CC022F022
:100BC000070202434A630A6C22F47F5222F03F027A
:100BD0003A430A64A28AA2EB08029A6206B995B364
:100BE000227FFF2A15BF02210022C3E90C121A63DB
:100BF0001DB3227FA169BEF1100F4FEA026C51D1E3
:100C00004FF01F08C1F3C422C2EB0222B2FBF8FE70
:100C100001EA0802C2EB0222B2FBF8F242EA0C023D
:100C200042EA0E42C1F34511C1EB01214FF03F0CE6
:100C3000B1FBFCF142EA01225A63C3E906700021CC
:100C40001E4802F05FFF01211C4802F05BFF238A6F
:100C5000628A06B955B3CDE90032E3686168174886
:100C60001A4602F011FE03B0BDE8F08301266FE7DB
:100C7000012571E7802B06D0B3F5807F7FF47EAF2E
:100C80004FF0090C01E04FF00A0C4FF400327DE701
:100C9000102814BF4FF0010C4FF0020CF5E74FF095
:100CA000000CF2E74CEA01015963C6E70092616863
:100CB000E268024802F0CAFDD5E700BF84270120A0
:100CC000F7B50D46FFF728FF0368DB699847102842
:100CD000AB69297F66D103F01F02C2EB02221F20FD
:100CE000B2FBF0F4C3F3C42244EA0164C2EB022273
:100CF000C3F34513B2FBF0F244EA0244C3EB03230F
:100D00003F220221B3FBF2F344EA03242B68274875
:100D1000EE8A0268082B2B8AA6EB03061368C660CE
:100D20000CBF4FF400374FF4403723F440333B43BC
:100D3000C0E901711360536B23F007030B43536346
:100D4000136C23F47F5323F03F033343B7F5003F85
:100D500013641CD10123C0E90C340923C0E90661E6
:100D6000C362002102F0CEFE0121104802F0CAFE4B
:100D7000B7F5003F2B8A6A8A0DD1E9680B48CDE9A7
:100D800000320B460A4602F07FFD03B0F0BD00239F
:100D9000C1628362E8E700922146EA68034802F0F4
:100DA00055FDF2E743EA01640121AFE78427012002
:100DB00070B505462C460A4B0C30002668602E7232
:100DC0006E7244F8203B6022214608F0F5FE05F5DE
:100DD0004263A6612034A342FBD1284670BD00BF08
:100DE00008A00108012070470C2070470C2303FB6A
:100DF0000100083070470C2303FB010008307047E6
:100E0000012070474FF4597070474FF4597303FB3A
:100E10000100083070474FF4597303FB010008309C
:100E20007047012070471020704700EB0110083018
:100E3000704700EB011008307047084601F0B0BA67
:100E400010B5034B0360044607F01AFB204610BDA3
:100E5000F4A0010810B50446FFF7F2FF2046142164
:100E600017F090FE204610BD10B5034B03600446FA
:100E700007F006FB204610BDC0A0010810B50446CF
:100E8000FFF7F2FF20464FF45B7117F07BFE204620
:100E900010BD000010B5034B0360044607F0F0FAE4
:100EA000204610BD8CA0010810B50446FFF7F2FFE4
:100EB0002046182117F066FE204610BD10B5084BDD
:100EC0000360044600F56670FFF7BAFF04F12C00DA
:100ED000FFF7CAFF04F11400FFF7DCFF204610BD46
:100EE00028A1010808B50248FFF7E8FF08BD00BFC8
:100EF000A801002010B50446FFF7E0FF20464FF49C
:100F0000A16117F03FFE204610BD00002DE9F3411E
:100F100001F082F9054601F083F9002401462346D9
:100F20002846224600940CF077F9254B254A264D99
:100F30001A60204601F06EFC24480CF0B7F82B78BC
:100F4000BFF35B8FDB0735D4284617F01DFE88B34F
:100F50001F4C204B236004F56C7604F1140004F15F
:100F60002C0804F566776060C4F80880E7602661A5
:100F700007F088FA184B6361404607F083FA174B75
:100F8000E362384607F07EFA154BC4F8983304F54F
:100F90006B7001F039FF224604F56B71304601F0A9
:100FA00029FF304601F0FCF9284617F0F9FD0D48FD
:100FB00017F032FE0C4802B0BDE8F041FFF7B4BCB8
:100FC000042201204C130020A4010020080000206E
:100FD000A801002028A101088CA00108C0A00108D8
:100FE000F4A00108E50E0008D41200200148FFF724
:100FF000BDBB00BFD412002070B5284E284C294D2F
:10100000294B23603046FFF7D3FE28460FF0FEF849
:10101000264B274858662748DC6000220121C3E997
:101020000165C3E90422C3E90622C3E908221A853F
:1010300083F82A20DA621A86C3E90E22C3E9102255
:1010400083F8482083F84A20C3E913225A6583F8BD
:10105000682083F8692083F86A2083F86B2083F87E
:101060006C201A6783F8752083F8762083F849107E
:1010700083F8771003601048104D83F83410F02483
:1010800004804FF4A07028800D4D2A700D4A148002
:101090000D4A10800D4A1A6070BD00BFB4060020D2
:1010A000B006002050130020509C0108D4120020EC
:1010B00001000001882101207C2101207E210120E6
:1010C000802101208221012084210120049D01082A
:1010D0000148FFF7FDBC00BFB4060020034B90227F
:1010E00083F85A2383F85823704700BF00E100E0DB
:1010F000094A0A49D3680A48C3F30A03013B9BB271
:101100000B801169C1F30A01013901801364536B2B
:1011100043F001035363704700680140CA13002085
:10112000C8130020014B986A704700BF84680140D3
:10113000024B0122996243F8602C70478468014099
:1011400007F0A5BE034B4FF080629A604FF08072AB
:101150009A60704700E100E0084B4FF08062C3F8EE
:101160008820BFF34F8FBFF36F8F4FF08072C3F8AB
:101170008820BFF34F8FBFF36F8F704700E100E00F
:1011800038B5044608F064F92368DD6C0AF082F88B
:1011900001462046A8472368054A5D6FA2F516312F
:1011A00000232046A847002384F84A3038BD00BFFA
:1011B000005802D0134B144A1B6C11888B4210B597
:1011C000124C13D1124B198803F0ACFB226892F831
:1011D0006630013382F86630FFF71CFC206808F0A7
:1011E000BFFB0020BDE81040FFF7A6BA03F09AFB52
:1011F0000020FFF7A2FA20680368BDE810409B6951
:10120000184700BF00680140CA1300208821012050
:10121000C813002007B5064B02A91B6821F8020D70
:101220000122044804F079F803B05DF804FB00BF24
:101230001000002098240120F0B5A1B01022002158
:101240000AA817F054FD1422002103A817F04FFD3F
:101250000021302214A817F04AFD0024224B0194EB
:101260001A6C42F080521A641B6C03F08053019395
:10127000019B1E4B02941A6842F440421A601B689C
:1012800003F4404302930122029B4FF48033CDE9E3
:10129000082302254FF48003CDE90E5308274FF4AD
:1012A000A873042608A8CDE910731295139603F0CD
:1012B00057FB0F23CDE903354FF4A0514FF4805372
:1012C000CDE9061303A80521059403F01DFDC023F5
:1012D000189314A84FF4003314971A961D9303F033
:1012E000DBFD21B0F0BD00BF0038024000700040BF
:1012F0002DE980489FB00024C74DC84EDFF860B389
:1013000002F0B0F8FFF798FF1422002111A817F09F
:10131000EEFC02942B6BC24843F020032B632B6B33
:1013200003F020030293029B03942B6B43F0800392
:101330002B632B6B03F080030393039B04942B6BB1
:1013400043F004032B632B6B03F004030493049B0F
:1013500005942B6B43F001032B632B6B03F001030C
:101360000593059B06942B6B43F002032B632B6BB9
:1013700003F002030693069B07942B6B43F0400394
:101380002B632B6B03F040030793079B08942B6B95
:1013900043F010032B632B6B03F010030893089B9F
:1013A00009942B6B43F008032B632B6B03F00803AA
:1013B000099322460421099B02F0DAFC22464FF4ED
:1013C0004051984802F0D4FC01274FF002084FF03A
:1013D000040911A99248CDF85080CDE911971394D2
:1013E00002F0DAFB11A94FF440538E48CDE91137D2
:1013F000CDE9134802F0D0FB8B488C4B036002F020
:10140000D9F88B4A8B4B3462C6E9002330464FF43F
:101410008043C6E90434C6E90244C6E9064402F042
:1014200081FE1021304603F0C5F82146304603F016
:10143000E0F88148814984624FF48273C0E9001367
:101440004FF400761823C0E906630A23C362C0E99B
:101450000244C0E90444C0E9084403F021FF784A8B
:10146000CDF844804FF0100ACBE900274022CBE9A9
:1014700004A24FF4C072CBE906244FF40062CBE91A
:1014800008244FF400520323CBF8282011A9072287
:101490005846CDE915380826CBE90249CDE912298D
:1014A0001492CDF85C8003F021FE4FF6FF720DA977
:1014B0005846CDE90E670D970A94109403F036FE56
:1014C000384601F0FBFF4FF6FF720DA95846CDE9F3
:1014D0000D86CDE90F7403F029FE03234FF6FF724A
:1014E0000DA95846CDE90D36CDE90F9403F01EFE47
:1014F0004FF40C720A920A9A10920DA94FF6FF72DD
:101500005846CDE90D960F9703F010FE40F26A5150
:10151000584603F022FE3422214611A817F0E7FBBB
:10152000484E494B3461C6E9003409234FF01D0C85
:10153000C6E905370323C6E907C340F20D1E40F292
:101540004313C6E909E340F2171B40F24713C6E90B
:101550000BB3C6E90244B48686F83640304603F041
:10156000EDF8FF21F022CDE916144FF4806005213B
:101570004FF4A073CDE91801CDE9122411A9CDE9EA
:101580001A4230462246CDE91438304E1C9311944D
:10159000ADF874408DF8764003F09BF92C4B336026
:1015A0001B68984733682B4EDB6898472A4BC6E97F
:1015B0000A48C6E90C443046C6E90034C6E902844C
:1015C00002F018F93946304602F09CFAFFF709F8A4
:1015D00001942B6B43F400132B632B6B1F4D03F40F
:1015E00000130193524621460DA8019B17F07FFB83
:1015F0001C22214611A844F29F1B4FF06308CDE93D
:101600000B4417F074FB4FF080432846C5E9003BBC
:101610004FF4805726E000BF0038024044240120E8
:1016200000080240000C024030250120003002403A
:10163000005C0040A0860100982401200050014079
:10164000400100A01826012000680140CC130020B2
:10165000240000208427012000B00240C42701207C
:1016600064280120AC60C5E90384AC6104F076FA1B
:101670000DA928460D9704F047FB284604F088FA88
:101680000BA928466026CDE90B4404F069FC4A46C4
:1016900011A92846CDE911641394159404F0C8FAF1
:1016A000284600F087FC524621460DA84D4D17F004
:1016B0001EFB1C22214611A8CDE90B4417F017FB95
:1016C000494B2C612846C5E9003BC5E90248AC619D
:1016D00004F044FA0DA928460D9704F015FB28469E
:1016E00004F056FA0BA92846CDE90B4404F038FC67
:1016F0004A4611A92846CDE911641394159404F0C3
:1017000097FA284600F056FC524621460DA8374D60
:1017100017F0EDFA1C22214611A8CDE90B4417F071
:10172000E6FA334B2C612846C5E9003BC5E902487F
:10173000AC6104F013FA0DA928460D9704F0E4FA01
:10174000284604F025FA0BA92846CDE90B4404F0FD
:1017500007FC224611A92846CDE91164139415947B
:1017600004F066FA284600F025FC524621460DA8F2
:10177000204D17F0BCFA1C22214611A8CDE90B44DC
:1017800017F0B5FA1C4B2C612846C5E9003BC5E9AA
:101790000248AC6104F0E2F90DA928460D9704F067
:1017A000B3FA284604F0F4F90BA92846CDE90B4416
:1017B00004F0D6FB224611A92846CDE91164139402
:1017C000159404F035FA284600F0F4FB04F0AAFC66
:1017D0000A4A0B48214604F0DFFC0A4B186004F06B
:1017E000BBFCFEE7D825012000040040F0240120C6
:1017F0000008004098250120000C004034A1010899
:10180000E7050008802701207047704710B586B0B3
:1018100006AC074B04F8012D1B68029301230A460E
:10182000CDE900430146034802F028FD06B010BD93
:101830000C000020442401207FB506AA002302F8F2
:10184000013D084B1B6802930123CDE900230A46A2
:101850000146054802F0A2FD9DF8170007B05DF8AB
:1018600004FB00BF0C000020442401201FB5084CDD
:1018700024680092CDE901340A4601230146054857
:1018800002F08CFD003018BF012004B010BD00BF75
:101890000C0000204424012001F010BE10B5064CBD
:1018A00000222046042102F063FA2046012204218E
:1018B000BDE8104002F05CBA0008024038B50B4C9D
:1018C000054601224FF40051094802F051FA002266
:1018D0000421204602F04CFA2846FFF79BFC2046E4
:1018E00001220421BDE8384002F042BA000802405B
:1018F000000C024038B50B4C054600224FF4005155
:10190000094802F035FA00220421204602F030FA9C
:101910002846FFF77FFC204601220421BDE838401D
:1019200002F026BA00080240000C0240F7B5144C41
:10193000144D07460E4620460022042102F018FAF4
:1019400000224FF40051284602F012FA3846FFF701
:1019500061FC0D4B0D481B68324601A903F075FE72
:10196000284601224FF40051019E02F001FA204660
:101970000122042102F0FCF9304603B0F0BD00BFA3
:1019800000080240000C02401000002098240120B2
:1019900001F094BD0268034B9A4201D101F07CBD75
:1019A000704700BF001000407047000082B00E4B2F
:1019B00000220092596C41F480415964596C01F441
:1019C0008041009100990192196C41F08051196495
:1019D0001B6C03F080530193019B0F216FF00100FA
:1019E00002B001F091BD00BF003802400268094B0F
:1019F0009A4282B00BD100230193074B1A6B42F439
:101A000080521A631B6B03F480530193019B02B055
:101A1000704700BF003002400038024007B50F4B4E
:101A200002689A4216D10022A3F5F0430192196B85
:101A300041F4000119631B6B03F4000301930521BA
:101A40005A20019B01F060FD5A2003B05DF804EBC1
:101A500001F08EBD03B05DF804FB00BF00B0024092
:101A60000268064B9A4207D1054A136B23F4000320
:101A700013635A2001F08ABD704700BF00B00240D6
:101A8000003802402DE9F043044689B014220021B9
:101A900003A817F02CF92268244B9A4243D1244C16
:101AA000244800250095236B43F004032363236B34
:101AB00003F004030093009B0195236B43F00103A3
:101AC0002363236B03F001030193019B4FF0120981
:101AD0004FF400734FF001080327042603A9CDE952
:101AE0000339CDE90587079602F056F84FF4807365
:101AF00003A911480796CDE90339CDE9058702F01E
:101B00004BF80295236C43F400032364236C03F425
:101B100000030293029B236A43F400032362236AB7
:101B200023F40003236209B0BDE8F083005C0040A9
:101B3000003802400008024000000240F0B50446B0
:101B40008DB01422002107A817F0D1F82268574B56
:101B50009A4240F0A88003F55043002500955A6C46
:101B6000534842F080625A645A6C02F080620092DC
:101B7000009A01951A6B42F020021A631A6B02F068
:101B800020020192019A02951A6B42F001021A6337
:101B90001A6B02F001020292029A03951A6B42F04C
:101BA00002021A631A6B02F002020392039A04956E
:101BB0001A6B42F040021A631A6B02F04002049260
:101BC000049A05951A6B42F004021A631A6B02F02C
:101BD00004020592059A06951A6B42F008021A63F0
:101BE0001B6B03F00803069302240E26069B0A943F
:101BF0004FF4806307A9CDE907340B9601F0CCFFC1
:101C000041F6580307A92B480B96CDE9073409275D
:101C1000CDE9095401F0C0FF032307A926480B971B
:101C2000CDE90734CDE9095401F0B6FF4FF47063F4
:101C300007A921480B96CDE90734CDE9095401F0F5
:101C4000ABFF4FF40C6307A91C480B96CDE9073492
:101C5000CDE9095401F0A0FFC02307A918480B964D
:101C6000CDE90734CDE9095401F096FF082307A90F
:101C700014480B96CDE90734CDE9095401F08CFFE7
:101C80004FF4A05307A90D480B97CDE90734CDE9D0
:101C9000095401F081FF58202A46052101F034FC47
:101CA000582001F065FC0DB0F0BD00BF0068014098
:101CB00000140240000002400004024000180240EC
:101CC00000080240000C024010B5044688B01422FF
:101CD000002103A817F00BF82268144B9A4223D175
:101CE00003F56843002101915A6C114842F48012B7
:101CF0005A645A6C02F480120192019A02911A6B92
:101D000042F020021A631B6B03F020030293029B34
:101D10004FF4607202230321CDE903230523CDE9AB
:101D2000061303A901F038FF08B010BD00500140B0
:101D3000001402402DE9F04186B01422002101A8D0
:101D400016F0D5FF2B4B1C68002C4FD14FF001082B
:101D5000C3F80080284B00949A6B284842EA080296
:101D60009A639B6B03EA08030093022703260C2562
:101D7000009B01A94FF63F03CDE90137CDE904658A
:101D800001F00AFF01A91E480595CDE90187CDE9BB
:101D9000034601F001FF48F2331301A919480595E4
:101DA000CDE90137CDE9034601F0F6FE4FF6837326
:101DB00001A915480595CDE90137CDE9034601F0A4
:101DC000EBFE4CF2037301A910480595CDE90137EC
:101DD000CDE9034601F0E0FE602301A90C4805951A
:101DE000CDE90137CDE9034601F0D6FE06B0BDE8E6
:101DF000F08100BFD01300200038024000140240E0
:101E0000000802400018024000100240000C02408E
:101E10000004024030B50368B3F1804F85B0054639
:101E20002ED10023574A0093116C574CDFF87CE108
:101E300041F001011164126C02F001020092009A5B
:101E40004FF0C062C4E900E24022C4E902234FF42B
:101E500080614FF480524FF48040C4E904124FF483
:101E60008072C4E906022046C4E9083301F0C8FBC9
:101E700008B1FFF799FDAC622C63A56305B030BDD6
:101E8000424A93422BD1002302F50D320193116C8B
:101E90003F4C41F002011164126C3E4902F0020213
:101EA0000192019A4FF02062C4E9001240224FF4DF
:101EB0008060C4E902234FF40062C4E904024FF4D5
:101EC000005C4FF480722046C4E906C2C4E90833BE
:101ED00001F096FB08B1FFF767FDAC62CDE72E4A33
:101EE00093422CD102F50C3200230293116C2B4C3F
:101EF000DFF8BCC041F004011164126C02F004026E
:101F00000292029A4FF08062C4E900C24022C4E902
:101F100002234FF4806E4FF40062C4E904E24FF4F0
:101F20000052A2614FF48072C4E907236362204625
:101F300001F066FB08B1FFF737FD6C629DE7184AB8
:101F400093429BD102F50B3200230393116C154C85
:101F500041F008011164126C134902F00802039267
:101F6000039A4FF04062C4E900124022C4E9022300
:101F70004FF480604FF48052C4E904024FF4804271
:101F8000CFE700BF003802403825012000040040A0
:101F9000202701208860024000080040042801201A
:101FA000000C0040C026012040600240A0600240BA
:101FB0001060024010B514228AB0044600210DEBD7
:101FC000020016F094FE2368B3F1804F13D1002372
:101FD0000193294B1A6B42F001021A631B6B03F049
:101FE00001030193019B0223CDE9053301230993EA
:101FF00005A922482AE0224A934210D100230293E5
:102000001D4B1A6B42F001021A631B6B03F00103B4
:102010000293029B8023059302230693E7E7194A64
:10202000934217D100230393134B17481A6B42F0C6
:1020300008021A631B6B03F008030393039B4FF41E
:1020400080520223CDE90523099305A901F0A4FDDF
:102050000AB010BD0D4A9342FAD100230493064BF7
:102060001A6B42F001021A631B6B03F00103049325
:10207000049B0123CFE700BF00380240000002406C
:102080000004004000080040000C0240000C00402A
:1020900030B5014689B00022362001F035FA3620ED
:1020A00001F066FA0025154B02951A6C144C42F0AB
:1020B00010021A641B6C03F01003029301A903A819
:1020C000029B02F0CBFE02F0B9FE0E4B236040F201
:1020D000E733E36040000C4BB0FBF3F00138606085
:1020E00020462561A56003F039FD20B9204603F0A4
:1020F000D1FB09B030BD0120FBE700BF0038024032
:10210000982801200010004040420F007047FEE771
:10211000FEE7FEE7FEE77047014803F00DBC00BF95
:1021200098280120014802F077BB00BF1826012043
:10213000014801F05DBC00BF8427012001207047E9
:1021400008B516F07DFD162303604FF0FF3008BD83
:1021500008B516F075FD16230360FEE770B50E4650
:1021600015460C46A31B9D4201DC284670BDAFF30B
:10217000008004F8010BF5E770B50E4615460C46D5
:10218000A31B9D4201DC284670BD14F8010BAFF380
:102190000080F5E74FF0FF3070474FF400534B607D
:1021A00000207047012070470020704708B50A4B97
:1021B0001968024609B90949196018686946024454
:1021C0008A4206D916F03CFD0C2303604FF0FF3025
:1021D00008BD1A60FCE700BFD413002020290120AD
:1021E000704710B50421044616F0CCFC204610BD03
:1021F000012908B508D003D3022909D0002002E044
:1022000000F052FB006808BD00F04EFB4068FAE7A2
:1022100000F04AFB8068F6E70048704778A10108A3
:102220000720704713B5002249B102AB019203F8B1
:10223000052D0268946801AAA04702B010BD0846A7
:10224000FBE74089704780897047808870478379B1
:102250008088184480B27047C07900F07F007047D2
:10226000C079C0097047704710B50821044616F0C0
:1022700089FC204610BD704700F5967308684968D0
:1022800003C3704770477047416070477047012330
:10229000037270477047704710B4C4684168621099
:1022A0000346E40701EB02009B6848BF8A585DF8CB
:1022B000044B48BFD358184743682BB183682BB9E8
:1022C000C06800F001007047184670470120704751
:1022D00010B50C21044616F055FC204610BD10B573
:1022E0004FF4AC71044616F04DFC204610BD10B5FD
:1022F0001021044616F046FC204610BD10B508F02B
:10230000C9FF0368BDE810401B6B184710B50446B1
:10231000D0F83C0158B10368DB68984738B1D4F86D
:102320003C0103689B6898470023C4F83C3110BD0A
:10233000F8B5044617460E4608F0CCFF144BC4F817
:1023400054611C60134E144B236000253068C4F8A0
:102350004851C4F84C51114BC4F840310368C4F8DB
:1023600038519B68C4F83C510121C4F84451C4F869
:1023700050719847284600F04DFA336893F876205C
:102380000AB1D86C00B998680FF079FB2046F8BD07
:10239000F42101208821012034A201081CA2010897
:1023A000064BC0F848310023C0F84C3100F5A0734B
:1023B000C0F84401C0F83C31704700BF0125000857
:1023C0002DE9F04707469068DDF820A0994603689C
:1023D0001B6A884615469847B0F5597F05D2424B8F
:1023E000424AA721424816F0F9FB686803681B6A55
:1023F00098470F2803D83F4B3C4AA821F2E7E868EA
:1024000003681B6A98470B2803D83B4B374AA9211E
:10241000E8E708F03FFF08F043FFD9F8000010B1EB
:102420000368DB689847D9F8000010B103681B689F
:102430009847386810B103685B699847D8F800007E
:1024400010B103685B689847386810B103681B686F
:102450009847D8F8000010B103689B689847E8686F
:10246000036800215B6A9847044620B1002343605B
:102470000372224B0360A868036800215B6A9847D7
:10248000064608B100F00EFD6868036800215B6A2B
:102490009847054610B1314600F0C8FCC9F8004025
:1024A000C8F800503E60E5B12B1DCAF80030336813
:1024B000C5F808A03046F563DB6898472B682846C6
:1024C0001B689847214630460AF06AF82368204680
:1024D0001B699847236820465B6998472846BDE8F2
:1024E000F0872B46E1E700BF94A20108AFA40108E2
:1024F00022A3010869A301080CA4010878A201081D
:1025000007B5D0F854310093D0F85021044B00F5B2
:102510009C710448FFF754FF03B05DF804FB00BF53
:10252000E8210120E4210120006A704770478B8870
:1025300080690A68DB0A50F823001044704710B520
:10254000C2B1137BB3B1547BD27A240204F4E064A9
:102550001443C26998B202EB840213888B4202D101
:1025600092F9020010BD05D8013880B2043200286B
:10257000F3D1F7E70020F5E710B52421044616F063
:1025800001FB204610BD000030B589B00446BDF8FF
:1025900050500695BDF84C5005959DF84050049557
:1025A0009DF83C5003959DF8385002959DF83450A5
:1025B00001959DF83050009509F0F6FB054B23601E
:1025C000119BA361129BE361159B2362204609B016
:1025D00030BD00BFC4A501087047000030B5144DE0
:1025E0002C78BFF35B8F14F001048BB01DD128460B
:1025F00016F0CAFAC8B13F2307930E4B06930E4B51
:102600000E4903940122CDE904430423CDE90132AC
:10261000CDE908440A2300940948FFF7B5FF28468E
:1026200016F0BEFA074816F0F7FA05480BB030BDB1
:10263000D81300200CD9010810A60108C4D701083E
:10264000DC130020D92500087047000030B5154D77
:102650002C78BFF35B8F14F001048BB01ED1284699
:1026600016F092FAD0B13F2307930F4B06930F4B0E
:1026700005930123CDE9034302930423CDE90033FD
:10268000152214230A490B48CDE90844FFF77CFFC3
:10269000284616F085FA084816F0BEFA05480BB031
:1026A00030BD00BF0014002010D9010814A6010895
:1026B000D4D7010804140020492600087047000000
:1026C00030B5144D2C78BFF35B8F14F001048BB040
:1026D0001DD1284616F058FAC8B13F2307930E4B78
:1026E00006930E4B0E4903940122CDE904430423C3
:1026F000CDE90132CDE90844282300940948FFF7C9
:1027000043FF284616F04CFA074816F085FA0548AC
:102710000BB030BD2814002014D9010818A60108F8
:10272000FCD801082C140020BD26000800207047AA
:102730000EB403B503AB002153F8042B019309F049
:102740006FF902B05DF804EB03B070470CB407B545
:1027500004AB53F8042B019309F062F903B05DF860
:1027600004EB02B070470000C36B10B5044673B3AE
:10277000038E2BB9184B194AC021194816F02EFAAE
:10278000C38D00EB43035B8B0BB30AF061FC238E1C
:10279000012B03D8134B144AC521EEE7E28D531CDD
:1027A0009BB2092B194688BFA3F10A0104EB410132
:1027B00040F63F10498B814209D10A2B04EB4202BB
:1027C00028BF002304EB4303508B588351832046DA
:1027D000BDE810400AF020BB1CA601084FA7010865
:1027E00025A601086FA601087DA601080AF0CEBA49
:1027F00010B586B002AC84E806001A460AAB059311
:102800000193099B00932146089B08F052F906B0FA
:1028100010BD000038B5D8B9114B12481B681249D9
:10282000BBB11A689C681A4402605A681A440A606C
:102830001C446CB10D4B00221A8000F035F805469F
:1028400000F030F80A4B1C600A4B1D600A4B1880E0
:1028500038BD0A4B03600A4B0B600A4B1C68E8E763
:102860005014002054140020581400205C14002040
:10287000F821012000220120FC21012020D901089B
:1028800018D9010870D90108044B1B6853F82100BE
:10289000034B1B6803EB4000704700BF5814002037
:1028A0005414002002207047004870476014002034
:1028B00010B5FFF7CBFE044C2060FFF701FF60600E
:1028C000FFF78CFEA06010BD6014002070B51E469E
:1028D0000368BDF910505B6B044698472368314686
:1028E00020469A6B9047236829462046DB6BBDE85B
:1028F0007040184781807047C180704770B5036889
:102900000446DB6A154698472368294620461B6B18
:10291000BDE870401847018170474181704770479A
:102920007047704770477047C388D21A8388C91AA6
:10293000036810B45B6D5DF8044B12B209B218471E
:102940004FF6FF7383814FF0FF3303621368C36157
:10295000106070477047704770477047704790F835
:1029600025201AB190F8242002B1186070477047F2
:1029700070477047704770477047704770B4C668BB
:10298000456874100346F60705EB04009B6844BFD6
:102990002C59E35870BC184743682BB183682BB996
:1029A000C06800F00100704718467047012070476A
:1029B00030B4C56844686A100346ED0704EB0200B2
:1029C0009B6848BFA25830BC48BFD35818474368DB
:1029D0002BB183682BB9C06800F00100704718461E
:1029E00070470120704710B51021044616F0CAF850
:1029F000204610BD10B51021044616F0C3F820463D
:102A000010BD10B54FF45971044616F0BBF82046BE
:102A100010BD00F19C028A4202D103685B6B18472B
:102A2000704710B400F5A674A14205D103681B6B72
:102A30005DF8044B1146184700F51274A14202D10B
:102A40000368DB6AF4E75DF8044B7047094A0260EB
:102A500000228280C280028142818281C281028200
:102A60004282C0E90522C26180F82420012280F858
:102A70002520704744BD010810B5262204460021D8
:102A800016F035F92046FFF7E1FF094B2360094BAB
:102A9000A3624FF6FF73A3854FF47F020023C4E9BE
:102AA0000C3284F8383084F83930204610BD00BF2D
:102AB000B0B901080CA2010813460C4A70B514689D
:102AC00005462CB90A4B0B4A0B48352116F086F8FF
:102AD00094F876200AB1E06C00B9A0680268946AA4
:102AE0000A46A4462946BDE8704060478821012077
:102AF0002CA80108F4A801086FA801082DE9F04FDF
:102B000004468BB0A246002509F0CEFBA64BE56338
:102B10004AF8403B4FF0260B5A462946504616F0DD
:102B2000E6F85046FFF792FF0AAE04F170099F4B9A
:102B300023644FF0FF084FF6FF775A46294684F882
:102B40006680A56684F86C50484626F8087D16F025
:102B5000CEF84846FFF77AFF954B2367A4F89670A6
:102B600084F898703146484607F03BFB04F19C031B
:102B70005A4629461846029316F0B9F80298DFF82B
:102B800048B2FFF763FF4FF0010384F8C030894B70
:102B9000C4F89C3004F1D403C4F8C45084F8C8507D
:102BA000A4F8CA70A4F8CC7084F8CE80A4F8D070D1
:102BB00018460393FFF760FF04F5887304F5A678C1
:102BC000184604F512770493FFF756FF404606F0C7
:102BD000BBF8384606F0B8F8774BC4F84433774B67
:102BE000C4F84C33764BC4F85433764BC4F85C339A
:102BF0004FF4A073C4F85053C4F8605300932A46AE
:102C0000F02329465046C4F84843C4F85843FFF718
:102C10005DFE2A4629462846FFF74EFF2A46A06653
:102C200029464846FFF76AFE31464846ADF820502F
:102C300007F0D7FA02989D225F21FFF75FFE052378
:102C4000ADF81C300623A4F8D030324607A902980C
:102C5000ADF8203007F00EFA04F55173C4F8C43013
:102C600003980F221721FFF749FE2A4629462846D6
:102C7000FFF722FFA4F80851C4F804013146039875
:102C8000CDF820B0ADF8245007F0B2F904986522D1
:102C90006421FFF733FE2A4629462846FFF70CFF3A
:102CA0004FF00103C4F84001A4F8445131460498A0
:102CB000ADF82430CDF820B007F09AF9404647220D
:102CC0001721FFF71BFE04234FF0030BADF818305C
:102CD000ADF81C3007AA334606A94046ADF820B02F
:102CE00006F086F87D222B46CDE9005240465A4632
:102CF000072105F023FF64222946404605F01DFE0A
:102D00004046322105F0A5FD04F555720592C4F840
:102D1000442238464FF485721F21FFF7EFFD02234E
:102D2000ADF81830ADF81C304FF00103ADF820308D
:102D300007AA334606A9384606F05AF87D23CDE99E
:102D4000005359462B463846072205F093FE64226D
:102D50002946384605F0F1FD38463221251D05F09B
:102D600078FD059BC4F840335146284605F032FCF7
:102D70004946284605F02EFC0299284605F02AFC13
:102D80000399284605F026FC0499284605F022FC04
:102D90004146284605F01EFC2846394605F01AFC37
:102DA00020460BB0BDE8F08FBCA801085CBA010852
:102DB0005CBB010880B8010804A80108132A0008B8
:102DC0001CA80108232A00080CA20108704710B5AE
:102DD0004FF4AC71044615F0D5FE204610BD10B579
:102DE0000446D0F8540100F012F82046BDE8104027
:102DF00008F028B910B50446FFF79AFA014B236092
:102E0000204610BD58A90108002202607047704793
:102E1000704704387047704710B51021044615F00C
:102E2000B1FE204610BDA0F10400F5E710B5002268
:102E30008260044AC16002F10804203204604260EA
:102E400010BD00BF94A9010870477047014B19607D
:102E5000704700BF18000020024B1960024B196038
:102E6000704700BF1C00002020000020064B074ACE
:102E7000197819B10021116019707047642111602F
:102E800001221A70704700BF6C140020140000204B
:102E9000FFF771BD10B54FF45971044615F072FE7D
:102EA000204610BD38B50446FFF728FE0E4B2360C0
:102EB0000E4D0F4A0F480223042103F04FF801235F
:102EC0000D4A0E48042103F049F801230C4A002161
:102ED000284603F043F802230A4A0021284603F05B
:102EE0003DF8204638BD00BFC4A90108F0240120E8
:102EF00018000020C42701201C000020D825012034
:102F00002000002014000020F02070474FF4A07033
:102F100070472920FEF7EEBC2820FEF7EBBC08B571
:102F2000FEF7BCFCCA20FEF7E5FCC320FEF7C6FC9A
:102F30000820FEF7C3FC5020FEF7C0FCCF20FEF7B0
:102F4000D9FC0020FEF7BAFCC120FEF7B7FC302008
:102F5000FEF7B4FCED20FEF7CDFC6420FEF7AEFCDE
:102F60000320FEF7ABFC1220FEF7A8FC8120FEF741
:102F7000A5FCE820FEF7BEFC8520FEF79FFC0020A4
:102F8000FEF79CFC7820FEF799FCCB20FEF7B2FC04
:102F90003920FEF793FC2C20FEF790FC0020FEF772
:102FA0008DFC3420FEF78AFC0220FEF787FCF72018
:102FB000FEF7A0FC2020FEF781FCEA20FEF79AFC39
:102FC0000020FEF77BFC0020FEF778FCB120FEF726
:102FD00091FC0020FEF772FC1B20FEF76FFCB62070
:102FE000FEF788FC0A20FEF769FCA220FEF766FCCB
:102FF000C020FEF77FFC1020FEF760FCC120FEF72A
:1030000079FC1020FEF75AFCC520FEF773FC452022
:10301000FEF754FC1520FEF751FCC720FEF76AFCB2
:103020009020FEF74BFC3620FEF764FCC820FEF72C
:1030300045FCF220FEF75EFC0020FEF73FFCB020CE
:10304000FEF758FCC220FEF739FCB620FEF752FC12
:103050000A20FEF733FCA720FEF730FC2720FEF7FE
:103060002DFC0420FEF72AFC2A20FEF743FC00205A
:10307000FEF724FC0020FEF721FC0020FEF71EFCDA
:10308000EF20FEF71BFC2B20FEF734FC0020FEF7A0
:1030900015FC0020FEF712FC0120FEF70FFC3F207C
:1030A000FEF70CFCF620FEF725FC0120FEF706FCDF
:1030B0000020FEF703FC0620FEF700FC2C20FEF7A4
:1030C00019FCC820FEF764FC2620FEF713FC012043
:1030D000FEF7F4FBE020FEF70DFC0F20FEF7EEFB01
:1030E0002920FEF7EBFB2420FEF7E8FB0C20FEF77F
:1030F000E5FB0E20FEF7E2FB0920FEF7DFFB4E208A
:10310000FEF7DCFB7820FEF7D9FB3C20FEF7D6FB70
:103110000920FEF7D3FB1320FEF7D0FB0520FEF7B6
:10312000CDFB1720FEF7CAFB1120FEF7C7FB0020DE
:10313000FEF7C4FBE120FEF7DDFB0020FEF7BEFB3F
:103140001620FEF7BBFB1B20FEF7B8FB0420FEF7A2
:10315000B5FB1120FEF7B2FB0720FEF7AFFB3120D5
:10316000FEF7ACFB3320FEF7A9FB4220FEF7A6FBDF
:103170000520FEF7A3FB0C20FEF7A0FB0A20FEF7BC
:103180009DFB2820FEF79AFB2F20FEF797FB0F20D0
:10319000FEF794FB1120FEF7ADFBC820FEF7F8FB0D
:1031A0002920FEF7A7FB2C20BDE80840FEF7A2BBB4
:1031B00008B5FEF773FB0321D320FEF7B7FB80B2FF
:1031C00008BD10B5C4B2022203212046FEF71EFB43
:1031D0000A20FEF761FB204600220321FEF716FBC2
:1031E0000220BDE81040FEF757BB38B50446E4B2F4
:1031F000FEF70AFB00212046FEF71EFB01210546D3
:103200002046FEF719FB40EA052080B238BD10B514
:10321000C4B240212046FEF70FFB030607D54C2120
:103220002046FEF709FB003018BF012010BD012227
:103230004B212046FEF7EAFA204600224B21FEF7FA
:10324000E5FA0020F2E773B50423C4B20E46154632
:10325000D7210DEB03022046FEF708FB019B1BBAAA
:103260001A0DC3F30B23328020462B8001224B2101
:10327000FEF7CCFA00224B212046FEF7C7FA02B037
:1032800070BD000010B50A4A1378984204460DD06C
:10329000517888420AD00BB141B90123D454FEF7CA
:1032A000B3FA2046BDE81040FFF78BBF10BD00BF4A
:1032B0006D14002010B5C4B209212046FEF7BCFAF7
:1032C00040F00102D2B220460921BDE81040FEF7CD
:1032D0009DBA10B5C4B209212046FEF7ADFA092106
:1032E00000F0FE022046BDE81040FEF78FBA38B568
:1032F000C5B20C4628460A21FEF79EFA40EA0402AF
:10330000D2B228460A21BDE83840FEF77FBA10B590
:103310000446FEF77AFA20461F21FFF7E8FF204611
:10332000BDE81040FFF7C6BF38B5C5B20C46284609
:103330000A21FEF781FA20EA0402D2B228460A21C5
:10334000BDE83840FEF762BA10B50446FFF7C1FF8A
:1033500020461F21BDE81040FFF7E6BF10B5C0B200
:103360000C460B21FEF768FA204010BD1F21FFF725
:10337000F5BF0A46C0B20B21FEF748BA1F21FFF77E
:10338000F8BF38B5C5B20C4628461721FEF754FAE7
:1033900020EA0402D2B228461721BDE83840FEF7E1
:1033A00035BA70B5C4B2064604212046FEF744FA89
:1033B000042100F0FB0205462046FEF727FA3046BE
:1033C000F021FFF7DEFF05F0F80220460421FEF7AA
:1033D0001DFA492220212046FEF718FA0220FEF7A6
:1033E0005BFA204601222121FEF710FA20469A229C
:1033F0004121FEF70BFA204601224A21FEF706FA88
:10340000204601224B21FEF701FA204600224B21E3
:10341000FEF7FCF9204601225621FEF7F7F9204677
:1034200001225821FEF7F2F9204601224021FEF741
:10343000EDF92046FF220B21FEF7E8F90220BDE856
:103440007040FEF729BA0000054BD3F8882042F4FB
:103450007002C3F888204FF000629A60704700BF86
:1034600000ED00E008B50B4B1A6842F400721A60D8
:103470001A6842F480621A601A6842F480721A6014
:10348000032000F02FF80020FEF702FEFEF78EFA70
:10349000002008BD003C0240034A044B11681B7821
:1034A0000B441360704700BFD8280120880000201B
:1034B000014B1868704700BFD828012038B5044672
:1034C000FFF7F6FF631C1CBF054B1B78054618BFB2
:1034D000E418FFF7EDFF401BA042FAD338BD00BF50
:1034E00088000020074AD36823F4E0631B041B0C08
:1034F00043F0BF63000243F4003300F4E060034391
:10350000D360704700ED00E0174B70B5DC68C4F382
:103510000224C4F10705042D04F1040328BF042587
:103520004FF0FF36062B06FA05F38CBF033C002450
:1035300021EA0303A34006FA04F422EA0404002863
:1035400043EA0403A8BF00F160404FEA0313BCBF85
:1035500000F00F00054ADBB2AABF00F5614013542A
:1035600080F8003370BD00BF00ED00E014ED00E016
:10357000002808DB4209012300F01F0003FA00F0D5
:10358000014B43F82200704700E100E000280DDB0A
:103590004309012200F01F0002FA00F02033044A20
:1035A00042F82300BFF34F8FBFF36F8F704700BF08
:1035B00000E100E010B5044650B1437903F0FF028A
:1035C00013B90271FEF712FA01236371002010BDD6
:1035D0000120FCE70368DAB223F47F7323F00303CE
:1035E0001821103AB2FBF1F20449032A88BF0433D0
:1035F000895C8365C165806D704700BF14AA0108AE
:1036000070B50446FFF754FF0546002C71D0002327
:1036100084F834302268022384F83530136823F0AC
:103620000103136021680B68D8073CD40B68324D46
:10363000A0691D40D4E901231343E26813432269C2
:10364000134362691343E26903431343226A13433A
:10365000626A042A43EA050302BFD4E90B563543E4
:103660002B430B604B69042A23F0070343EA020350
:103670000BD1A26AE56A13433DB1F8B9012A2DD0F6
:1036800001D3022A01D1EA012BD44B612046FFF776
:10369000A1FFE26D3F23934083600020012360651A
:1036A00084F8353009E0FFF703FF401B0528B9D93E
:1036B00020236365032084F8350070BDB0F5005FFA
:1036C00013D1032AE1D801A050F822F0E336000814
:1036D00087360008E3360008DD360008B5F1C07F04
:1036E000D3D1402363650120E5E7022AF9D9032AF3
:1036F000C8E70120E1E700BF3F8010F070B590F807
:103700003440012C32D0012480F8344090F8354008
:10371000866D012C4FF000054FF0020424D180F893
:10372000354004684565256825F48025256063607B
:103730008368402B0EBFA260A160E260C26D08BF2B
:10374000E1603F239340B360236843F01603236096
:10375000036C1BB1236843F008032360236843F024
:1037600001032360002070BD80F834500220FAE786
:1037700070B50468049D666C45EA034306F0404654
:10378000334363644368E263B3F5403F30D18668F6
:103790001EB1012E03D121F07F41A16370BD022E25
:1037A00001F47F0301F47F45C8B207D1D90CAD0AFB
:1037B000C90241EA451141EAD001EEE7032E01F0CA
:1037C0007F420AD1DB0CED0A9B0243EA451343EA30
:1037D000D003D10F43EAC131DFE7190D2D0B0902E8
:1037E00041EA051141EA1011130F41EA0331D4E710
:1037F000E160D3E710B5044630B390F8393003F0F8
:10380000FF021BB980F83820FEF708F922686168CA
:10381000022384F83930136823F440330B431360D8
:10382000536BA16823F007030B435363136CE168E8
:1038300023F47F5323F03F030B4313640020012341
:10384000E06384F8393010BD0120FCE773B590F8CF
:103850003840012C05464FF0020413D080F839405F
:103860000126069C80F838600094FFF781FF2B68E2
:103870001A6842F40C521A601A6832431A60002027
:1038800002B070BD2046FBE773B515461A4690F8A6
:103890003830012B04464FF0020316D080F839303F
:1038A0000368012680F838605D61079B0093069BE2
:1038B000FFF75EFF23681A6842F40C521A601A6818
:1038C00032431A60002002B070BD1846FBE7026860
:1038D00038B5136823F0050343F00403136004466E
:1038E000FFF7E6FD05462368186810F0010009D1CE
:1038F0001A6822F40C521A60012384F8393084F8D3
:1039000038000FE0FFF7D4FD401BB0F57A7FEAD90D
:10391000E36B43F02003E3630320002384F83900C2
:1039200084F8383038BD70B505682A6842F0040262
:103930002A600129044614BF24351C35FFF7B8FD61
:103940000646286810F020000AD12268136823F484
:1039500064531360012384F8393084F838000FE091
:10396000FFF7A6FD801BB0F57A7FEAD9E36B43F041
:103970002003E3630320002384F8390084F83830FF
:1039800070BD000038B5054608B9012038BD164B9A
:103990001B6B190213D42B6800243F221C6028469D
:1039A0009A601C619C61DC615C625C63FEF758F8A4
:1039B000EC6385F8384085F839402046E6E703682F
:1039C000196811F0010104D0FFF781FF0028E2D04F
:1039D000DBE75A6A920602D5FFF7A5FFF6E7DB6937
:1039E0009B06D8D50121F7E70038024070477047A1
:1039F000036870B55E681D68F207044614D5E905D2
:103A000012D51A6822F480721A60C26B42F0010269
:103A1000C26301229A60042380F83930002380F8C1
:103A20003830436903B19847B20616D5AB0414D5B4
:103A300023681A6822F400521A6020229A60E36B0D
:103A400043F00203E363042384F83930002384F84D
:103A5000383063690BB120469847300716D52905E1
:103A600014D523681A6822F400621A6008229A604A
:103A7000E36B43F00403E363042384F83930002349
:103A800084F8383063690BB12046984772070BD52C
:103A90006B0509D523681A6822F480621A60042233
:103AA0009A602046FFF7A2FFB00714D5A90512D5EA
:103AB00023681A6822F400721A6002229A60E36B8B
:103AC000E363012384F83930002384F83830236914
:103AD0000BB120469847F20613D5EB0411D52368A5
:103AE0001A6822F480521A6010229A60E36BE36332
:103AF000012384F83930002384F838302046FFF75A
:103B000076FF70BD90F83830012BF0B54FF002030E
:103B100036D00E01012280F83930831980F8382020
:103B2000D3E9075245EA0242093D012D5C6A194F6B
:103B300003680FD804F07F4C4CEA020269B9596A55
:103B400039400A435A6282699A61426A22F07F428E
:103B50009A620FE042EA0462A1B1D9690644394091
:103B60000A43012DDA6198BF24F07F44B2691A61DB
:103B700098BF1C62012380F83930002380F8383068
:103B80001846F0BD596A39400A435A6282699A61FF
:103B9000F0E700BFF0FFFC002DE9F04F85B00B68A7
:103BA000DFF8C4816E4ADFF8C49101930023012439
:103BB000019D9C402540AC4240F0B8804C6824F008
:103BC000100C4FEA430E03260CF1FF3706FA0EF6EF
:103BD000012F6FEA060611D8876807EA060ACF6840
:103BE00007FA0EF747EA0A078760476827EA050AD7
:103BF000C4F300179F4047EA0A074760C76807EA0F
:103C0000060A8F6807FA0EF747EA0A07BCF1020FA7
:103C1000C76016D14FEAD30A00EB8A0A03F0070BFC
:103C2000DAF820704FEA8B0B4FF00F0C0CFA0BFCFC
:103C300027EA0C0C0F6907FA0BF747EA0C07CAF8DA
:103C4000207007683E4004F0030707FA0EFE4EEAB4
:103C500006060660E60069D54FF0000BCDF80CB003
:103C6000D8F844703F4E47F48047C8F84470D8F8FD
:103C7000447007F480470397039F23F0030707F17D
:103C8000804707F59C3703F0030ED7F808A04FEAEA
:103C90008E0E4FF00F0C0CFA0EFCB0422AEA0C0C00
:103CA0004BD006F58066B04249D006F58066B0423A
:103CB00047D006F58066B04245D006F58066B04232
:103CC00043D0484543D006F50066B04241D006F5E2
:103CD0008066B0423FD006F58066B0423DD006F522
:103CE0008066B04214BF0A26092606FA0EF646EA96
:103CF0000C06BE601668EF4314F4803F0CBF3E40D4
:103D00002E431660566814F4003F0CBF3E402E430D
:103D10005660966814F4801F0CBF3E402E43966098
:103D2000D668A40254BF3E402E43D6600133102B08
:103D30007FF43DAF05B0BDE8F08F5E46D5E70126C4
:103D4000D3E70226D1E70326CFE70426CDE70526F1
:103D5000CBE70626C9E70726C7E70826C5E700BF61
:103D6000003C0140000002400038024000140240C4
:103D70000AB1816170470904FBE701684B6913F4DC
:103D800080634FF0000210D06FF480634B612023FA
:103D9000026380F83D3080F83E20036C80F83C20C0
:103DA00043F00403036401207047184670472DE96F
:103DB000F0410446164698468FB22568686937EA8E
:103DC000000017D06B695A0516D52B6843F40073B1
:103DD0002B606FF480636B6120220023236384F8DF
:103DE0003D2084F83E30226C42F00402226484F8C4
:103DF0003C300120BDE8F081731CDFD0FFF758FB99
:103E0000A0EB0800B04201D8002ED6D1002320221A
:103E1000236384F83D2084F83E30226C42F0200277
:103E2000E4E770B504460D46164623685B695B07F8
:103E300001D5002070BD2046FFF79FFFA8B96A1C7E
:103E4000F3D0FFF735FB801BA84201D8002DECD141
:103E500000232022236384F83D2084F83E30226C26
:103E600084F83C3042F0200222640120E2E770B581
:103E700004460D4616462068436913F0400301D0FE
:103E8000002010E04269D2060ED56FF010024261A8
:103E90002022236384F83D2084F83E30226C226483
:103EA00084F83C30012070BDFFF702FB801BA84264
:103EB00001D8002DDFD100232022236384F83D2088
:103EC00084F83E30226C42F02002E8E72DE9F84306
:103ED000089E044690461F464FEA11498DB221685C
:103EE000B9F1010F0CBF4B698B6935EA03030CBFB5
:103EF00001230023984501D0002016E07B1CEFD061
:103F0000FFF7D6FA801BB84201D8002FE7D1002373
:103F10002022236384F83D2084F83E30226C84F80C
:103F20003C3042F0200222640120BDE8F88370B5E5
:103F300004460D46164623685B691B0601D5002022
:103F400070BD2046FFF719FFA8B96A1CF3D0FFF730
:103F5000AFFA801BA84201D8002DECD1002320220B
:103F6000236384F83D2084F83E30226C84F83C3092
:103F700042F0200222640120E2E700002DE9FF4127
:103F8000154602680B9E9846136843F480731360CD
:103F90000F460A9B009600224FF001110446FFF7DE
:103FA00095FF236838B11B68DB0502D54FF4007319
:103FB000236403200AE007F0FE071F610A9A1949EB
:103FC00033462046FFF7F3FE18B1012004B0BDE8E8
:103FD000F081236803905A6903929B6903933246E8
:103FE0000A99039B2046FFF7A2FF40B1236C042BE4
:103FF00001BF2268136843F400731360E5E7B8F16A
:10400000010F236802D1EDB21D61DFE72A0A1A61B0
:104010000A9932462046FFF78AFF0028E6D1236836
:10402000F1E700BF020001002DE9FF419846036857
:104030000B9D16461A6842F480621A601A6842F4B0
:1040400080721A600F460A9B009500224FF0011102
:104050000446FFF73BFF236848B11B68DB0502D528
:104060004FF400732364032004B0BDE8F081FFB275
:1040700007F0FE021A612A490A9A2B462046FFF7EA
:1040800096FE08B10120EFE7236803905A69039276
:104090009B6903932A460A99039B2046FFF747FF33
:1040A00040B1236C042B01BF2268136843F40073F2
:1040B0001360E7E7B8F1010F236825D1F6B21E615E
:1040C0002A460A992046FFF732FF02460028E8D127
:1040D00021680B6843F480730B6020460A9B0095AF
:1040E0004FF00111FFF7F2FE23680028B5D147F029
:1040F00001071F610A9A0A492B462046FFF757FE1F
:10410000003018BF0120AFE7320A1A610A992A4627
:104110002046FFF70CFF0028C3D12368CEE700BF7D
:104120000200010070B5044608B9012070BD90F886
:104130003D3003F0FF021BB980F83C20FDF7A2FCE4
:10414000242384F83D3023681A6822F001021A60A3
:104150001A6842F400421A601A6822F400421A6097
:1041600000F06CFE6368414A93424DD8404A904249
:10417000DBD922683F495568B0FBF1F125F03F05D6
:104180000D435560156A25F03F0501312943116241
:10419000D169364D21F44F41AB4221F0FF0100F1CE
:1041A000FF3048D85B00B0FBF3F0431CC3F30B03B4
:1041B000042B38BF04230B43D361D4E907301168C3
:1041C000034321F0C0010B4313609168D4E903035A
:1041D00021F40341034321F0FF010B439360D4E931
:1041E0000530D168034321F0FF010B43D36013680E
:1041F00043F00103136000202023206484F83D3045
:10420000206384F83E0091E71B4A90428DD92268D2
:10421000184E5568B0FBF6F625F03F05354355605E
:10422000156A4FF49671714325F03F054FF47A7685
:10423000B1FBF6F1A9E7A56855B903EB4303B0FB61
:10424000F3F0431CC3F30B036BB143F40043B2E739
:1042500019256B43B0FBF3F0431CC3F30B0313B1FD
:1042600043F44043A7E70123A5E700BFA086010070
:104270007F841E0040420F00FF083D002DE9F743F8
:10428000044699460F4690460C9EFFF711F994F8A4
:104290003D30202B054603D0022003B0BDE8F0835B
:1042A0000090192301223B492046FFF70FFE00280A
:1042B000F2D194F83C30012BEED0012384F83C304D
:1042C00023681A68D1075EBF1A6842F001021A60BB
:1042D0001A6822F400621A60212384F83D304023DA
:1042E00084F83E30002323640A9B6362BDF82C30BF
:1042F0006385638D2385284BE362CDE900654B46DA
:10430000424639462046FFF739FE00282AD00120D0
:10431000C3E7FFF70CFE40B1236C042B01BF2268FA
:10432000136843F400731360F1E7636A27681A4661
:1043300012F8011B39616262628D218D013A92B2DD
:1043400062857A69481E80B2520720850AD548B135
:104350005A783A6102336362638D013B02399BB242
:1043600021856385238D2A4631462046002BD0D1F6
:10437000FFF757FD0028CFD12268136843F400737C
:104380001360202384F83D3084F83C0084F83E001C
:1043900083E700BF020010000000FFFF2DE9F0439B
:1043A000044687B099460D469046109FFFF780F867
:1043B00094F83D30202B064604D00225284607B04D
:1043C000BDE8F08300901923012277492046FFF7CA
:1043D0007DFD0028F1D194F83C30012BEDD0012374
:1043E00084F83C3023681A68D0075EBF1A6842F030
:1043F00001021A601A6822F400621A60222384F80B
:104400003D30402384F83E30002323640E9B6362DA
:10441000BDF83C306385638D2385644BE362294698
:10442000CDE900764B4642462046FFF7FDFD0546A6
:1044300008B10125C2E7228D236892B902905A691A
:1044400002929A690292029A1A6842F400721A6001
:10445000202384F83D30002384F83E3084F83C303B
:10446000ACE7012A2CD11A6822F480621A6003900A
:104470005A6903929A690392039A1A6842F4007285
:104480001A60DFF82C81238D002BE1D0032B6ED82E
:10449000012B2DD1324639462046FFF7E8FC002893
:1044A000C7D123681A69636A1A70636A0133636249
:1044B000238D013B2385638D013B9BB26385E2E73E
:1044C000022A0ED11A6822F480621A601A6842F435
:1044D00000621A6004905A6904929B690493049BD9
:1044E000CFE705905A6905929B690593059BC8E73C
:1044F000022B00963B464FF000024146204619D160
:10450000FFF7E4FC002894D123681A6842F4007293
:104510001A601A69636A1A70626A531C6362238D97
:10452000013B2385638D013B9BB2638523681B6937
:104530005370BAE7FFF7CAFC024600287FF479AF50
:104540002368196821F4806119601969636A197018
:10455000636A009601336362238D013B2385638D7B
:10456000013B9BB2638541463B462046C8E7324645
:1045700039462046FFF77BFC00287FF45AAF2368BA
:104580001A69636A1A70626A531C6362238D013B65
:104590002385638D013B9BB2638523685969490775
:1045A0007FF571AFC3E700BF020010000000FFFFFE
:1045B0000400010090F83D20D2B2202A10B516D197
:1045C000242380F83D3003681C6824F001041C603B
:1045D0005C6A24F010045C625C6A214359621968C9
:1045E00041F00101196080F83D20002010BD02203B
:1045F000FCE730B590F83D40E4B2202C16D10268BB
:10460000242380F83D30156825F001051560556AB2
:104610004FF6F0732B400B439BB25362136843F089
:104620000103136080F83D40002030BD0220FCE70C
:104630002DE9F043D20104684F68E568D1F800C065
:10464000D1F818908432A3180CF10106586800F4D0
:1046500070405860E068C5F30B45C0F30B40304430
:104660003D4440EA05405860E068CD68C0F30A0068
:104670000544986800F470409860E6688868C6F35E
:104680000A060130304440EA0540986018690E6916
:1046900020F0070018614FF0000E1E619D6991F82F
:1046A000320091F83180C3F818E091F8305045EAB3
:1046B000096545EA082545EA00459D61586920F0ED
:1046C000FF00586148695861D86920F4E06020F023
:1046D0000700D861D1E907500543DD61986A486A4F
:1046E000C3F828E098621EB3012E23D0B01E022822
:1046F00022D9072E0CBF02200120DD6A05F0E0253B
:10470000DD628D6AC96AA7EB0C0745437843033025
:1047100040EA0540D862186B20F4FF6020F00700E3
:1047200018631963A35843F00103A350BDE8F08355
:104730000420E2E70320E0E70220DEE738B5044684
:10474000002863D090F8A13003F0FF021BB980F875
:10475000A020FDF7F3F9022384F8A13023689A69B9
:1047600022F070429A61D4E901200243E06899691D
:104770000243206902430A439A619A6824496069A6
:104780000A409A609A6842EA0042A06902439A602D
:10479000DA68E0690A40DA60DA6842EA0042206AD0
:1047A0000243DA601A69606A0A401A611A6942EAC9
:1047B0000042A06A02431A615A69114059615A695C
:1047C000E16A42EA0142216B0A435A61D96A94F8CC
:1047D000360094F8355001F07F41D962D96A94F8D7
:1047E00034200A4342EA052242EA0042DA625A6B66
:1047F00042F006025A639A6942F001029A6100206F
:104800000123C4F8A40084F8A13038BD0120FCE7DE
:1048100000F800F070477047036870B59E6B5D6BE1
:104820007207044614D5690712D55A6B22F00402A8
:104830005A630422DA63D0F8A43043F00103C0F8CD
:10484000A430002380F8A12080F8A030FFF7E2FF19
:10485000B20716D5AB0714D523685A6B22F00202B3
:104860005A630222DA63D4F8A4301343C4F8A430A4
:10487000042384F8A130002384F8A0302046FFF7F9
:10488000C9FFF00710D5E9070ED523685A6B22F04F
:1048900001025A630122DA63002384F8A12084F81C
:1048A000A0302046FCF786FC320711D52B070FD528
:1048B00023685A6B22F008025A630822DA63012344
:1048C00084F8A130002384F8A0302046FFF7A3FF2E
:1048D00070BDF8B590F8A030012B06468C46964680
:1048E0004FF002001DD034240D4686F8A10004FBD1
:1048F00002640FCD0127383486F8A0700FC40FCDA5
:104900000FC40FCD0FC42B6823603046724661463A
:10491000FFF78EFE336800205F6286F8A17086F88C
:10492000A000F8BD90F8A030012B4FF0020312D088
:1049300080F8A13003685A6B22F001025A63074ADB
:1049400011645A6B42F001025A63012380F8A130CE
:10495000002380F8A0301846704700BF006801406F
:104960002DE9F341044608B901203FE00368DD0763
:1049700010D4236898075AD423681A0700F19C8042
:1049800023685B0700F1BA80A069002840F01B8112
:1049900000202BE0A74B9A6802F00C02042A07D0F3
:1049A0009A6802F00C02082A0AD15B68590207D5FE
:1049B000A04B1B689A03DCD56368002BD9D1D3E7E1
:1049C00063689C4DB3F5803F13D12B6843F480336B
:1049D0002B60FEF76DFD974D06462B689B03C8D4F0
:1049E000FEF766FD801B6428F7D9032002B0BDE8FE
:1049F000F081B3F5A02F04D12B6843F480232B6002
:104A0000E3E72A6822F480322A602A6822F48022AE
:104A10002A60002BDDD1FEF74BFD06462B689F0375
:104A2000A7D5FEF745FD801B6428F7D9DDE7814B4C
:104A30009A6812F00C0F07D09A6802F00C02082A4C
:104A400011D15B685E020ED47A4B1A68950702D5C5
:104A5000E268012A88D11A68216922F0F80242EA44
:104A6000C1021A6088E7E268734BB2B101221A6092
:104A7000FEF71EFD6F4D06462B68980707D52B687D
:104A8000226923F0F80343EAC2032B6074E7FEF7C0
:104A90000FFD801B0228EFD9A7E71A60FEF708FD7B
:104AA000644D06462B6899077FF566AFFEF700FD5B
:104AB000801B0228F6D998E76269604B7AB101221F
:104AC0001A60FEF7F5FC5B4D06466B6F9F073FF5DE
:104AD00057AFFEF7EDFC801B0228F6D985E71A6078
:104AE000FEF7E6FC534D06466B6F98077FF548AF1F
:104AF000FEF7DEFC801B0228F6D976E74D4B1A6CD8
:104B000012F0805228D101921A6C42F080521A643D
:104B10001B6C03F080530193019B0126484D2B68C9
:104B2000D9051BD5A368434D012B27D12B6F43F02B
:104B300001032B67FEF7BCFC3E4D074641F2883867
:104B40002B6F9B0739D5002E3FF41EAF394A136CEB
:104B500023F08053136417E70026DFE72B6843F444
:104B600080732B60FEF7A4FC07462B68DA05D9D4C6
:104B7000FEF79EFCC01B0228F7D936E7052B04D1AF
:104B80002B6F43F004032B67D0E72A6F22F001025A
:104B90002A672A6F22F004022A67002BCAD1FEF787
:104BA00087FC41F2883807462B6F9807CBD5FEF774
:104BB0007FFCC01B4045F7D917E7FEF779FCC01B07
:104BC0004045BDD911E71B4DAB6803F00C03082B22
:104BD00047D01C4E00230228336035D1FEF768FC15
:104BE00007462B6899011ED4D4E907321343626A41
:104BF00043EA8213E26A43EA0263A26A0D4C520856
:104C0000013A43EA02436B6001233360FEF750FC34
:104C1000054623689A013FF5BBAEFEF749FC401BF1
:104C20000228F6D9E1E6FEF743FCC01B0228D8D9DA
:104C3000DBE600BF0038024000004742800E4742DA
:104C40000070004060004742FEF732FC04462B68CB
:104C50009B017FF59DAEFEF72BFC001B0228F6D9C9
:104C6000C3E601283FF4C2AE6868E36900F480023D
:104C70009A427FF479AE226A00F03F0393427FF4B8
:104C800073AE626A47F6C073034093427FF46CAE22
:104C9000A26A00F4403393427FF466AEE36A00F008
:104CA0007060C01A18BF0120A0E600BF134908B504
:104CB0008B6803F00C03042B03D0082B03D010489F
:104CC00000E0104808BD4A684B68496813F4800347
:104CD00014BF0C480A48C1F3881118BF002302F022
:104CE0003F02A1FB0001FBF7D3FA044B5B68C3F35F
:104CF000014301335B00B0FBF3F0E3E7003802400F
:104D00000024F40000127A002DE9F0410D4604461B
:104D100010B90120BDE8F081434B1A6802F00F0280
:104D20008A4228D321688F072DD4C80740D43E4B30
:104D30001A6802F00F02AA4265D8226851076BD4A4
:104D4000130707D5394A2169936823F4604343EA7E
:104D5000C1039360FFF7AAFF344B354A9B68C3F346
:104D60000313D35CD840334B1860334B1868FDF7FE
:104D70008FF90020CEE7CAB21A701B6803F00F0348
:104D80008B42C6D1CEE7294B11F0040F1EBF9A68A3
:104D900042F4E0529A600E0742BF9A6842F46042C1
:104DA0009A609A68A06822F0F00202439A60BCE719
:104DB00062681E4B012A1CD11B6813F4003FA8D067
:104DC0001A4EB36823F003031343B360FEF770FB7E
:104DD00041F288380746B368626803F00C03B3EB0E
:104DE000820FA4D0FEF764FBC01B4045F3D903201B
:104DF00090E7911E01291B6802D813F0007FDEE7BF
:104E000013F0020FDBE7EAB21A701B6803F00F031E
:104E1000AB427FF47EAF90E70449E0688B6823F4EF
:104E2000E05303438B608BE7003C024000380240B4
:104E3000FCA90108840000208C000020044B054AD6
:104E40009B68C3F38223D35C034A1068D840704741
:104E5000003802400CAA0108840000200F230360E0
:104E60000B4B9A6802F0030242609A6802F0F0026B
:104E700082609A6802F4E052C2609B68DB0803F427
:104E8000E0530361034B1B6803F00F030B60704793
:104E900000380240003C0240036813F0430FF7B5AE
:104EA000044640F08A80236813F00C0F44D0894DEB
:104EB000894E00232B60FEF7FBFA074633689B0000
:104EC00000F1CC8021684F0715D5D4E90403D6F84A
:104ED00088201B0602F0E04243EA80131343C6F821
:104EE0008830D6F88C30226A23F4F853013A43EA2A
:104EF0000223C6F88C300E0714D5774AA369D2F87E
:104F0000881020691B0701F0706143EA80130B438E
:104F1000C2F88830D2F88C30616A23F440330B43F6
:104F2000C2F88C3001232B60FEF7C2FA6A4D0646A8
:104F30002B68980040F1998023689A0633D50023A6
:104F40000193654B654D1A6C42F080521A641B6CDC
:104F500003F080530193019B2B6843F480732B6013
:104F6000FEF7A6FA06462B68D90540F185805A4D12
:104F70002B6F13F4407340F08680A36A03F44072F1
:104F8000B2F5407F544A40F0A080916823F0704011
:104F900021F4F81120F4407001439160116FC3F3C4
:104FA0000B030B431367206810F010001FBF4C4B1E
:104FB00094F82C201A6000204EE04A4D464E002303
:104FC0002B60FEF775FA074633681B013ED4216853
:104FD000CF0741BFD4E901231B0743EA8213C6F878
:104FE00084308E0715D53C4AE368D2F884006668A1
:104FF0001B0600F0E04043EA86130343C2F8843006
:10500000D2F88C00E36920F01F00013B0343C2F893
:105010008C3048060AD5E36862681B0643EA8213AF
:10502000A26843EA02732C4AC2F8843001232B6041
:10503000FEF73EFA284D06462B6819013FF533AFBF
:10504000FEF736FA801B0228F6D904E0FEF730FAA4
:10505000C01B0228B8D9032003B0F0BDFEF728FA20
:10506000C01B02287FF62AAFF5E7FEF721FA801B66
:1050700002287FF65DAFEEE7FEF71AFA801B0228E2
:105080007FF671AFE7E7A26A02F4407293423FF401
:1050900074AF2B6F144A0121116023F44073002177
:1050A00011602B672B6FDA077FF567AFFEF700FA09
:1050B00041F2883706462B6F9B073FF55EAFFEF740
:1050C000F7F9801BB842F6D9C5E7916821F4F811C9
:1050D00063E700BF700047420038024000700040A4
:1050E000E011474268004742400E474238B50D463E
:1050F0000446C8B190F82C3003F0FF021BB980F8C9
:105100002D20FCF717FE022384F82C30211D206887
:1051100000F06AFF62682068294600F09BFF0123C7
:1051200084F82C30002038BD0120FCE738B5044657
:1051300090F82C00C0B202280D460DD0022384F84E
:105140002C30206800F0C3FF2B68022B0CBF052316
:10515000012384F82C30002038BD10B5044690F8A7
:105160002C00C0B2022809D0022384F82C30206819
:1051700000F0D2FF012384F82C30002010BDF8B5D8
:1051800004460E4615461F4621688A6836EA020321
:1051900001D000202DE06B1CF7D0FEF789F9C01B71
:1051A0008542F1D823685A6822F0E0025A606268AA
:1051B000B2F5827F0AD1A268B2F5004F02D0B2F5F3
:1051C000806F03D11A6822F040021A60A26AB2F519
:1051D000005F07D11A6822F400521A601A6842F47C
:1051E00000521A60012384F85130002384F85030B3
:1051F0000320F8BD38B513464268B2F5827F0446F5
:105200001FD18268B2F5004F02D0B2F5806F07D18E
:1052100025682868B2F5806F20F04000286007D02C
:105220000A4680212046FFF7AAFF20B9002038BD9A
:105230000A460121F6E7636D43F02003636503200E
:10524000F5E70A460121EEE773B51346124A134EFD
:1052500015684268B5FBF6F64FF47A757543B2F5FA
:10526000827F044601950BD10A468021FFF787FF14
:1052700078B1636D43F020036365032002B070BD15
:10528000019B33B1019B013B019323689B681B0683
:10529000F6D40020F2E700BF8400002000366E0143
:1052A00010B50446002836D00023836290F85130B0
:1052B00003F0FF021BB980F85020FCF705FD2168C0
:1052C000A269022384F851300B6823F040030B607D
:1052D000D4E901300343E068034320690343606974
:1052E0000343E0690343206A0343A06A034302F4D3
:1052F000007003430B60120C636A02F004021A434D
:105300004A60CB6923F40063CB6100200123606510
:1053100084F8513010BD0120FCE72DE9F3411E4611
:1053200090F85030012B04460D46904600F09B80CB
:10533000012380F85030FEF7BBF8074694F851007F
:10534000C0B2012840F08D80002D5DD0B8F1000F73
:105350005AD0032384F851300020A3686065A0630D
:10536000A4F83680A087E087C4E910002068256390
:10537000B3F5004F08BF0368A4F8348004BF43F4BA
:10538000804303600368E2685B065EBF036843F026
:1053900040030360B2F5006F63683ED113B1B8F10A
:1053A000010F07D135F8023BC3602563E38E013B53
:1053B0009BB2E386E38E9BB2A3B93A4631462046C0
:1053C000FFF742FF002849D1A36833B9019323684E
:1053D000DA6801929B680193019B606D003018BFF1
:1053E000012011E022689368980705D5236B33F8F4
:1053F000021BD1602363D9E7FEF75AF8C01BB04205
:10540000D8D3711CD6D00320012384F85130002357
:1054100084F8503002B0BDE8F08113B1B8F1010F4B
:1054200008D12B780373236B01332363E38E013B95
:105430009BB2E386E38E9BB2002BBED023689A68B2
:10544000920703D5226B12781A73ECE7FEF730F857
:10545000C01BB042EED3731CECD0D4E720236365AD
:10546000B2E70220D0E70220D4E72DE9F7431E4639
:1054700090F850300A9F012B04460D46914600F0EB
:10548000E280012380F85030FEF712F894F8513092
:105490006168DBB2012B80460AD0B1F5827F40F013
:1054A000D080A068002840F0CC80042B40F0C98058
:1054B000002D00F0C480B9F1000F00F0C080002E74
:1054C00000F0BD8094F85130C4F83890042B1CBF14
:1054D000052384F8513000236365C4E91033236841
:1054E000E687E6861A68A687500658BF1A682563BD
:1054F00058BF42F04002A68658BF1A60E268B2F573
:10550000006F58D109B1012E07D135F8022BDA60AE
:10551000E38E2563013B9BB2E3860125E38E9BB2BC
:10552000ABB9E38F9BB293B9424639462046FFF7A9
:105530008BFE002840F08180A368002B32D12368C5
:105540000190DA6801929B680193019B2AE022682E
:10555000936899070DD5E38E9BB253B14DB1236B80
:1055600033F8021BD1602363E38E013B9BB2E386D9
:1055700000259368DB070CD5E38F9BB24BB1A36B7F
:10558000D26823F8022BA363E38F013B9BB2E3872E
:105590000125FDF78DFFA0EB08008742BED87E1CD9
:1055A000BCD00320012384F85130002384F850300C
:1055B00003B0BDE8F08309B1012E08D12A781A732F
:1055C000236B01332363E38E013B9BB2E38601250A
:1055D000E38E9BB21BB9E38F9BB2002BA4D0226851
:1055E000936898070ED5E38E9BB25BB155B1236BE0
:1055F0001B781373236B01332363E38E013B9BB250
:10560000E386002522689368D9070DD5E38F9BB206
:1056100053B1A36BD2681A70A36B0133A363E38FFA
:10562000013B9BB2E3870125FDF742FFA0EB080099
:105630008742CDD87B1CCBD0B3E720236365012004
:10564000B0E70220AEE70220B2E72DE9F3411D46A4
:105650004368B3F5827F0446884617460CD18368B9
:1056600053B9042380F85130134600950A46FFF7DA
:10567000FCFE02B0BDE8F08194F85030012B79D0E7
:10568000012384F85030FDF713FF064694F85100CB
:10569000C0B201286CD1B8F1000F57D0002F55D0FF
:1056A000042384F85130A268A7870023636523632D
:1056B000E787A386E386C4E910332368C4F83880FB
:1056C000B2F5004F02BF1A6822F480421A601A68CD
:1056D00057065EBF1A6842F040021A60E368F3B1F1
:1056E000E38F9BB2FBB123689A68D20735D5DA689D
:1056F000A36B23F8022BA363E38F013B9BB2E387E9
:10570000EEE723689A68D00718D5A26B1B7B13704D
:10571000A36B0133A363E38F013B9BB2E387E38F6A
:105720009BB2002BEDD1324629462046FFF762FDA1
:10573000D8B9606D003018BF012007E0FDF7B8FE52
:10574000801BA842EBD3691CE9D00320012384F815
:105750005130002384F850308BE7FDF7A9FE801B01
:10576000A842BDD36B1CBBD0EFE720236365E0E705
:105770000220EBE702207CE7036A23F001030362C7
:10578000036A70B5446882690D6822F073022A4387
:105790008D6823F002032B430E4DA84202D00E4E1B
:1057A000B04210D1CE6823F008033343A84223F05F
:1057B000040302D0084DA84205D1D1E9055624F4CE
:1057C000407435432C43446082614A6842630362FB
:1057D00070BD00BF0000014000040140036A23F4D3
:1057E00080730362036A70B54468C2690D6822F071
:1057F00073022A438D6823F4007343EA0523114D95
:10580000A84203D005F58065A84214D1CD6823F4E1
:10581000006343EA05230B4DA84223F4806303D0C1
:1058200005F58065A84206D1D1E9055624F4405417
:10583000354344EA05144460C2614A68C2630362A6
:1058400070BD00BF00000140036A23F4805303626F
:10585000036A30B54468C2690D6822F4E64242EA40
:1058600005228D6823F4005343EA0533084DA8420E
:1058700003D005F58065A84204D14D6924F4804425
:1058800044EA85144460C2614A680264036230BD20
:10589000000001400368DA6842F00102DA609A68A9
:1058A00002F00702062A1EBF1A6842F001021A60BF
:1058B00000207047704770477047704710B5846B81
:1058C000626A0123824284F83D3006D12377204664
:1058D000FFF7F3FF0023237710BDA36A834201D1B2
:1058E0000223F3E7E36A834201D10423EEE7236B4B
:1058F0008342ECD10823E9E7704710B5846B626AF4
:105900000123824284F83D3006D123772046FFF7F9
:10591000F3FF0023237710BDA36A834201D1022342
:10592000F3E7E36A834201D10423EEE7236B83426A
:10593000ECD10823E9E7704703681A69910710B5AD
:1059400004460ED5DA6892070BD56FF002021A6191
:105950009B6901229B07027777D0FFF7ADFF0023F9
:10596000237723681A69500710D5DA6851070DD5D7
:105970006FF004021A619B69022213F4407F2277C0
:10598000204668D0FFF798FF0023237723681A6921
:1059900012070FD5DA6810070CD56FF008021A61EC
:1059A000DB6904229907227720465AD0FFF784FF4B
:1059B0000023237723681A69D20610D5DA68D00647
:1059C0000DD56FF010021A61DB69082213F4407FD5
:1059D000227720464BD0FFF76FFF00232377236801
:1059E0001A69D10708D5DA68D20705D56FF0010228
:1059F0001A612046FBF7CEFF23681A69100608D506
:105A0000DA68110605D56FF080021A61204600F0B1
:105A1000EAFA23681A69520608D5DA68500605D5ED
:105A20006FF040021A612046FFF785FF23681A696C
:105A3000910622D5DA6892061FD56FF02002204623
:105A40001A61BDE8104000F0CDBAFFF734FF2046E0
:105A5000FFF733FF83E7FFF72EFF2046FFF72DFF09
:105A600092E7FFF728FF2046FFF727FFA0E7FFF7A1
:105A700022FF2046FFF721FFAFE710BD704708B5B2
:105A8000806B012380F83D30FFF7F8FF08BD000070
:105A9000304A0368904212D0B0F1804F0FD0A2F587
:105AA0007C4290420BD002F58062904207D002F512
:105AB0008062904203D002F57842904219D14A6840
:105AC00023F070031343234A904229D0B0F1804F52
:105AD00026D0A2F57C42904222D002F5806290420C
