:020000040800F2
:1000000000000320E97600081524000817240008E2
:10001000192400081B2400081D240008000000000B
:10002000000000000000000000000000F16E000869
:100030001F24000800000000816F0008E56F000821
:1000400039770008397700083977000839770008D0
:1000500039770008397700083977000839770008C0
:1000600039770008397700083977000839770008B0
:1000700039770008397700083977000839770008A0
:100080003977000839770008397700083977000890
:100090003977000839770008397700083977000880
:1000A0003977000839770008397700083977000870
:1000B0003977000839770008397700083977000860
:1000C0003977000839770008397700083977000850
:1000D0003977000839770008397700083977000840
:1000E0003977000839770008397700083977000830
:1000F0003977000839770008397700083977000820
:10010000397700083977000839770008397700080F
:10011000397700083977000821240008397700086A
:1001200039770008397700083977000839770008EF
:1001300039770008397700083977000839770008DF
:1001400039770008397700083977000839770008CF
:1001500039770008397700083977000839770008BF
:1001600039770008397700083977000839770008AF
:100170003977000839770008397700080000000057
:10018000397700083977000839770008397700088F
:10019000397700083977000839770008397700087F
:0C01A0002D2400083977000839240008DD
:1001B00010B5054C237833B9044B13B10448AFF3A1
:1001C00000800123237010BD6001002000000000AA
:1001D000B08E010808B5034B1BB103490348AFF3C8
:1001E000008008BD0000000064010020B08E0108FE
:1001F00053B94AB9002908BF00281CBF4FF0FF318E
:100200004FF0FF3000F072B9ADF1080C6DE904CE8B
:1002100000F006F8DDF804E0DDE9022304B07047E1
:100220002DE9F047089E04468846002B4BD18A42B0
:10023000154667D9B2FA82F24AB1C2F1200701FA33
:1002400002F320FA07F7954047EA030894404FEA83
:10025000154E230CB8FBFEF71FFA85FC0EFB178822
:1002600043EA084307FB0CF1994209D9EB1807F15F
:10027000FF3080F01B81994240F21881023F2B44ED
:100280005B1AA4B2B3FBFEF00EFB103344EA034446
:1002900000FB0CFCA44509D92C1900F1FF3380F0B8
:1002A0000781A44540F2048102382C4440EA07400B
:1002B000A4EB0C0400271EB1D4400023C6E9004380
:1002C0003946BDE8F0878B4209D9002E00F0EB805B
:1002D0000027C6E9000138463946BDE8F087B3FA81
:1002E00083F7002F47D18B4202D3824200F2FA807B
:1002F000841A61EB030301209846002EE0D0C6E982
:100300000048DDE702B9FFDEB2FA82F2002A40F0CF
:100310008F80491B4FEA154E1FFA85F80127B1FB64
:10032000FEFC230C0EFB1C1143EA014308FB0CF1FD
:10033000994207D9EB180CF1FF3002D2994200F232
:10034000CD808446591AA3B2B1FBFEF00EFB101407
:1003500043EA044408FB00F8A04507D92C1900F132
:10036000FF3302D2A04500F2B6801846A4EB080481
:1003700040EA0C409FE7C7F1200CBB4022FA0CFE7C
:100380004EEA030E01FA07F420FA0CF521FA0CF3F9
:100390004FEA1E482543B3FBF8F92C0C08FB193330
:1003A0001FFA8EFA44EA034309FB0AF49C4202FA5C
:1003B00007F200FA07F10BD91EEB030309F1FF3036
:1003C00080F087809C4240F28480A9F10209734446
:1003D0001B1BADB2B3FBF8F008FB103345EA034436
:1003E00000FB0AFAA24508D91EEB040400F1FF3312
:1003F0006BD2A24569D90238744440EA0940A0FB97
:100400000289A4EB0A044C45C2464B4654D351D052
:10041000002E69D0B1EB0A0564EB030404FA0CFC6E
:10042000FD40FC404CEA0505C6E90054002747E7BB
:10043000C2F1200320FA03F7954001FA02F021FAF5
:1004400003F34FEA154E3843010CB3FBFEF71FFAD6
:1004500085F80EFB173341EA034107FB08F38B4293
:1004600004FA02F407D9691807F1FF3C2FD28B4236
:100470002DD9023F2944CB1A81B2B3FBFEF00EFB0B
:10048000103341EA034100FB08F38B4207D9691896
:1004900000F1FF3C17D28B4215D902382944C91A02
:1004A00040EA07473BE73746304609E70746E7E6B5
:1004B0001846FBE64145ABD2B8EB020A69EB0E02E7
:1004C00001381346A4E76046E9E7184695E7674612
:1004D000D1E781467CE702382C4447E7ACF1020CB7
:1004E0002B442FE7384608E73746E9E6704700BF58
:1004F00001F0FF01102A2BDB10F0070F08D010F8D5
:10050000013B013A8B422DD010F0070F42B3F6D1D8
:10051000F0B441EA012141EA014122F007047FF0F1
:1005200000070023F0E80256083C85EA010586EA48
:10053000010685FA47F5A3FA87F586FA47F6A5FA84
:1005400087F68EB9EED1F0BC01F0FF0102F0070290
:1005500032B110F8013B013A83EA010313B1F8D13B
:100560000020704701387047002D06BF354603381C
:10057000073815F0010F07D1013015F4807F02BF55
:10058000013015F4C03F0130F0BC0138704700BFA6
:100590007047704770477047704700F0BBB810B5A0
:1005A0004FF45171044617F0E3FC204610BD0000E3
:1005B00010B5044600F016F9014B2360204610BD2B
:1005C000188F0108704704387047704710B5102124
:1005D000044617F0CDFC204610BDA0F10400F5E75D
:1005E00010B500228260044AC16002F10804203282
:1005F0000460426010BD00BF448F01080022026009
:1006000070477047704700F596730868496803C3E0
:100610007047704710B54FF4AC71044617F0A8FC52
:10062000204610BD10B50446D0F85401FFF7E9FF8D
:100630002046BDE8104009F0E5BE10B50446D0F8EC
:100640003C0158B10368DB68984738B1D4F83C01E5
:1006500003689B6898470023C4F83C3110BD000034
:1006600010B5044600F046FA014B2360204610BD49
:10067000748F010870B51E460368BDF910505B6B9E
:10068000044698472368314620469A6B9047236872
:1006900029462046DB6BBDE87040184781807047D3
:1006A000C180704770B503680446DB6A15469847F9
:1006B0002368294620461B6BBDE87040184701811E
:1006C0007047418170477047704770477047704767
:1006D000C38810B4D21A83885DF8044BC91A036822
:1006E00012B25B6D09B218474FF6FF7383814FF06A
:1006F000FF3303621368C36110607047704770472F
:1007000090F825201AB190F8242002B118607047A3
:1007100070477047704710B50821044617F028FC51
:10072000204610BD10B54FF45171044617F020FC5F
:10073000204610BD094A026000228280C2800281E8
:1007400042818281C28102824282C0E90522C26165
:1007500080F82420012280F82520704778AF010816
:1007600010B526220446002117F089FC2046FFF729
:10077000E1FF094B2360094BA3624FF6FF73A3858A
:100780004FF47F020023C4E90C3284F8383084F837
:100790003930204610BD00BFE4AB0108B88F010816
:1007A00070B513460B4A146805462CB90A4B0B4A20
:1007B0000B48352117F0E8FB94F876200AB1E06C7D
:1007C00000B9A0680268946A0A46A4462946BDE8B2
:1007D0007040604758210120C08F010874900108C3
:1007E000039001082DE9F04F05468BB0AA4600247E
:1007F0000AF03AFF984BEC634AF8403B4FF0260B67
:100800005A462146504617F03AFC5046FFF792FFF1
:100810000AAE05F17009914B2B644FF0FF084FF6BB
:10082000FF775A46214685F86680AC6685F86C40AD
:10083000484626F8087D17F022FC4846FFF77AFF65
:10084000874B2B67A5F8967085F898703146484617
:1008500008F0A7FE05F19C035A462146184603936B
:1008600017F00DFC0398DFF800B2FFF763FF4FF0BD
:10087000010385F8C0307B4BC5F89C3005F1D403EB
:10088000C5F8C44085F8C840A5F8CA70A5F8CC7072
:1008900085F8CE80A5F8D07018460493FFF760FF66
:1008A00005F5887305F5A678184605F512770593C2
:1008B000FFF756FF404607F027FC384607F024FCB8
:1008C0004FF4A07300932246F02321465046FFF7D1
:1008D000D1FE224621462046FFF762FF2246A86647
:1008E00021464846FFF7DEFE31464846ADF8204037
:1008F00008F057FE03989D225F21FFF7D3FE4FF0CB
:100900000703ADF81C300823A5F8D030324607A9FC
:100910000398ADF8203008F08DFD04980F221721C0
:10092000FFF7C0FE224621462046FFF739FFA5F813
:100930000841C5F8040131460498CDF820B0ADF85F
:10094000244008F035FD059865226421FFF7AAFED2
:10095000224621462046FFF723FF4FF00103C5F84A
:100960004001A5F8444131460598ADF82430CDF852
:1009700020B008F01DFD404647221721FFF792FEE8
:100980000523ADF818300623ADF81C300423ADF86C
:10099000203007AA334606A9404607F009FC7D220D
:1009A0002346CDE9004240460322072107F0A6FA7C
:1009B00064222146404607F0A0F92146404607F050
:1009C00028F938464FF485721F21FFF76BFE02238A
:1009D000ADF818304FF001034FF0030BADF82030A5
:1009E00007AA334606A93846ADF81CB007F0E0FB6D
:1009F0007D23CDE90043594623463846072207F0B8
:100A000019FA64222146384607F077F9214638461C
:100A10002C1D07F0FEF85146204606F0BBFF494664
:100A2000204606F0B7FF0399204606F0B3FF04996D
:100A3000204606F0AFFF0599204606F0ABFF414681
:100A4000204606F0A7FF2046394606F0A3FF2846B9
:100A50000BB0BDE8F08F00BF4890010890AC0108D2
:100A600090AD0108B4AA0108B88F0108704770471B
:100A700041607047704701230372704770477047A9
:100A800010B4C468416862100346E40701EB020039
:100A90009B6848BF8A585DF8044B48BFD358184735
:100AA00043682BB183682BB9C06800F00100704720
:100AB000184670470120704710B50C21044617F006
:100AC00057FA204610BD10B54FF4AC71044617F02C
:100AD0004FFA204610BD10B51021044617F048FA11
:100AE000204610BD10B509F0B5FD0368BDE8104003
:100AF0001B6B1847F8B5044617460E4609F0CAFDA9
:100B0000144BC4F854611C60134E144B2360002531
:100B10003068134BC4F83851C4F83C51C4F8403124
:100B2000C4F84451C4F84851C4F84C51C4F8507149
:100B3000036801219B689847284600F0A9FA3368AA
:100B400093F876200AB1D86C00B9986810F06DF966
:100B50002046F8BDC421012058210120F090010851
:100B6000D8900108064BC0F848310023C0F84C313A
:100B700000F5A073C0F84401C0F83C31704700BFD5
:100B8000C50C00082DE9F04707469068DDF820A065
:100B9000994603681B6A884615469847B0F5517F09
:100BA00005D2424B424AA721424817F0EDF9686846
:100BB00003681B6A98470F2803D83F4B3C4AA8217B
:100BC000F2E7E86803681B6A98470B2803D83B4B99
:100BD000374AA921E8E709F03DFD09F041FDD9F8C0
:100BE000000010B10368DB689847D9F8000010B125
:100BF00003681B689847386810B103685B699847B9
:100C0000D8F8000010B103685B689847386810B1E5
:100C100003681B689847D8F8000010B103689B6808
:100C20009847E868036800215B6A9847044620B14A
:100C3000002343600372224B0360A868036800210D
:100C40005B6A9847064608B1FFF7B2FC686803681C
:100C500000215B6A9847054610B13146FFF7C0FC9A
:100C6000C9F80040C8F800503E60E5B12B1DCAF835
:100C70000030C5F808A03368F5633046DB68984754
:100C80002B6828461B689847214630460AF068FEC4
:100C9000236820461B699847236820465B6998476C
:100CA0002846BDE8F0872B46E1E700BF50910108D8
:100CB00065930108DE9101081F920108C2920108A4
:100CC0003491010807B5D0F854310093D0F8502181
:100CD000044B00F59C710448FFF754FF03B05DF826
:100CE00004FB00BFB8210120B421012013B500226C
:100CF00049B102AB019203F8052D0268946801AA7C
:100D0000A04702B010BD0846FBE7408970478089C4
:100D100070478088704783798088184480B2704714
:100D2000C07900F07F007047C079C0097047006A41
:100D3000704770478B8880690A68DB0A50F8230087
:100D40001044704710B5C2B1137BB3B1547BD27A53
:100D5000240204F4E0641443C26998B202EB8402F2
:100D600013888B4202D192F9020010BD05D80138D8
:100D700080B204320028F3D1F7E70020F5E710B580
:100D80002421044617F0F4F8204610BD30B589B090
:100D90000446BDF850500695BDF84C5005959DF899
:100DA000405004959DF83C5003959DF838500295AD
:100DB0009DF8345001959DF8305000950AF0D4F913
:100DC000054B2360119BA361129BE361159B23627A
:100DD000204609B030BD00BF7894010830B5154DEC
:100DE0002C78BFF35B8F14F001048BB01FD1284621
:100DF00017F096F8D8B13F2307930F4B06930F4B8C
:100E00000F4903940122CDE904430423CDE90132C3
:100E1000CDE908440A2300940A48FFF7B7FF2846A3
:100E200017F08AF8084A0949064817F09CF805485F
:100E30000BB030BD7C01002040CB0108C4940108F8
:100E4000DCC901088001002000000020330D0008EB
:100E500030B5154D2C78BFF35B8F14F001048BB0C7
:100E60001FD1284617F05CF8D8B13F2307930F4BEA
:100E700006930F4B0F4903940122CDE90443042349
:100E8000CDE90132CDE90844282300940A48FFF750
:100E90007DFF284617F050F8084A0949064817F020
:100EA00062F805480BB030BDA40100203CCB01081E
:100EB000C894010804CA0108A8010020000000200D
:100EC000330D000830B5164D2C78BFF35B8F14F04E
:100ED00001048BB020D1284617F022F8E0B13F235F
:100EE0000793104B0693104B05930123CDE9034361
:100EF0000293042315220D490D48CDE90033CDE9B5
:100F000008441423FFF742FF284617F015F8094A52
:100F10000949074817F027F805480BB030BD00BF56
:100F2000CC01002044CB0108CC94010814CA01086C
:100F3000D001002000000020330D0008704710B5DC
:100F40000421044617F014F8204610BD012908B505
:100F500008D003D3022909D0002002E000F012F8E3
:100F6000006808BD00F00EF84068FAE700F00AF8E3
:100F70008068F6E700487047E4940108092070474C
:100F80000220704700487047F401002010B5FFF7B9
:100F900099FF044C2060FFF75BFF6060FFF71EFFC6
:100FA000A06010BDF4010020002070470EB403B50E
:100FB00003AB002153F8042B019309F011FF02B099
:100FC0005DF804EB03B070470CB407B504AB53F8FD
:100FD000042B019309F004FF03B05DF804EB02B0A9
:100FE0007047000010B5C36B044673B3038E2BB972
:100FF000184B194AC021194816F0C6FFC38D00EBE3
:1010000043035B8B0BB30BF003FA238E012B03D846
:10101000134B144AC521EEE7E28D531C9BB2092BFA
:10102000194688BFA3F10A0104EB410140F63F10C5
:10103000498B814209D10A2B04EB420228BF0023CD
:1010400004EB4303508B588351832046BDE8104086
:101050000BF0C2B898950108C5960108A195010842
:10106000E5950108F39501080BF070B810B586B04E
:1010700002AC84E806001A460AAB05930193099B6B
:1010800000932146089B08F0F4FE06B010BD000056
:1010900038B5D8B9114B12481B681249BBB11A6850
:1010A0009C681A4402605A681A440A601C446CB175
:1010B0000D4B00221A80FFF765FF0546FFF760FF22
:1010C0000A4B1C600A4B1D600A4B188038BD0A4B46
:1010D00003600A4B0B600A4B1C68E8E70002002023
:1010E00004020020080200200C020020C821012078
:1010F000D0210120CC210120B8CB0508A8CB0508C0
:10110000B4CB0508044B1B6853F82100034B1B6844
:1011100003EB4000704700BF0802002004020020DB
:10112000012380F8741080F87530704700207047F4
:1011300000207047836B0BB10846184770474FF685
:10114000FF707047406803689B691847034B902203
:1011500083F85A2383F85823704700BF00E100E06A
:10116000094A0A49D3680A48C3F30A03013B9BB200
:101170000B801169C1F30A01013901801364536BBB
:1011800043F00103536370470068014010020020E0
:101190000E020020014B986A704700BF846801402E
:1011A000024B0122996243F8602C70478468014029
:1011B00008B531B90A4B0B4A0B484FF4277116F0AA
:1011C000E3FEC0E90F1200320849436418BF012250
:1011D0000A700033064A18BF0123137008BD00BF10
:1011E0008D97010858980108C597010854210120DE
:1011F000552101202DE9F04799461C4B9DF82050C0
:101200008846196891F87630074614460BB1C86CC9
:1012100000B9886803685B6A9847154B1E8870435D
:10122000B9F1000F16D008EB00010A46ADB10B185A
:10123000013CA4B21F2C12D8012101FA04F40D497B
:10124000214061B139684C6F38464146A446BDE83B
:10125000F047604741464A46E8E72B46E8E7064B39
:10126000064A074840F2892116F08EFE58210120D7
:10127000522101208B80808070970108049801081A
:10128000C597010806F0E3BF10B5044607F048FD16
:1012900023682046D3F89430BDE81040184790F8F2
:1012A00077301BB1406803681B68184718467047C1
:1012B00030B590F8744090F83410104B8C421A7886
:1012C0000DD05AB90E4A0F490F4814880F4D0C80A3
:1012D000018811802980048001221A7030BD002A03
:1012E000FCD00948074A01881180054A074D148837
:1012F0002C80118004800022EFE700BF4E210120E6
:101300004A210120502101204C210120522101209D
:10131000034B4FF080629A604FF080729A60704782
:1013200000E100E0084B4FF08062C3F88820BFF373
:101330004F8FBFF36F8F4FF08072C3F88820BFF3D9
:101340004F8FBFF36F8F704700E100E038B5044660
:1013500007F05EFA2368DD6C09F07CF9014620464F
:10136000A8472368054A5D6FA2F516310023204681
:10137000A847002384F84A3038BD00BF005802D087
:1013800010B5134B134A1B6C1188134C8B4213D1AD
:10139000124B198803F03CFC226892F86630013346
:1013A00082F8663000F068FA206807F0B9FC002087
:1013B000BDE8104000F063BC03F02AFC002000F000
:1013C0005FFC20680368BDE810409B69184700BFB8
:1013D0000068014010020020582101200E02002068
:1013E00003685B6C18470020704703689B6A1847C6
:1013F00040F2EF107047000010B5074C074B236018
:10140000204603F077F8064B2361064B6361064BD9
:101410004FF080629A6010BD1C24012000B0024091
:10142000491400082D14000800E100E008B5034A43
:10143000034B0448362116F0A7FD00BF2099010890
:101440009F950108A6980108024B1B68586803681D
:101450005B69184758210120084B10B5036004460A
:10146000074803F015F9074B4FF08062C3F8882056
:10147000BFF34F8FBFF36F8F204610BDD898010880
:101480001C24012000E100E010B50446FFF7E4FF52
:1014900020464FF4426116F06BFD204610BD00005F
:1014A000044B1B6893F876200AB1D86C00B9986891
:1014B000704700BF582101202DE9F3410D68202D10
:1014C0000C4600F0A080402D00F09D802A1F56425F
:1014D0005641802D00F09980A5F580735D425D41F5
:1014E000FFF7DEFF0368DB6998472368402B00F0B5
:1014F000A38000F28C80042B00F09780202B00F05A
:101500009B80102814BF4FF0010C4FF0020C0021FB
:10151000504B228AB4F81680D3F800E059601028A6
:10152000A8EB020814BF012702279F60C3F80C80B4
:10153000DEF8002022F440321143CEF80010D3F838
:1015400000E0C3F82CC0DEF8341021F00701394365
:10155000CEF83410DEF8402022F47F5222F03F0211
:1015600042EA0802CEF84020A28A218A521A9A62E0
:101570000EB9002D34D0227FFF2A1FBF02221A632A
:10158000227F5A6304BF00221A6305B3227FA16938
:1015900010284FEA026052D14FF01F0EC1F3C4224F
:1015A000C2EB0222B2FBFEFC01EA0E02C2EB0222F7
:1015B000B2FBFEF2024342EA0C42C1F34511C1EB19
:1015C00001213F20B1FBF0F142EA01225A63218A56
:1015D000E28A2048521AC3E90627002103F024F9C1
:1015E00001211C4803F020F9238A628A06B94DB311
:1015F000CDE90032E368616816481A4602F0C7FF79
:1016000002B0BDE8F081012666E7012568E7802B7E
:1016100006D0B3F5807F7FF474AF4FF0090C01E082
:101620004FF00A0C4FF4003172E7102814BF4FF04E
:10163000010C4FF0020CF5E74FF0000CF2E701430C
:101640005963C4E700926168E268024802F080FFD3
:10165000D6E700BF1C240120F7B50D46FFF720FF99
:101660000368DB6998471028AB69297F6FD103F0C5
:101670001F02C2EB02221F20B2FBF0F4C3F3C4220C
:1016800044EA0164C2EB0222C3F34513B2FBF0F259
:1016900044EA0244C3EB03233F22B3FBF2F30222EA
:1016A00044EA03242B682C48EF8A082B08BF4FF428
:1016B00000362B8A18BF4FF44036C0E90162FF1A8A
:1016C0000368C760196821F4403131431960D0F8CC
:1016D00000C0DCF8341021F007011143CCF83410BD
:1016E000DCF8403023F47F5323F03F033B43B6F54F
:1016F000003FCCF840301FD10123C0E90C3409234E
:10170000C362298AEB8A5B1AC0E90632002103F022
:101710008BF80121104803F087F8B6F5003F2B8ABB
:101720006A8A0DD1E9680C48CDE900320B460A46B9
:1017300002F02DFF03B0F0BD0023C2628362E8E730
:1017400000922146EA68044802F002FFF2E743EA09
:1017500001640122A6E700BF1C24012070B50546E4
:101760002C460A4B0C30002668602E726E7244F8CC
:10177000203B6022214607F0FFFB05F54263A6618E
:101780002034A342FBD1284670BD00BFD898010881
:10179000012108B50022084605F0BEF8064B4FF0BF
:1017A000FF31186005F00EF900220421012005F038
:1017B0007DF9024B186008BD1802002014020020B9
:1017C00008B5074B186828B9064B074A0748312166
:1017D00016F0DAFB4FF0FF31BDE8084005F0F2B833
:1017E0001802002053990108CA9901086499010858
:1017F00008B5064B186828B9054B064A06483A2131
:1018000016F0C2FBBDE8084005F018B91802002028
:10181000539901088D9901086499010808B5074B8F
:10182000186828B9064B074A0748472116F0ACFB51
:101830000021BDE8084005F0C5B800BF180200202F
:1018400053990108079A01086499010808B5064BE5
:10185000186828B9054B064A0648542116F094FB2F
:10186000BDE8084005F0EAB81802002053990108C5
:10187000479A010864990108044B186820B10023B5
:101880001A46034905F058B9704700BF14020020FA
:101890000400002013B5084C206858B100231A46F4
:1018A00001A905F08BF94FF0FF33002201A9206850
:1018B00005F084F902B010BD140200207047704793
:1018C0007047012070470C2070470C2303FB010078
:1018D000083070470C2303FB0100083070470120DB
:1018E00070474FF4517070474FF4517303FB010080
:1018F000083070474FF4517303FB01000830704704
:10190000012070471020704700EB0110083070472D
:1019100000EB0110083070470846FFF723B90000BC
:1019200010B5034B0360044605F08AFF204610BD46
:10193000FC9A010810B50446FFF7F2FF2046142177
:1019400016F016FB204610BD10B5034B036004468D
:1019500005F076FF204610BDC89A010810B5044670
:10196000FFF7F2FF20464FF4537116F001FB2046BB
:1019700010BD000010B5034B0360044605F060FF86
:10198000204610BD949A010810B50446FFF7F2FFF7
:101990002046182116F0ECFA204610BD10B5084B71
:1019A0000360044600F55E70FFF7BAFF04F12C00F7
:1019B000FFF7CAFF04F11400FFF7DCFF204610BD5B
:1019C000309B010810B50446FFF7E8FF20464FF4AE
:1019D0009D6116F0CDFA204610BD00002DE9F341BF
:1019E000FFF7C8FA0546FFF7C9FA00240146234667
:1019F0002846224600940AF0EFFD274B274A284D3F
:101A00001A602046FFF744FB26480AF02FFD2B788A
:101A1000BFF35B8FDB0738D4284616F081FA002825
:101A200033D0214C214B236004F5647604F114007B
:101A300004F12C0804F55E776060C4F80880E76064
:101A4000266105F0FFFE1A4B6361404605F0FAFE81
:101A5000184BE362384605F0F5FE174BC4F87833AF
:101A600004F56370FEF7CAFD224604F56371304643
:101A7000FEF7F6FD3046FFF775F8284616F05CFADB
:101A80000E4A0F49204616F06EFA0E4802B0BDE825
:101A9000F04100F0F2B800BFD4210120A4130020CF
:101AA0001C0200200800002020020020309B0108BA
:101AB000949A0108C89A0108FC9A010800000020C5
:101AC0009D1900082C130020014800F0ADB800BF9C
:101AD0002C13002010B50421044616F049FA2046C4
:101AE00010BD10B57821044616F042FA204610BD0C
:101AF00010B57821044616F03BFA204610BD0000D0
:101B0000F8B5354C354D364F364B37492B602246AC
:101B1000284616F028FA354E3846FFF71FFE2246B3
:101B20003349384616F01FFA30460DF045FD22467F
:101B30003049304616F017FA22462F492F4816F042
:101B400012FA2F482F4941662F49C5600023012210
:101B5000C0E90176C0E90433C0E90633C0E90833BF
:101B6000038580F82A30C3620386C0E90E33C0E9DA
:101B7000103380F8483080F8492080F84A30C0E9B6
:101B80001333436580F8683080F8693080F86A3034
:101B900080F86B3080F86C30036780F8753080F81F
:101BA000763080F8772008601849194E80F8342084
:101BB000F0250D804FF4A0713180164E3370164B16
:101BC0001D80164B1980164B036022461549BDE84F
:101BD000F84016F0C8B900BF000000200807002038
:101BE0000C070020FC9B0108BD180008A81300206A
:101BF00059140008BF1800083D0F00080800002015
:101C00002C13002001000001582101204A2101204D
:101C10004C2101204E210120502101205221012080
:101C2000449B0108C118000808B5036804469B6E70
:101C30009847236820461B6E9847FFF72BFE2368C2
:101C400020469B6D9847292000F08AFBFFF722FE73
:101C5000236820469B6D9847F8E7FFF79BBAFFF78C
:101C60009FBAFFF70FBBFFF771BAFFF751BBFFF742
:101C700059BBFFF775BA06F0E4BAFFF767BB7047C8
:101C80007047704738B50C4B0C4C18800C4B8220B9
:101C900019806368984740F6110398420AD1094DAC
:101CA00023682C60822098472B688220DB68984745
:101CB000002038BD0120FCE7201400202400002073
:101CC00022140020241400204FF4A071F020FFF70C
:101CD000D9BF0000F7B52C4D2B6804461B69822044
:101CE000984780B2208000284BD02B680DF1060267
:101CF0005B6901A982209847BDF80630A3F5B4734B
:101D00009BB20B22B3FBF2F333B1204A12889A4202
:101D10003CBF02F1FF339BB2BDF8042040F6B8315E
:101D20008A4295BFC2F57162C2F56D620E32083209
:101D3000ADF80420BDF804100F22B1FBF2F131B16F
:101D4000134A12888A423CBF02F1FF3189B2114E18
:101D5000114D30682F6882B2814288BF8A1AB8B2AA
:101D600098BF521ABB428CBF181AC01A92B280B2E6
:101D70000244052AC4BF31602B60336863802B683E
:101D8000A38003B0F0BD00BF241400202214002063
:101D900020140020281400202C14002037B5684699
:101DA0000D461446FFF796FFBDF8000030B1BDF8B0
:101DB00002302B60BDF804302360012003B030BD39
:101DC000054BD3F8882042F47002C3F888204FF006
:101DD00000629A60704700BF00ED00E030B5014638
:101DE00089B00022362001F059FE362001F08AFE2B
:101DF0000025154B02951A6C144C42F010021A641F
:101E00001B6C03F01003029301A903A8029B01F0CD
:101E10006BF801F059F80E4B236040F2E733E360B2
:101E200040000C4BB0FBF3F00138606020462561A8
:101E3000A56001F099F920B9204601F074F809B0C5
:101E400030BD0120FBE700BF003802407C220120AA
:101E50000010004040420F0007B5064B02A91B6866
:101E600021F8020D0122044802F0CEF803B05DF81B
:101E700004FB00BF1400002010230120F0B5302423
:101E8000A1B02246002108A816F0F9F8142200217A
:101E900003A816F0F4F82246002114A816F0EFF873
:101EA0000024224B01941A6C42F080521A641B6C7D
:101EB00003F080530193019B1D4B02941A6842F476
:101EC00040421A601B6803F4404302930122029BC4
:101ED0004FF48033CDE9082302254FF48003CDE988
:101EE0000E5308274FF4A873042608A8CDE91073F1
:101EF0001295139600F076FD0F23CDE903354FF4CC
:101F0000A0514FF48053CDE9061303A80521059491
:101F100000F03CFFC023189314A84FF4003314972B
:101F20001A961D9302F0D4FE21B0F0BD0038024095
:101F30000070004080B59AB002F08AFEFFF79EFF65
:101F4000142200210DA8002416F099F8B44B009437
:101F50001A6BB448B44D42F020021A631A6B02F0B7
:101F600020020092009A01941A6B42F080021A63D8
:101F70001A6B02F080020192019A02941A6B42F0ED
:101F800004021A631A6B02F004020292029A03948A
:101F90001A6B42F001021A631A6B02F001020392FB
:101FA000039A04941A6B42F002021A631A6B02F04D
:101FB00002020492049A05941A6B42F040021A63DA
:101FC0001A6B02F040020592059A06941A6B42F0D1
:101FD00010021A631A6B02F010020692069A079416
:101FE0001A6B42F008021A631B6B03F00803079395
:101FF00022460421079B01F02BFF22464FF440515B
:102000008A4801F025FF012602274FF004080DA998
:1020100084480F94CDE90D86109701F033FE0DA989
:102020004FF440538148CDE90D36CDE90F4701F01B
:1020300029FE7F487F4B036002F078FF7E4A7F4B8A
:102040002C62C5E9002328464FF48043C5E90434D7
:10205000C5E90244C5E9064401F076FA1021284694
:1020600001F0C4FC2146284601F0E2FC74487549A1
:1020700084624FF48273C0E900134FF40075182393
:10208000C0E906530A23704DC362C0E90244C0E9A7
:102090000444C0E9084401F077FF6C4B0D974FF002
:1020A000100CC5E900364023C5E904C34FF4C073E2
:1020B000C5E906344FF40063C5E908344FF4005312
:1020C000AB624FF0030A07230DA92846CDE90E386D
:1020D00010934FF00809C5E90248CDE911A71397FD
:1020E00000F036FC4FF6FF7209A92846CDE90A96A2
:1020F000089409960C9400F04BFC304602F0D4FD95
:102100004FF6FF7209A92846CDE90979CDE90B649C
:1021100000F03EFC4FF6FF7209A92846CDE909A957
:10212000CDE90B8400F034FC4FF40C730893089B4A
:102130000C934FF6FF7209A92846CDE909890B9641
:1021400000F026FC40F26A51284600F038FC3422A8
:1021500021460DEB020015F092FF3D4D3D4B2C61E9
:10216000C5E900340923C5E905361D2340F20D1EDB
:10217000C5E9073A40F24313C5E909E340F21718ED
:1021800040F24713C5E90B83C5E90244AC8685F8E4
:102190003640284602F036FCFF21F022CDE9121429
:1021A0004FF4806905214FF4A073CDE90E24CDE9E9
:1021B0001491CDE916420DA922462846CDE91037E3
:1021C000254D18930D94ADF864408DF8664002F0EB
:1021D000F6FC224B2B601B6898472B68204DDB6870
:1021E0009847204BC5E90A47C5E90C442846C5E98C
:1021F0000034C5E9027402F07DF93146284602F048
:1022000013FB02F0A3FE04F0F7FA174A1748214621
:1022100004F02CFB164B186004F008FBFEE700BF2F
:102220000038024000080240BC220120000C02409D
:102230006823012000300240005C0040A0860100BD
:1022400010230120005001405C240120400100A027
:102250007023012000680140301400204C00002051
:102260001C24012000B00240249C0108514F0008AA
:10227000182401207047704710B586B006AC074B94
:1022800004F8012D1B68029301230A46CDE900439F
:102290000146034801F008FA06B010BD1000002006
:1022A000BC2201207FB506AA002302F8013D084B9D
:1022B0001B6802930123CDE900230A460146054825
:1022C00001F086FA9DF8170007B05DF804FB00BF27
:1022D00010000020BC2201201FB5084C2468009289
:1022E000CDE901340A4601230146054801F070FAA0
:1022F000003018BF012004B010BD00BF1000002046
:10230000BC22012002F0D0BC10B5064C00222046B1
:10231000042101F09DFD204601220421BDE810406A
:1023200001F096BD0008024038B50B4C054601226D
:102330004FF40051094801F08BFD00220421204692
:1023400001F086FD2846FFF787FD20460122042183
:10235000BDE8384001F07CBD00080240000C02409E
:1023600038B50B4C054600224FF40051094801F0E6
:102370006FFD00220421204601F06AFD2846FFF788
:102380006BFD204601220421BDE8384001F060BD0C
:1023900000080240000C0240F7B5144C144D0746EB
:1023A0000E4620460022042101F052FD00224FF487
:1023B0000051284601F04CFD3846FFF74DFD0D4B0E
:1023C0000D481B68324601A901F0B6FF28460122DC
:1023D0004FF40051019E01F03BFD204601220421F3
:1023E00001F036FD304603B0F0BD00BF00080240EA
:1023F000000C0240140000201023012002F054BC05
:102400000268034B9A4201D102F03CBC704700BF06
:10241000001000407047FEE7FEE7FEE7FEE770476A
:10242000014800F095BD00BF7C220120014802F068
:1024300065BB00BF70230120014802F065B900BFF1
:102440001C24012008B50A4B1968024609B909493C
:1024500019601868694602448A4206D915F0C0FD21
:102460000C2303604FF0FF3008BD1A60FCE700BF8B
:1024700034140020D824012082B00E4B0022009298
:10248000596C41F480415964596C01F480410091C8
:1024900000990192196C41F0805119641B6C03F092
:1024A00080530193019B0F216FF0010002B001F0F6
:1024B000F5BA00BF003802400268094B9A4282B068
:1024C0000BD100230193074B1A6B42F480521A631D
:1024D0001B6B03F480530193019B02B0704700BF54
:1024E000003002400038024007B50F4B02689A42A4
:1024F00016D10022A3F5F0430192196B41F40001BB
:1025000019631B6B03F40003019305215A20019BFF
:1025100001F0C4FA5A2003B05DF804EB01F0F2BAFE
:1025200003B05DF804FB00BF00B002400268064B38
:102530009A4207D1054A136B23F4000313635A2010
:1025400001F0EEBA704700BF00B002400038024010
:102550002DE9F043044689B01422002103A815F0A8
:102560008EFD2268244B9A4243D1244C24480025F6
:102570000095236B43F004032363236B03F00403F0
:102580000093009B0195236B43F001032363236BAE
:1025900003F001030193019B4FF012094FF4007304
:1025A0004FF001080327042603A9CDE90339CDE93B
:1025B0000587079601F066FB4FF4807303A9114865
:1025C0000796CDE90339CDE9058701F05BFB02955C
:1025D000236C43F400032364236C03F4000302938D
:1025E000029B236A43F400032362236A23F400035B
:1025F000236209B0BDE8F083005C0040003802406F
:102600000008024000000240F0B504468DB01422DC
:10261000002107A815F033FD2268574B9A4240F07D
:10262000A88003F55043002500955A6C534842F0AA
:1026300080625A645A6C02F080620092009A01959E
:102640001A6B42F020021A631A6B02F02002019208
:10265000019A02951A6B42F001021A631A6B02F09A
:1026600001020292029A03951A6B42F002021A6367
:102670001A6B02F002020392039A04951A6B42F05D
:1026800040021A631A6B02F040020492049A059504
:102690001A6B42F004021A631A6B02F004020592EC
:1026A000059A06951A6B42F008021A631B6B03F039
:1026B0000803069302240E26069B0A944FF48063B7
:1026C00007A9CDE907340B9601F0DCFA41F658036F
:1026D00007A92B480B96CDE907340927CDE9095402
:1026E00001F0D0FA032307A926480B97CDE9073458
:1026F000CDE9095401F0C6FA4FF4706307A92148E7
:102700000B96CDE90734CDE9095401F0BBFA4FF43B
:102710000C6307A91C480B96CDE90734CDE9095491
:1027200001F0B0FAC02307A918480B96CDE9073489
:10273000CDE9095401F0A6FA082307A914480B961D
:10274000CDE90734CDE9095401F09CFA4FF4A053C8
:1027500007A90D480B97CDE90734CDE9095401F0DD
:1027600091FA58202A46052101F098F9582001F0E5
:10277000C9F90DB0F0BD00BF00680140001402406F
:10278000000002400004024000180240000802401D
:10279000000C024010B5044688B01422002103A8A2
:1027A00015F06DFC2268144B9A4223D103F568435F
:1027B000002101915A6C114842F480125A645A6CFB
:1027C00002F480120192019A02911A6B42F02002E7
:1027D0001A631B6B03F020030293029B4FF4607299
:1027E00002230321CDE903230523CDE9061303A921
:1027F00001F048FA08B010BD00500140001402403A
:102800002DE9F04186B01422002101A815F037FC13
:102810002B4B1C68002C4FD14FF00108C3F80080EF
:10282000284B00949A6B284842EA08029A639B6BF3
:1028300003EA08030093022703260C25009B01A945
:102840004FF63F03CDE90137CDE9046501F01AFAEF
:1028500001A91E480595CDE90187CDE9034601F0A0
:1028600011FA48F2331301A919480595CDE901374A
:10287000CDE9034601F006FA4FF6837301A9154826
:102880000595CDE90137CDE9034601F0FBF94CF29E
:10289000037301A910480595CDE90137CDE9034639
:1028A00001F0F0F9602301A90C480595CDE9013745
:1028B000CDE9034601F0E6F906B0BDE8F08100BFBE
:1028C0003814002000380240001402400008024082
:1028D0000018024000100240000C024000040240B8
:1028E0000120704708B515F07BFB162303604FF0FD
:1028F000FF3008BD08B515F073FB16230360FEE733
:1029000070B50E4615460C46A31B9D4201DC2846B9
:1029100070BDAFF3008004F8010BF5E770B50E460B
:1029200015460C46A31B9D4201DC284670BD14F8D9
:10293000010BAFF30080F5E74FF0FF3070474FF425
:1029400000534B6000207047012070470020704703
:1029500038B50D460446C8B190F82C3003F0FF029C
:102960001BB980F82D20FFF74BFF022384F82C3091
:10297000211D206801F0E8F862682068294601F00E
:1029800019F9012384F82C30002038BD0120FCE720
:1029900038B5044690F82C00C0B202280D460DD080
:1029A000022384F82C30206801F041F92B68022BB7
:1029B0000CBF0523012384F82C30002038BD10B54E
:1029C000044690F82C00C0B2022809D0022384F8F3
:1029D0002C30206801F050F9012384F82C300020BD
:1029E00010BD00002DE9F341044608B9012041E083
:1029F0000368DD0710D4236898075AD423681A07A0
:102A000000F19C8023685B0700F1BA80A069002870
:102A100040F01C8100202DE0A44B9A6802F00C02CB
:102A2000042A07D09A6802F00C02082A0AD15B68CF
:102A3000590207D59D4B1B689A03DCD56368002BB0
:102A4000D9D1D3E76268994BB2F5803F15D11A68A6
:102A500042F480321A606368F3B102F01FF9934DBB
:102A600006462B689B03C6D402F018F9801B642825
:102A7000F7D9032002B0BDE8F081B2F5A02F1A68A3
:102A800003D142F480221A60E1E722F480321A6016
:102A90001A6822F48022DDE702F000F9834D064631
:102AA0002B689F03A7D502F0F9F8801B6428F7D99B
:102AB000DFE77E4B9A6812F00C0F07D09A6802F09D
:102AC0000C02082A11D15B685E020ED4774B1A689B
:102AD000950702D5E268012A88D11A68216922F097
:102AE000F80242EAC1021A6088E7E268704BB2B1AC
:102AF00001221A6002F0D2F86C4D06462B68980746
:102B000007D52B68226923F0F80343EAC2032B6040
:102B100074E702F0C3F8801B0228EFD9A9E71A6016
:102B200002F0BCF8614D06462B6899077FF566AF49
:102B300002F0B4F8801B0228F6D99AE762695D4B6F
:102B40007AB101221A6002F0A9F8584D06466B6F5F
:102B50009F073FF557AF02F0A1F8801B0228F6D976
:102B600087E71A6002F09AF8504D06466B6F980797
:102B70007FF548AF02F092F8801B0228F6D978E77B
:102B80004A4B1A6C12F080522BD101921A6C42F00F
:102B900080521A641B6C03F080530193019B012641
:102BA000454D2B68D9051ED5A268404B012A2AD174
:102BB0001A6F42F001021A67A368002B37D002F0A7
:102BC0006DF83A4D074641F288382B6F9B0728D5A0
:102BD000002E3FF41BAF354A136C23F0805313646F
:102BE00014E70026DCE72B6843F480732B6002F0C7
:102BF00055F807462B68DA05D6D402F04FF8C01B0B
:102C00000228F7D935E7052A1A6F03D142F00402EA
:102C10001A67CDE722F001021A671A6F22F0040248
:102C2000C9E702F03BF8C01B4045CED921E702F0CE
:102C300035F81E4D074641F288382B6F9807C7D5E7
:102C400002F02CF8C01B4045F7D912E7174DAB68CE
:102C500003F00C03082B46D0184E002302283360E3
:102C600034D102F01BF807462B68990128D4D4E927
:102C700007321343626A43EA8213E26A43EA026359
:102C8000A26A0A4C5208013A43EA02436B600123EC
:102C9000336002F003F8054623689A013FF5BAAEA7
:102CA00001F0FCFF401B0228F6D9E2E600380240A2
:102CB00000004742800E47420070004060004742DB
:102CC00001F0ECFFC01B0228CED9D2E601F0E6FFEE
:102CD00004462B689B017FF59DAE01F0DFFF001BD2
:102CE0000228F6D9C5E601283FF4C4AE6868E36956
:102CF00000F480029A427FF479AE226A00F03F032A
:102D000093427FF473AE626A47F6C0730340934206
:102D10007FF46CAEA26A00F4403393427FF466AE57
:102D2000E36A00F07060C01A18BF0120A2E600BF7D
:102D300008B513498B6803F00C03042B03D0082B50
:102D400003D0104800E0104808BD4A684B68496845
:102D500013F4800314BF0C480A48C1F3881118BF4C
:102D6000002302F03F02A1FB0001FDF741FA044BF2
:102D70005B68C3F3014301335B00B0FBF3F0E3E7AF
:102D8000003802400024F40000127A002DE9F041DE
:102D90000D46044610B90120BDE8F081454B1A6884
:102DA00002F00F028A422AD323689E072FD4236899
:102DB000D90743D43F4B1A6802F00F02AA4268D8E1
:102DC00023685A076ED423681B0707D53A4A21693E
:102DD000936823F4604343EAC1039360FFF7A8FFBD
:102DE000354B364A9B68C3F30313D35CD840344B4E
:102DF0001860344B1868FEF7F1FF0020CCE7CAB228
:102E00001A701B6803F00F038B42C4D1CCE758073C
:102E100041BF294A936843F4E05393602368264AEC
:102E200013F0080F1EBF936843F4604393609368E8
:102E3000A16823F0F0030B439360B8E762681E4B70
:102E4000012A1CD11B6813F4003FA4D01A4EB368AA
:102E500023F003031343B36001F020FF41F28838ED
:102E60000746B368626803F00C03B3EB820FA1D08E
:102E700001F014FFC01B4045F3D903208CE7911EDD
:102E800001291B6802D813F0007FDEE713F0020F60
:102E9000DBE7EAB21A701B6803F00F03AB427FF462
:102EA0007AAF8DE7044AE168936823F4E0530B435B
:102EB000936088E7003C0240003802400C9C010807
:102EC0000C0000201C000020044B054A9B68C3F343
:102ED0008223D35C034A1068D84070470038024010
:102EE0001C9C01080C0000200F2303600B4B9A6808
:102EF00002F0030242609A6802F0F00282609A686F
:102F000002F4E052C2609B68DB0803F4E053036103
:102F1000034B1B6803F00F030B607047003802403F
:102F2000003C024070470268D36843F00103D3605D
:102F300003689A6802F00702062A1EBF1A6842F068
:102F400001021A6000207047704770477047704751
:102F500010B503681A69910704460FD5DA6892071D
:102F60000CD56FF002021A610123037703689B6995
:102F70009B077AD0FFF7E9FF0023237723681A69BC
:102F8000500711D5DA6851070ED56FF004021A61A7
:102F90000223237723689B6913F4407F20466AD07D
:102FA000FFF7D3FF0023237723681A69120710D590
:102FB000DA6810070DD56FF008021A610423237731
:102FC0002368DB69990720465BD0FFF7BEFF00232B
:102FD000237723681A69D20611D5DA68D0060ED590
:102FE0006FF010021A61082323772368DB6913F45A
:102FF000407F20464BD0FFF7A8FF002323772368AC
:103000001A69D10708D5DA68D20705D56FF0010231
:103010001A612046FFF7F4F923681A69100608D5EB
:10302000DA68110605D56FF080021A61204600F0BB
:1030300021FD23681A69520608D5DA68500605D5BD
:103040006FF040021A612046FFF781FF23681A697A
:10305000910622D5DA6892061FD56FF020021A6118
:103060002046BDE8104000F004BDFFF76DFF20468C
:10307000FFF76CFF80E7FFF767FF2046FFF766FF6B
:1030800090E7FFF761FF2046FFF760FF9FE7FFF73C
:103090005BFF2046FFF75AFFAFE710BD304A0368D9
:1030A000904212D0B0F1804F0FD0A2F57C429042F6
:1030B0000BD002F58062904207D002F58062904208
:1030C00003D002F57842904219D14A6823F0700388
:1030D0001343234A904229D0B0F1804F26D0A2F565
:1030E0007C42904222D002F5806290421ED002F5CE
:1030F000806290421AD002F57842904216D0194A66
:10310000904213D002F5806290420FD002F58062A7
:1031100090420BD0A2F59832904207D002F580621F
:10312000904203D002F58062904203D1CA6823F432
:10313000407313434A6923F08003134303608B6891
:10314000C3620B688362064B984203D003F5806329
:10315000984201D10B69036301234361704700BFAB
:10316000000001400040014010B50446A0B190F8B5
:103170003D3003F0FF021BB980F83C20FFF7D2FE80
:10318000022384F83D302068211DFFF787FF0123CB
:1031900084F83D30002010BD0120FCE701684B6938
:1031A00013F480634FF0000210D06FF480634B6122
:1031B0002023026380F83D3080F83E20036C80F8C5
:1031C0003C2043F004030364012070471846704715
:1031D0002DE9F0410446164698468FB22568686985
:1031E00037EA000018D06B695A0517D52B6843F4ED
:1031F00000732B6023686FF480625A6100232022E1
:10320000236384F83D2084F83E30226C42F00402AF
:10321000226484F83C300120BDE8F081731CDED0CC
:1032200001F03CFDA0EB0800B04201D8002ED5D142
:1032300000232022236384F83D2084F83E30226C52
:1032400042F02002E4E770B504460D4616462368B6
:103250005B695B0701D5002070BD2046FFF79EFF2C
:10326000A8B96A1CF3D001F019FD801BA84201D84F
:10327000002DECD100232022236384F83D2084F824
:103280003E30226C84F83C3042F02002226401205F
:10329000E2E770B504460D4616462068436913F010
:1032A000400301D0002010E04269D2060ED56FF035
:1032B000100242612022236384F83D2084F83E30CE
:1032C000226C226484F83C30012070BD01F0E6FCE1
:1032D000801BA84201D8002DDFD1002320222363C8
:1032E00084F83D2084F83E30226C42F02002E8E76A
:1032F0002DE9F843089E044690461F464FEA1149BF
:103300008DB22168B9F1010F0CBF4B698B6935EAA9
:1033100003030CBF01230023984501D0002016E0D1
:103320007B1CEFD001F0BAFC801BB84201D8002F03
:10333000E7D100232022236384F83D2084F83E3027
:10334000226C84F83C3042F0200222640120BDE867
:10335000F88370B504460D46164623685B691B0664
:1033600001D5002070BD2046FFF718FFA8B96A1CE0
:10337000F3D001F093FC801BA84201D8002DECD1C2
:1033800000232022236384F83D2084F83E30226C01
:1033900084F83C3042F0200222640120E2E7000081
:1033A0002DE9FF41154602680B9E9846136843F4C9
:1033B000807313600F460A9B009600224FF00111A4
:1033C0000446FFF795FF236838B11B68DB0502D57B
:1033D0004FF40073236403200AE007F0FE071F6127
:1033E0000A9A194933462046FFF7F2FE18B1012028
:1033F00004B0BDE8F081236803905A6903929B6989
:10340000039332460A99039B2046FFF7A2FF40B17F
:10341000236C042B01BF2268136843F4007313600C
:10342000E5E7B8F1010F236802D1EDB21D61DFE7D6
:103430002A0A1A610A9932462046FFF78AFF0028B5
:10344000E6D12368F1E700BF020001002DE9FF414A
:10345000164602680B9D9846136843F48063136018
:103460000268136843F4807313600F460A9B00954B
:1034700000224FF001110446FFF73AFF236848B1DC
:103480001B68DB0502D54FF400732364032004B0EE
:10349000BDE8F081FFB207F0FE021A6129490A9ADD
:1034A0002B462046FFF794FE08B10120EFE7236882
:1034B00003905A6903929B6903932A460A99039BD6
:1034C0002046FFF746FF40B1236C042B01BF226862
:1034D000136843F400731360E7E7B8F1010F236842
:1034E00025D1F6B21E612A460A992046FFF731FF20
:1034F00002460028E8D121680B6843F480730B6012
:1035000020460A9B00954FF00111FFF7F1FE23685A
:103510000028B5D147F001071F610A9A09492B46D7
:103520002046FFF755FE003018BF0120AFE7320AF2
:103530001A610A992A462046FFF70BFF0028C3D1DB
:103540002368CEE70200010070B5044608B90120E7
:1035500070BD90F83D3003F0FF021BB980F83C20AD
:10356000FEF7F6FF2268242384F83D30136823F029
:10357000010313602268136843F400431360226858
:10358000136823F400431360FFF79EFC424B62680C
:103590009A4294BF414B424B98428CBF0023012377
:1035A000002BD4D122683F495368B0FBF1F123F0DE
:1035B0003F030B4353606668374B25689E4288BFC4
:1035C0004FF496732A6A8ABF4B434B1C4FF47A71AF
:1035D00022F03F0284BFB3FBF1F3013313432B62AC
:1035E00021686368CA692C4D22F44F42AB4222F035
:1035F000FF0200F1FF3035D85B00B0FBF3F0431C55
:10360000C3F30B03042B38BF04231343CB6121689E
:10361000D4E907300A68034322F0C00213430B6069
:103620002168D4E903038A6822F40342034322F0A9
:10363000FF0213438B602168D4E90530CA68034355
:1036400022F0FF021343CB602268136843F00103AA
:10365000136000202023206484F83D30206384F828
:103660003E0075E7A56855B903EB4303B0FBF3F0E3
:10367000431CC3F30B036BB143F40043C5E71925A7
:103680006B43B0FBF3F0431CC3F30B0313B143F4E0
:103690004043BAE70123B8E7A08601007F841E00FB
:1036A000FF083D0040420F002DE9F74304469946CC
:1036B0000F4690460C9E01F0F1FA94F83D30202B15
:1036C000054603D0022003B0BDE8F0830090192323
:1036D00001223D492046FFF70BFE0028F2D194F865
:1036E0003C30012BEED0012384F83C3023681A686B
:1036F000D2075EBF1A6842F001021A60226813689E
:1037000023F400631360212384F83D30402384F8C0
:103710003E30002323640A9B6362BDF82C3063852E
:10372000638D2385294BE362CDE900654B46424614
:1037300039462046FFF734FE00282DD00120C2E78D
:10374000FFF707FE40B1236C042B01BF226813680A
:1037500043F400731360F1E7626A236812781A6118
:10376000616A628D4B1C6362238D013A92B2013B08
:1037700062859BB222682385506940070CD55BB1F6
:103780004B781361636A01336362238D013B2385A8
:10379000638D013B9BB26385238D2A4631462046CB
:1037A000002BCDD1FFF74FFD0028CCD12268136844
:1037B00043F400731360202384F83D3084F83C0008
:1037C00084F83E007FE700BF020010000000FFFF0A
:1037D0002DE9F043044687B099460D469046109F68
:1037E00001F05CFA94F83D30202B064604D0022507
:1037F000284607B0BDE8F0830090192301227849DC
:103800002046FFF775FD0028F1D194F83C30012BDC
:10381000EDD0012384F83C3023681A68D0075EBFDE
:103820001A6842F001021A602268136823F40063E8
:103830001360222384F83D30402384F83E30002377
:1038400023640E9B6362BDF83C306385638D2385E2
:10385000644BE3622946CDE900764B46424620465A
:10386000FFF7F4FD054608B10125C1E7228D236865
:10387000B2B902905A6902929A690292029A1A683F
:1038800042F400721A60DFF86081238D002B2FD183
:10389000202284F83D2084F83C3084F83E30A7E7AD
:1038A000012A0BD11A6822F480621A6023680390FF
:1038B0005A6903929A690392039AE0E7022A10D1A7
:1038C0001A6822F480621A602268136843F4006365
:1038D0001360236804905A6904929B690493049BC3
:1038E000D1E705905A6905929B690593059BCAE744
:1038F000032B58D8012B15D1324639462046FFF705
:10390000C8FC0028B0D123681A69636A1A70636A18
:1039100001336362238D013B2385638D013B9BB2A1
:103920006385B2E7022B00963B464FF0000241460A
:1039300020461AD1FFF7DCFC002895D122681368D5
:1039400043F40073136023681A69636A1A70626A29
:10395000531C6362238D013B2385638D013B9BB226
:10396000638523681B695370D1E7FFF7C1FC0246EA
:1039700000287FF479AF21680B6823F480630B6023
:1039800023681969636A1970636A00960133636278
:10399000238D013B2385638D013B9BB263854146AB
:1039A0003B462046C6E7324639462046FFF771FCC3
:1039B00000287FF459AF23681A69636A1A70626A33
:1039C000531C6362238D013B2385638D013B9BB2B6
:1039D00063852368596949077FF557AFC2E700BF80
:1039E000020010000000FFFF0400010010B590F875
:1039F0003D30DBB2202B19D10468242280F83D2011
:103A0000226822F0010222600468626A22F0100239
:103A100062620468626A1143616201680A6842F086
:103A200001020A6080F83D30002010BD0220FCE752
:103A300030B590F83D20D2B2202A18D10568242351
:103A400080F83D302C6824F001042C600468656A1D
:103A50004FF6F0732B400B439BB2636201680B6817
:103A600043F001030B6080F83D20002030BD0220B0
:103A7000FCE7704770470000074AD36823F4E0630F
:103A80001B041B0C43F0BF63000243F4003300F43B
:103A9000E0600343D360704700ED00E070B5174B62
:103AA000DC68C4F30224C4F10705042D04F1040307
:103AB00028BF04254FF0FF36062B06FA05F38CBF0E
:103AC000033C002421EA0303A34006FA04F422EA9B
:103AD0000404002843EA0403A8BF00F160404FEA51
:103AE0000313BCBF00F00F00054ADBB2AABF00F50C
:103AF0006140135480F8003370BD00BF00ED00E05A
:103B000014ED00E0002808DB4209012300F01F004B
:103B100003FA00F0014B43F82200704700E100E097
:103B200000280DDB4309012200F01F0002FA00F01B
:103B30002033044A42F82300BFF34F8FBFF36F8F47
:103B4000704700BF00E100E02DE9F041D1E90743F3
:103B50004A6AD1E90158D1E903ECD1E9057609684F
:103B6000012943EA0403124904680FD01A432A4387
:103B700042EA080343EA0E0343EA0C033B432140B5
:103B800033430B4303600020BDE8F08113434268D8
:103B9000114045EA080242EA0E0242EA0C023A43A8
:103BA00024F4F844324323430A4303604260EAE7C3
:103BB0000080FFFFF0B5CB680C688E680D695F1E52
:103BC0004B6904F1FF3C4C688969013B1B05013CD2
:103BD000013E013D0139012A4FEA04144FEA06264D
:103BE0004FEA05454FEA016143EA07330CD043EA47
:103BF0000C032343826833432B4302F070420B4390
:103C0000134383600020F0BD876827F4700727F412
:103C1000704744EA06023B4342EA0C02C7688360ED
:103C20002A4307F070470A433A43C260EAE773B594
:103C3000002301931546D1E900321343CA6843EAD1
:103C400042238A68013A43EA42130193019B0361CC
:103C5000044601F023F80646A06910F0200003D0C6
:103C60006B1CF9D015B9032002B070BD01F016F835
:103C7000801BA842F0D9F6E7436943EA410141615C
:103C8000002070472DE9F74FDFF8B8C16B4CDFF823
:103C9000B891DFF8B881002301250A689D402A40C9
:103CA000954240F0B2804E6826F010065F004FF05B
:103CB000030E013E0EFA07FE012E6FEA0E0E0FD81C
:103CC0008568CE6805EA0E05BE402E4386604E68C4
:103CD0004568C6F3001625EA02059E402E4346605D
:103CE000C5688E6805EA0E05BE402E43C6604D6865
:103CF00025F01005022D14D14FEAD30A00EB8A0AF1
:103D000003F0070BDAF820604FEA8B0B0F2505FA5A
:103D10000BF526EA05050E6906FA0BF62E43CAF8DE
:103D20002060056805EA0E0E4D6805F00305BD40EC
:103D300045EA0E0505604D68EE0066D54FF0000BB4
:103D4000CDF804B0DCF844603D4D46F48046CCF834
:103D50004460DCF8446006F480460196019E23F03E
:103D6000030606F1804606F59C3603F0030ED6F8EE
:103D700008A04FEA8E0E0F2707FA0EF7A8422AEA8C
:103D8000070749D005F58065A84247D005F580654D
:103D9000A84245D005F58065A84243D0484543D0A8
:103DA000404543D005F54065A84241D005F5806502
:103DB000A8423FD005F58065A8423DD005F5806555
:103DC000A84214BF0A25092505FA0EF53D43B56042
:103DD0004D682768D643ED0354BF3740174327602B
:103DE0004D686768AD0354BF3740174367604D683F
:103DF000A768ED0254BF37401743A7604D68E768D6
:103E0000AD0254BF37401743E7600133102B7FF4F6
:103E100043AF03B0BDE8F08F5D46D5E70125D3E79A
:103E20000225D1E70325CFE70425CDE70525CBE71C
:103E30000625C9E70725C7E70825C5E7003C014077
:103E4000000002400038024000100240001402400E
:103E50000AB1816170470904FBE7F8B504460E46D4
:103E600015461F4621688A6836EA020301D0002001
:103E700030E06B1CF7D000F011FFC01B8542F1D879
:103E80002268536823F0E00353606368B3F5827FD0
:103E90000BD1A368B3F5004F02D0B3F5806F04D106
:103EA0002268136823F040031360A36AB3F5005F30
:103EB00009D12268136823F4005313602268136841
:103EC00043F400531360012384F85130002384F835
:103ED00050300320F8BD10B513464268B2F5827F1A
:103EE00004460BD18268B2F5004F02D0B2F5806F64
:103EF00004D12068026822F0400202606268B2F5D4
:103F0000827F0BD1A268B2F5806F0A4607D080216C
:103F10002046FFF7A2FF20B9002010BD0A4601216C
:103F2000F6E7636D43F0200363650320F5E70000C7
:103F300073B51346124A134E15684268B5FBF6F680
:103F40004FF47A757543B2F5827F044601950BD123
:103F50000A468021FFF781FF78B1636D43F02003AB
:103F60006365032002B070BD019B33B1019B013B2F
:103F7000019323689B681B06F6D40020F2E700BF7C
:103F80000C00002000366E0110B50446002839D020
:103F90000023836290F8513003F0FF021BB980F8D0
:103FA0005020FEF7F7FB2268022384F85130136893
:103FB00023F040031360D4E90023A1680B43E168B8
:103FC0000B4321690B4361690B43E1690B43216A90
:103FD0000B43A16A0B43A16901F400710B43136009
:103FE000638B616A226803F004030B435360226809
:103FF000D36923F40063D36100200123606584F852
:10400000513010BD0120FCE72DE9F3411D4690F829
:104010005030012B04468846174600F09480012357
:1040200080F8503000F03AFE064694F85100C0B2D5
:10403000012840F08680B8F1000F58D0002F56D0EC
:10404000032384F85130A368C4F830800020B3F50E
:10405000004FC4E9100008BF22686065A786E786A4
:10406000A063A087E08702BF136843F48043136016
:1040700023681A6852065EBF1A6842F040021A604E
:10408000E2686368B2F5006F3AD10BB1012F0AD133
:104090002368226B1288DA60236B02332363E38E7A
:1040A000013B9BB2E386E38E9BB2A3B9324629461D
:1040B0002046FFF73DFF002840D1A36833B90193A4
:1040C0002368DA6801929B680193019B606D003060
:1040D00018BF01200BE023689A689007D9D400F03C
:1040E000DDFD801BA842DED3691CDCD00320012348
:1040F00084F85130002384F8503002B0BDE8F081DC
:104100000BB1012F0AD12368226B12781A73236B2B
:1041100001332363E38E013B9BB2E386E38E9BB2C4
:10412000002BC3D023689A689207EDD400F0B6FD47
:10413000801BA842F2D36B1CF0D0D7E72023636525
:10414000BBE70220D3E70220D7E72DE9F7431D465E
:1041500090F850300A9E012B04468846914600F0A4
:10416000E980012380F8503000F098FD94F8513038
:10417000DBB2012B07460BD06268B2F5827F40F0BC
:10418000D780A268002A40F0D380042B40F0D08072
:10419000B8F1000F00F0CA80B9F1000F00F0C6803E
:1041A000002D00F0C38094F85130C4F83890042BEF
:1041B0001CBF052384F851300023C4E91033636524
:1041C0002368E587A587C4F83080E586A5861A6848
:1041D00052065EBF1A6842F040021A60E2686368E5
:1041E000B2F5006F5DD10BB1012D0AD1226B2368AE
:1041F0001288DA60236B02332363E38E013B9BB2A8
:10420000E3860125E38E9BB2ABB9E38F9BB293B9F2
:104210003A4631462046FFF78BFE002840F0848066
:10422000A368002B34D123680190DA6801929B685F
:104230000193019B2CE02268936898070ED5E38ECA
:104240009BB25BB155B1236B1B88D360236B0233E8
:104250002363E38E013B9BB2E386002522689368CB
:10426000D9070DD5E38F9BB253B1A36BD2681A80E7
:10427000A36B0233A363E38F013B9BB2E38701256A
:1042800000F00CFDC01B8642BCD8731CBAD00320C2
:10429000012384F85130002384F8503003B0BDE886
:1042A000F0830BB1012D0AD1226B236812781A73A7
:1042B000236B01332363E38E013B9BB2E38601252D
:1042C000E38E9BB21BB9E38F9BB2002BA0D0226878
:1042D000936898070ED5E38E9BB25BB155B1236B03
:1042E0001B781373236B01332363E38E013B9BB273
:1042F000E386002522689368D9070DD5E38F9BB22A
:1043000053B1A36BD2681A70A36B0133A363E38F1D
:10431000013B9BB2E387012500F0C0FCC01B864235
:10432000CED8731CCCD0B2E7202363650120AFE761
:104330000220ADE70220B1E72DE9F3411D464368B5
:10434000B3F5827F0446884617460CD1836853B97B
:10435000042380F85130134600950A46FFF7F5FE16
:1043600002B0BDE8F08194F85030012B7CD00123DD
:1043700084F8503000F092FC064694F85100C0B228
:1043800001286FD1B8F1000F5AD0002F58D0042364
:1043900084F85130002363652363E787A386E386AF
:1043A000C4E91033A368A787B3F5004F08BF22689C
:1043B000C4F8388002BF136823F480431360236875
:1043C0001A6857065EBF1A6842F040021A60E36836
:1043D000FBB1E38F9BB203B323689A68D20736D54B
:1043E000DA68A36B1A80A36B0233A363E38F013BEC
:1043F0009BB2E387EDE723689A68D00718D5A26BD4
:104400001B7B1370A36B0133A363E38F013B9BB250
:10441000E387E38F9BB2002BEDD13246294620463D
:10442000FFF759FDD8B9606D003018BF012007E0D3
:1044300000F034FC801BA842EBD3691CE9D00320B8
:10444000012384F85130002384F8503088E700F0CD
:1044500025FC801BA842BCD36B1CBAD0EFE72023FD
:104460006365E0E70220EBE7022079E770B50668B4
:10447000049C756C44EA034305F040452B43736488
:104480000368DA6343680268B3F5403F30D1866859
:104490001EB1012E03D121F07F41916370BD022E28
:1044A00001F47F0301F47F45CCB207D1D90CAD0AEA
:1044B000C90241EA451141EAD401EEE7032E01F0B9
:1044C0007F400AD1DB0CED0A9B0243EA451343EA25
:1044D000D403C10F43EAC131DFE7190D2D0B0902E7
:1044E00041EA051141EA1411030F41EA0331D4E70F
:1044F000D160D3E710B5044640B390F8393003F0EB
:10450000FF021BB980F83820FDF7EEFF22686168D2
:10451000022384F83930136823F440330B431360CB
:104520002268A168536B23F007030B43536322688F
:10453000E168136C23F47F5323F03F030B431364B0
:1045400000200123E06384F8393010BD0120FCE72E
:1045500073B590F83840012C05464FF0020414D092
:1045600080F839400126069C80F838600094FFF7F7
:104570007DFF2A68136843F40C5313602A6813689C
:1045800033431360002002B070BD2046FBE773B5D3
:1045900015461A4690F83830012B04464FF00203B6
:1045A00017D080F839300368012680F838605D61E3
:1045B000079B0093069BFFF759FF2268136843F49B
:1045C0000C5313602268136833431360002002B059
:1045D00070BD1846FBE738B50268136823F0050381
:1045E00043F004031360044600F058FB05462368BB
:1045F000186810F0010009D11A6822F40C521A60F0
:10460000012384F8393084F838000FE000F046FBCD
:10461000401BB0F57A7FEAD9E36B43F02003E363F4
:104620000320002384F8390084F8383038BD70B591
:1046300005682A6842F004022A60012908BF03685D
:10464000044614BF243503F11C0500F027FB064681
:10465000286810F020000AD12268136823F46453FC
:104660001360012384F8393084F838000FE000F03B
:1046700015FB801BB0F57A7FEAD9E36B43F020038A
:10468000E3630320002384F8390084F8383070BDD8
:1046900038B5054608B9012038BD194B1B6B190206
:1046A00019D42B6800241C602B683F229A602B6869
:1046B0001C612B689C612B68DC612B685C622B6839
:1046C00028465C63FDF732FFEC6385F8384085F8D7
:1046D00039402046E0E70368196811F0010104D071
:1046E000FFF779FF0028DCD0D5E75A6A920602D599
:1046F000FFF79DFFF6E7DB699B06D2D50121F7E7BF
:10470000003802407047704770B503685E681D68E6
:10471000F207044615D5E90513D51A6822F480720C
:104720001A60C36B43F00103C363036801229A60FC
:10473000042380F83930002380F83830436903B10E
:104740009847B20617D5AB0415D52268136823F431
:1047500000531360236820229A60E36B43F0020346
:10476000E363042384F83930002384F83830636924
:104770000BB120469847300717D5290515D5226873
:10478000136823F400631360236808229A60E36BC4
:1047900043F00403E363042384F83930002384F8EE
:1047A000383063690BB12046984772070CD56B050A
:1047B0000AD52268136823F48063136023680422F7
:1047C0009A602046FFF79EFFB00715D5A90513D5BF
:1047D0002268136823F400731360236802229A602E
:1047E000E36BE363012384F83930002384F8383025
:1047F00023690BB120469847F20614D5EB0412D575
:104800002268136823F480531360236810229A608F
:10481000E36BE363012384F83930002384F83830F4
:104820002046FFF770FF70BD70B590F83830012B4F
:104830004FF002032CD0012280F838200A0180F8C2
:1048400039308418D4E9075345EA0343093D012D63
:10485000656A194E9ABF05F07F452B4343EA05630D
:104860000568B9B9696A31400B436B6203688269B4
:104870009A61C369093B012B04D8436A026823F09B
:104880007F439362012380F83930002380F8383069
:10489000184670BDE96931400B43EB61831801682C
:1048A0009A690A61DB69093B012B9FBF636A026851
:1048B00023F07F431362E5E7F0FFFC00F0B50568E5
:1048C0004C68EB68D20184321544C3F30B431C449B
:1048D0006B6803F470436B6005680E68EB68013623
:1048E000C3F30B431544334443EA04436B60056848
:1048F000CC68EB68C3F30A031C44AB189D6805F44D
:1049000070459D6005688B68EE680133C6F30A0642
:104910001544334443EA0443AB6003681344002561
:104920001C6924F007041C6103680C6913441C61B2
:10493000046891F8326091F83170D1F818C01444CD
:10494000A369A561046891F8303043EA0C6314440C
:1049500043EA072343EA0643A361036813445C69FF
:1049600024F0FF045C6103684C6913445C610468D3
:104970001444E36923F4E06323F00703E36103686D
:10498000D1E9074613443443DC61036813449C6A4D
:104990009D6203684C6A13449C620B6963B3012BEC
:1049A0002CD09C1E022C2BD9072B14BF01240224CF
:1049B00003681344DD6A05F0E025DD6203689D1895
:1049C000D1E900639B1B8E6A63430333744343EA5C
:1049D0000443EB6204681444236B23F4FF6323F065
:1049E000070323630368C96A1344196301688B587A
:1049F00043F001038B50F0BD0424D9E70324D7E72B
:104A00000224D5E738B50446002870D090F8A130CC
:104A100003F0FF021BB980F8A020FDF7F5FD226826
:104A2000022384F8A130936923F070439361D4E9A1
:104A300001300343E068226803432069916903431E
:104A40000B43936121682B4A8B6813408B6021686C
:104A500060698B6843EA0043A06903438B60216867
:104A6000CB681340CB602168E069CB6843EA004320
:104A7000206A0343CB6021680B6913400B612168F6
:104A80000B69606A43EA0043A06A03430B61216833
:104A90004B691A404A612268E16A536943EA01435B
:104AA000216B0B435361216894F83600CA6A94F86D
:104AB000355002F07F42CA62226894F83430D16ADD
:104AC0000B4343EA052343EA0043D3622268536B56
:104AD00043F0060353632268936943F00103936133
:104AE00000200123C4F8A40084F8A13038BD0120BF
:104AF000FCE700BF00F800F07047704770B503682E
:104B00009E6B5D6B7207044615D5690713D55A6B0A
:104B100022F004025A6303680422DA63D0F8A43056
:104B200043F00103C0F8A430002380F8A12080F8EE
:104B3000A030FFF7E1FFB20717D5AB0715D5226804
:104B4000536B23F00203536323680222DA63D4F821
:104B5000A4301343C4F8A430042384F8A130002304
:104B600084F8A0302046FFF7C7FFF00711D5E9070A
:104B70000FD52268536B23F001035363226801238E
:104B8000D36384F8A130002384F8A0302046FCF7DA
:104B9000F7FB320712D52B0710D52268536B23F091
:104BA0000803536323680822DA63012384F8A130E1
:104BB000002384F8A0302046FFF79FFF70BDF8B5B2
:104BC00090F8A030012B06468C4696464FF0020026
:104BD0001DD0012786F8A07086F8A10034240D4668
:104BE00004FB02640FCD38340FC40FCD0FC40FCDBA
:104BF0000FC42B682360304672466146FFF75EFEA5
:104C0000336800205F6286F8A17086F8A000F8BDC6
:104C100010B590F8A030012B4FF0020314D00468B7
:104C200080F8A130012280F8A020636B23F00103FB
:104C30006363064B196401684B6B13434B6300239A
:104C400080F8A12080F8A030184610BD006801400F
:104C500008B50B4B1A6842F400721A601A6842F4E5
:104C600080621A601A6842F480721A600320FEF7AC
:104C700003FF0020FDF7B2F8FDF7FEFB002008BDA2
:104C8000003C0240034A044B11681B780B4413603C
:104C9000704700BF9024012018000020014B1868C5
:104CA000704700BF9024012038B50446FFF7F6FF97
:104CB000631C1CBF054B1B78054618BFE418FFF7A3
:104CC000EDFF401BA042FAD338BD00BF1800002002
:104CD000F7B5036813F0430F044640F08C80236857
:104CE00013F00C0F45D08B4D8B4E00232B60FFF73C
:104CF000D5FF074633689B0000F1D08023685F072B
:104D000015D5D4E90413D6F888201B0602F0E0423A
:104D100043EA81131343C6F88830D6F88C30226AF0
:104D200023F4F853013A43EA0223C6F88C3023688F
:104D30001E0714D5784AA369D2F8881020691B078A
:104D400001F0706143EA80130B43C2F88830D2F857
:104D50008C30616A23F440330B43C2F88C3001235A
:104D60002B60FFF79BFF6C4D06462B68980040F1C7
:104D70009C8023689A0634D500230193664B674DC7
:104D80001A6C42F080521A641B6C03F0805301933A
:104D9000019B2B6843F480732B60FFF77FFF06466F
:104DA0002B68D90540F188805B4D2B6F13F440735D
:104DB00040F08980A26A02F44073B3F5407F564BFD
:104DC00040F0A380996822F0704221F4F81122F497
:104DD00040720A439A60A26A196FC2F30B020A4337
:104DE0001A67206810F010001FBF4D4B94F82C205C
:104DF0001A60002050E04B4D474E00232B60FFF718
:104E00004DFF074633681B0140D42368DF0741BFCD
:104E1000D4E901231B0743EA8213C6F884302368D0
:104E20009E0715D53C4AE368D2F8841060681B06DB
:104E300001F0E04143EA80130B43C2F88430D2F81A
:104E40008C10E36921F01F01013B0B43C2F88C3049
:104E5000236858060AD5E36862681B0643EA821392
:104E6000A26843EA02732C4AC2F8843001232B6003
:104E7000FFF714FF284D06462B6819013FF52FAFA9
:104E8000FFF70CFF801B0228F6D904E0FFF706FFAE
:104E9000C01B0228B6D9032003B0F0BDFFF7FEFE09
:104EA000C01B02287FF626AFF5E7FFF7F7FE801B51
:104EB00002287FF65AAFEEE7FFF7F0FE801B0228CC
:104EC0007FF66EAFE7E7A26A02F4407293423FF4C6
:104ED00071AF2B6F144A0121116023F4407300213C
:104EE00011602B672B6FDA077FF564AFFFF7D6FEF3
:104EF00041F2883706462B6F9B073FF55BAFFFF704
:104F0000CDFE801BB842F6D9C5E79A6822F4F812A4
:104F100060E700BF70004742003802400070004068
:104F2000E011474268004742400E474210B5044630
:104F300050B1437903F0FF0213B90271FDF7BCFAD7
:104F400001236371002010BD0120FCE7FCF746BD82
:104F5000FCF7BABD00F108034FF0FF324360C0E92F
:104F6000022303610023036070470023036170473D
:104F700043684B609A688A609A68516099600861DA
:104F800003680133036070470A68531C30B50AD1C7
:104F900003695A684A6091608B60596008610368D0
:104FA0000133036030BD00F108035C682568954259
:104FB000EFD82346F9E7D0E9012103699160D0E9F0
:104FC000011251605A68824204BF82685A6000220E
:104FD00002611A68013A1A601868704710B50446F1
:104FE00001F098FFA46B01F0B7FFB4FA84F0400918
:104FF00010BD70B51546026C866B044642B9056853
:105000009DB9806801F05CF9A5600136A66370BDAA
:105010006DB9406813F028F86368226C1344A268E5
:105020006360934201D3236863600020EDE7C068AA
:1050300013F01AF8236CE26821685B421A448A4232
:10504000E2603EBFA2689B18E360022DEDD10EB175
:10505000013EEAE73046D8E7034610B41A6C08462A
:1050600062B1D9689C681144A142D96024BF196813
:10507000D960D9685DF8044B12F0F6BF5DF8044BB7
:10508000704770B5044601F045FF94F8455004F1AF
:1050900024066DB2002D14DCFF2384F8453001F0A6
:1050A0005BFF01F037FF94F8445004F110066DB235
:1050B000002D12DCFF2384F84430BDE8704001F07D
:1050C0004BBF636A002BE7D0304601F01BF808B1F4
:1050D00001F0A0F8013D6DB2DCE72369002BE9D0B7
:1050E000304601F00FF808B101F094F8013D6DB2BF
:1050F000DEE7000038B50D46044640B94FF05003D6
:1051000083F31188BFF36F8FBFF34F8FFEE701F07A
:1051100001FFD4E90F30226862604343D1181B1AA3
:105120001344A160E3600021FF23A16384F84430AD
:1051300084F8453095B9236963B104F1100000F09B
:10514000E1FF38B10A4B4FF080521A60BFF34F8F26
:10515000BFF36F8F01F000FF012038BD04F1100094
:10516000FFF7F8FE04F12400FFF7F4FEF2E700BFBA
:1051700004ED00E013B51C4640B94FF0500383F333
:105180001188BFF36F8FBFF34F8FFEE743B94FF026
:10519000500383F31188BFF36F8FBFF34F8FFEE788
:1051A0004AB191B94FF0500383F31188BFF36F8F69
:1051B000BFF34F8FFEE741B14FF0500383F31188E7
:1051C000BFF36F8FBFF34F8FFEE750230193019B17
:1051D000502B08D04FF0500383F31188BFF36F8F2B
:1051E000BFF34F8FFEE7002908BF2246019B2260D4
:1051F0000123C4E90F0184F8463019462046FFF721
:1052000079FF9DF8103084F84C30204602B010BD74
:10521000F8B50D461746064640B94FF0500383F3E4
:105220001188BFF36F8FBFF34F8FFEE748435030B5
:1052300001F042FD044660B1002380F8463055B9C4
:105240002060C4E90F6501212046FFF753FF84F871
:105250004C702046F8BD00F150030360F1E713B530
:1052600013460C4640B94FF0500383F31188BFF347
:105270006F8FBFF34F8FFEE7884208D24FF0500385
:1052800083F31188BFF36F8FBFF34F8FFEE70222C6
:10529000009200221146FFF76DFF00B1846302B057
:1052A00010BD10B50C4640B94FF0500383F3118880
:1052B000BFF36F8FBFF34F8FFEE7884208D24FF0E6
:1052C000500383F31188BFF36F8FBFF34F8FFEE757
:1052D00002220021FFF79CFF00B1846310BD000093
:1052E0002DE9FF47884601921F46044640B94FF01A
:1052F000500383F31188BFF36F8FBFF34F8FFEE727
:1053000051B9036C43B14FF0500383F31188BFF3DD
:105310006F8FBFF34F8FFEE7022F0BD1E36B012B93
:1053200008D04FF0500383F31188BFF36F8FBFF3A2
:105330004F8FFEE700F074FF50B9019E4EB14FF061
:10534000500383F31188BFF36F8FBFF34F8FFEE7D6
:1053500000264FF00009DFF8E8A037E0019D1DB9F5
:1053600001F0FAFD002050E016B902A800F00AFF93
:1053700001F0F2FD00F040FD01F0CCFD94F8443066
:10538000FF2B08BF84F8449094F84530FF2B08BFEA
:1053900084F8459001F0E0FD01A902A800F0FEFEAE
:1053A000002846D101F0B6FDA26BE36B9A422FD1E3
:1053B00001F0D2FD019904F1100000F06BFE2046CF
:1053C000FFF75FFE00F0B6FD50B3012601F0A2FD2D
:1053D000A26BE36B9A4201D3022FBFD13A464146FA
:1053E0002046FFF706FE636A1BB104F1240000F0BB
:1053F00089FE38B1124B4FF080521A60BFF34F8FC5
:10540000BFF36F8F01F0A8FD012004B0BDE8F08765
:1054100001F0A2FD2046FFF734FE00F08BFDD4E73B
:105420004FF08053CAF80030BFF34F8FBFF36F8F38
:10543000CBE72046FFF725FE00F07CFD92E700BF9A
:1054400004ED00E02DE9F843894690461F460446E6
:1054500040B94FF0500383F31188BFF36F8FBFF350
:105460004F8FFEE751B9036C43B14FF0500383F304
:105470001188BFF36F8FBFF34F8FFEE7022F0BD161
:10548000E36B012B08D04FF0500383F31188BFF377
:105490006F8FBFF34F8FFEE701F05AFEEFF31186D7
:1054A0004FF0500383F31188BFF36F8FBFF34F8F1B
:1054B000A26BE36B9A4201D3022F22D194F845509C
:1054C0003A466DB249462046FFF793FD6B1C13D157
:1054D000636A0BB901200BE004F1240000F012FE16
:1054E0000028F7D0B8F1000FF4D00120C8F8000070
:1054F00086F31188BDE8F88301356DB284F8455014
:10550000E8E70020F4E770B50D46044640B94FF0D7
:10551000500383F31188BFF36F8FBFF34F8FFEE704
:10552000036C43B14FF0500383F31188BFF36F8FC7
:10553000BFF34F8FFEE7036853B9836843B14FF061
:10554000500383F31188BFF36F8FBFF34F8FFEE7D4
:1055500001F0FEFDEFF311864FF0500383F3118845
:10556000BFF36F8FBFF34F8FA26BE36B93421CD9D6
:1055700094F8453001325BB2A2635A1C10D1636AC1
:105580000BB9012009E004F1240000F0BBFD002864
:10559000F7D0002DF5D00120286086F3118870BD6A
:1055A00001335BB284F84530EBE70020F5E70000FB
:1055B0002DE9F04385B00F460192044640B94FF003
:1055C000500383F31188BFF36F8FBFF34F8FFEE754
:1055D00051B9036C43B14FF0500383F31188BFF30B
:1055E0006F8FBFF34F8FFEE700F01AFE50B9019E98
:1055F0004EB14FF0500383F31188BFF36F8FBFF3A9
:105600004F8FFEE700264FF00008DFF8E0903BE008
:10561000019D1DB901F0A0FC002052E016B902A8BE
:1056200000F0B0FD01F098FC00F0E6FB01F072FC28
:1056300094F84430FF2B08BF84F8448094F8453038
:10564000FF2B08BF84F8458001F086FC01A902A861
:1056500000F0A4FD00283DD12046FFF7BFFC98B321
:10566000019904F1240000F015FD2046FFF709FD23
:1056700000F060FC38B94FF08053C9F80030BFF338
:105680004F8FBFF36F8F012601F044FCA56B002DF7
:10569000BED039462046013DFFF7DEFCA5632369F5
:1056A00063B104F1100000F02DFD38B10F4B4FF045
:1056B00080521A60BFF34F8FBFF36F8F01F04CFC25
:1056C000012005B0BDE8F0832046FFF7DAFC00F0CA
:1056D00031FCD8E72046FFF7D4FC00F02BFC204635
:1056E000FFF77CFC0028CED096E700BF04ED00E079
:1056F0002DE9FF410446019140B94FF0500383F377
:105700001188BFF36F8FBFF34F8FFEE7056C45B174
:105710004FF0500383F31188BFF36F8FBFF34F8FA8
:10572000FEE700F07DFD50B9019D45B14FF05003FB
:1057300083F31188BFF36F8FBFF34F8FFEE72E46C1
:105740000027DFF82C814FE0019B63B945B14FF092
:10575000500383F31188BFF36F8FBFF34F8FFEE7C2
:1057600001F0FAFB5EE016B902A800F00BFD01F0B3
:10577000F3FB00F041FB01F0CDFB94F84430FF2B2C
:1057800008BF84F8447094F84530FF2B08BF84F8B4
:10579000457001F0E1FB01A902A800F0FFFC002820
:1057A0004AD12046FFF71AFC00283FD023683BB9B6
:1057B00001F0B0FBA06800F043FD054601F0CCFB12
:1057C000019904F1240000F065FC2046FFF759FC24
:1057D00000F0B0FB38B94FF08053C8F80030BFF389
:1057E0004F8FBFF36F8F012601F094FBA36B002B4B
:1057F000AAD0013BA363236813B900F0F1FDA060B8
:10580000236963B104F1100000F07CFC38B1184B3F
:105810004FF080521A60BFF34F8FBFF36F8F01F0CC
:105820009BFB0125284604B0BDE8F0812046FFF728
:1058300028FC00F07FFBD6E72046FFF722FC00F0B3
:1058400079FB2046FFF7CAFB0028CCD0002DE9D019
:1058500001F060FB616A19B1236B1968C1F138016D
:10586000A06800F06FFD002501F076FBDAE700BFCD
:1058700004ED00E02DE9F84389469046054640B91D
:105880004FF0500383F31188BFF36F8FBFF34F8F37
:10589000FEE751B9036C43B14FF0500383F3118815
:1058A000BFF36F8FBFF34F8FFEE701F051FCEFF3B3
:1058B00011874FF0500383F31188BFF36F8FBFF34D
:1058C0004F8FAC6B1CB395F84460494676B22846BE
:1058D000FFF7C2FB013C731CAC6313D12B690BB9FE
:1058E00001200BE005F1100000F00CFC0028F7D0BF
:1058F000B8F1000FF4D00120C8F8000087F3118838
:10590000BDE8F883013676B285F84460E8E72046C2
:10591000F4E7000030B5074A002352F8335002EB99
:10592000C3041DB942F83310606030BD0133082B49
:10593000F3D1FAE79424012010B5084A002302EBC2
:10594000C3014C68844204D1002042F8330048600F
:1059500010BD0133082BF2D1FAE700BF94240120D7
:1059600010B5044640B94FF0500383F31188BFF3DC
:105970006F8FBFF34F8FFEE7FFF7DEFF94F84630DF
:1059800023B92046BDE8104001F024BA10BD70B51F
:1059900004460D46164601F0BDFA94F84430FF2B3C
:1059A00004BF002384F8443094F84530FF2B04BF33
:1059B000002384F8453001F0CFFAA36B2BB93246AF
:1059C000294604F1240000F07FFB2046BDE870402A
:1059D000FFF757BB2DE9F041044601F09BFA2F4B2E
:1059E0002F4D1A682F4F01321A602E68002E49D1B0
:1059F0002C601B68012B1FD14FF0140808FB0670A8
:105A00000136FFF7A7FA382EF8D1DFF8C480264E0A
:105A10004046FFF79FFA3046FFF79CFA2348FFF70E
:105A200099FA2348FFF796FA2248FFF793FA224B98
:105A3000C3F80080214B1E60214A136801331360B4
:105A4000204A63641168E36A14208B4200FB0370F0
:105A500004F1040188BF1360FFF78AFA01F07CFAB1
:105A6000194B1B6863B12B68DA6AE36A9A4207D262
:105A7000164B4FF080521A60BFF34F8FBFF36F8FFA
:105A8000BDE8F081104B1B68002BD5D12B68DA6A7A
:105A9000E36A9A4298BF2C60CEE700BFA8180020A6
:105AA0003C14002048140020D4180020F0180020D6
:105AB0001C19002008190020401400204414002064
:105AC000B8180020BC1800200419002004ED00E0E4
:105AD000C018002010B590F85D3004463BB9006B4B
